{
  "abi": [
    {
      "inputs": [
        {
          "internalType": "address",
          "name": "_contract",
          "type": "address"
        },
        {
          "internalType": "string",
          "name": "_name",
          "type": "string"
        },
        {
          "internalType": "string",
          "name": "_symbol",
          "type": "string"
        },
        {
          "internalType": "string",
          "name": "_imageURL",
          "type": "string"
        },
        {
          "internalType": "enum CATEGORY",
          "name": "_category",
          "type": "uint8"
        }
      ],
      "stateMutability": "nonpayable",
      "type": "constructor"
    },
    {
      "inputs": [],
      "name": "assetAddress",
      "outputs": [
        {
          "internalType": "address",
          "name": "",
          "type": "address"
        }
      ],
      "stateMutability": "view",
      "type": "function"
    },
    {
      "inputs": [],
      "name": "category",
      "outputs": [
        {
          "internalType": "enum CATEGORY",
          "name": "",
          "type": "uint8"
        }
      ],
      "stateMutability": "view",
      "type": "function"
    },
    {
      "inputs": [],
      "name": "data",
      "outputs": [
        {
          "components": [
            {
              "internalType": "address",
              "name": "assetAddress",
              "type": "address"
            },
            {
              "internalType": "string",
              "name": "name",
              "type": "string"
            },
            {
              "internalType": "string",
              "name": "symbol",
              "type": "string"
            },
            {
              "internalType": "string",
              "name": "imageURL",
              "type": "string"
            },
            {
              "internalType": "enum CATEGORY",
              "name": "category",
              "type": "uint8"
            },
            {
              "components": [
                {
                  "internalType": "uint256",
                  "name": "overallScore",
                  "type": "uint256"
                },
                {
                  "internalType": "uint256",
                  "name": "technicalImplementation",
                  "type": "uint256"
                },
                {
                  "internalType": "uint256",
                  "name": "trustFactor",
                  "type": "uint256"
                },
                {
                  "internalType": "uint256",
                  "name": "founderReliability",
                  "type": "uint256"
                }
              ],
              "internalType": "struct Rating",
              "name": "rating",
              "type": "tuple"
            }
          ],
          "internalType": "struct Data",
          "name": "",
          "type": "tuple"
        }
      ],
      "stateMutability": "view",
      "type": "function"
    },
    {
      "inputs": [],
      "name": "imageURL",
      "outputs": [
        {
          "internalType": "string",
          "name": "",
          "type": "string"
        }
      ],
      "stateMutability": "view",
      "type": "function"
    },
    {
      "inputs": [],
      "name": "name",
      "outputs": [
        {
          "internalType": "string",
          "name": "",
          "type": "string"
        }
      ],
      "stateMutability": "view",
      "type": "function"
    },
    {
      "inputs": [
        {
          "internalType": "address",
          "name": "_address",
          "type": "address"
        },
        {
          "internalType": "uint256",
          "name": "_technicalImplementation",
          "type": "uint256"
        },
        {
          "internalType": "uint256",
          "name": "_trustFactor",
          "type": "uint256"
        },
        {
          "internalType": "uint256",
          "name": "_founderReliability",
          "type": "uint256"
        }
      ],
      "name": "rate",
      "outputs": [],
      "stateMutability": "nonpayable",
      "type": "function"
    },
    {
      "inputs": [],
      "name": "rating",
      "outputs": [
        {
          "internalType": "uint256",
          "name": "overallScore",
          "type": "uint256"
        },
        {
          "internalType": "uint256",
          "name": "technicalImplementation",
          "type": "uint256"
        },
        {
          "internalType": "uint256",
          "name": "trustFactor",
          "type": "uint256"
        },
        {
          "internalType": "uint256",
          "name": "founderReliability",
          "type": "uint256"
        }
      ],
      "stateMutability": "view",
      "type": "function"
    },
    {
      "inputs": [],
      "name": "symbol",
      "outputs": [
        {
          "internalType": "string",
          "name": "",
          "type": "string"
        }
      ],
      "stateMutability": "view",
      "type": "function"
    }
  ],
  "bytecode": "60806040523480156200001157600080fd5b5060405162000c2438038062000c24833981016040819052620000349162000236565b600080546001600160a01b0319166001600160a01b038716179055835162000064906001906020870190620000c3565b5082516200007a906002906020860190620000c3565b50815162000090906003906020850190620000c3565b506004805482919060ff19166001836002811115620000b357620000b362000302565b0217905550505050505062000355565b828054620000d19062000318565b90600052602060002090601f016020900481019282620000f5576000855562000140565b82601f106200011057805160ff191683800117855562000140565b8280016001018555821562000140579182015b828111156200014057825182559160200191906001019062000123565b506200014e92915062000152565b5090565b5b808211156200014e576000815560010162000153565b634e487b7160e01b600052604160045260246000fd5b600082601f8301126200019157600080fd5b81516001600160401b0380821115620001ae57620001ae62000169565b604051601f8301601f19908116603f01168101908282118183101715620001d957620001d962000169565b81604052838152602092508683858801011115620001f657600080fd5b600091505b838210156200021a5785820183015181830184015290820190620001fb565b838211156200022c5760008385830101525b9695505050505050565b600080600080600060a086880312156200024f57600080fd5b85516001600160a01b03811681146200026757600080fd5b60208701519095506001600160401b03808211156200028557600080fd5b6200029389838a016200017f565b95506040880151915080821115620002aa57600080fd5b620002b889838a016200017f565b94506060880151915080821115620002cf57600080fd5b50620002de888289016200017f565b925050608086015160038110620002f457600080fd5b809150509295509295909350565b634e487b7160e01b600052602160045260246000fd5b600181811c908216806200032d57607f821691505b602082108114156200034f57634e487b7160e01b600052602260045260246000fd5b50919050565b6108bf80620003656000396000f3fe608060405234801561001057600080fd5b50600436106100885760003560e01c806380f474f61161005b57806380f474f61461010057806395d89b4114610136578063b90497e01461013e578063ef430aa61461014657600080fd5b806306fdde031461008d5780631ba46cfd146100ab57806360e77b9e146100d657806373d4a13a146100eb575b600080fd5b610095610160565b6040516100a2919061067a565b60405180910390f35b6000546100be906001600160a01b031681565b6040516001600160a01b0390911681526020016100a2565b6100e96100e4366004610694565b6101ee565b005b6100f3610339565b6040516100a29190610713565b6005546006546007546008546101169392919084565b6040805194855260208501939093529183015260608201526080016100a2565b610095610567565b610095610574565b6004546101539060ff1681565b6040516100a291906107cb565b6001805461016d906107df565b80601f0160208091040260200160405190810160405280929190818152602001828054610199906107df565b80156101e65780601f106101bb576101008083540402835291602001916101e6565b820191906000526020600020905b8154815290600101906020018083116101c957829003601f168201915b505050505081565b6001600160a01b0384166000908152600a6020526040902054849060ff161561025d5760405162461bcd60e51b815260206004820152601960248201527f596f752063616e206f6e6c792072617465206f6e636521212100000000000000604482015260640160405180910390fd5b6001600160a01b0381166000908152600a60205260409020805460ff19166001179055600954600654610291908683610581565b6006556007546102a2908583610581565b6007556008546102b3908483610581565b60085560006003846102c58789610830565b6102cf9190610830565b6102d99190610848565b90506102eb6005600001548284610581565b6005555050600980546001810182556000919091527f6e1540171b6c0c960b71a7020d9f60077f6af931a8bbf590da0223dacf75c7af0180546001600160a01b031916331790555050505050565b6103416105b5565b6040805160c08101909152600080546001600160a01b0316825260018054919291602083019190610371906107df565b80601f016020809104026020016040519081016040528092919081815260200182805461039d906107df565b80156103ea5780601f106103bf576101008083540402835291602001916103ea565b820191906000526020600020905b8154815290600101906020018083116103cd57829003601f168201915b5050505050815260200160028054610401906107df565b80601f016020809104026020016040519081016040528092919081815260200182805461042d906107df565b801561047a5780601f1061044f5761010080835404028352916020019161047a565b820191906000526020600020905b81548152906001019060200180831161045d57829003601f168201915b5050505050815260200160038054610491906107df565b80601f01602080910402602001604051908101604052809291908181526020018280546104bd906107df565b801561050a5780601f106104df5761010080835404028352916020019161050a565b820191906000526020600020905b8154815290600101906020018083116104ed57829003601f168201915b505050918352505060045460209091019060ff16600281111561052f5761052f6106db565b815260408051608081018252600554815260065460208281019190915260075492820192909252600854606082015291015292915050565b6002805461016d906107df565b6003805461016d906107df565b600061058e826001610830565b83610599848761086a565b6105a39190610830565b6105ad9190610848565b949350505050565b6040518060c0016040528060006001600160a01b03168152602001606081526020016060815260200160608152602001600060028111156105f8576105f86106db565b81526020016106286040518060800160405280600081526020016000815260200160008152602001600081525090565b905290565b6000815180845260005b8181101561065357602081850181015186830182015201610637565b81811115610665576000602083870101525b50601f01601f19169290920160200192915050565b60208152600061068d602083018461062d565b9392505050565b600080600080608085870312156106aa57600080fd5b84356001600160a01b03811681146106c157600080fd5b966020860135965060408601359560600135945092505050565b634e487b7160e01b600052602160045260246000fd5b6003811061070f57634e487b7160e01b600052602160045260246000fd5b9052565b602080825282516001600160a01b031682820152820151610120604083018190526000919061074661014085018361062d565b91506040850151601f1980868503016060870152610764848361062d565b9350606087015191508086850301608087015250610782838261062d565b925050608085015161079760a08601826106f1565b5060a09490940151805160c0850152602081015160e085015260408101516101008501526060015192909301919091525090565b602081016107d982846106f1565b92915050565b600181811c908216806107f357607f821691505b6020821081141561081457634e487b7160e01b600052602260045260246000fd5b50919050565b634e487b7160e01b600052601160045260246000fd5b600082198211156108435761084361081a565b500190565b60008261086557634e487b7160e01b600052601260045260246000fd5b500490565b60008160001904831182151516156108845761088461081a565b50029056fea2646970667358221220d35478104980e61a65582711f282210a800b203a0e795b1abf0037bbadde81ce64736f6c634300080a0033",
  "bytecodeSha1": "dbdbb971223f2f96f6a743aceea4c26840a52624",
  "compiler": {
    "evm_version": "istanbul",
    "optimizer": {
      "enabled": true,
      "runs": 200
    },
    "version": "0.8.10+commit.fc410830"
  },
  "contractName": "Asset",
  "language": "Solidity",
  "natspec": {
    "kind": "dev",
    "methods": {},
    "version": 1
  },
  "opcodes": "PUSH1 0x80 PUSH1 0x40 MSTORE CALLVALUE DUP1 ISZERO PUSH2 0x10 JUMPI PUSH1 0x0 DUP1 REVERT JUMPDEST POP PUSH1 0x4 CALLDATASIZE LT PUSH2 0x88 JUMPI PUSH1 0x0 CALLDATALOAD PUSH1 0xE0 SHR DUP1 PUSH4 0x80F474F6 GT PUSH2 0x5B JUMPI DUP1 PUSH4 0x80F474F6 EQ PUSH2 0x100 JUMPI DUP1 PUSH4 0x95D89B41 EQ PUSH2 0x136 JUMPI DUP1 PUSH4 0xB90497E0 EQ PUSH2 0x13E JUMPI DUP1 PUSH4 0xEF430AA6 EQ PUSH2 0x146 JUMPI PUSH1 0x0 DUP1 REVERT JUMPDEST DUP1 PUSH4 0x6FDDE03 EQ PUSH2 0x8D JUMPI DUP1 PUSH4 0x1BA46CFD EQ PUSH2 0xAB JUMPI DUP1 PUSH4 0x60E77B9E EQ PUSH2 0xD6 JUMPI DUP1 PUSH4 0x73D4A13A EQ PUSH2 0xEB JUMPI JUMPDEST PUSH1 0x0 DUP1 REVERT JUMPDEST PUSH2 0x95 PUSH2 0x160 JUMP JUMPDEST PUSH1 0x40 MLOAD PUSH2 0xA2 SWAP2 SWAP1 PUSH2 0x67A JUMP JUMPDEST PUSH1 0x40 MLOAD DUP1 SWAP2 SUB SWAP1 RETURN JUMPDEST PUSH1 0x0 SLOAD PUSH2 0xBE SWAP1 PUSH1 0x1 PUSH1 0x1 PUSH1 0xA0 SHL SUB AND DUP2 JUMP JUMPDEST PUSH1 0x40 MLOAD PUSH1 0x1 PUSH1 0x1 PUSH1 0xA0 SHL SUB SWAP1 SWAP2 AND DUP2 MSTORE PUSH1 0x20 ADD PUSH2 0xA2 JUMP JUMPDEST PUSH2 0xE9 PUSH2 0xE4 CALLDATASIZE PUSH1 0x4 PUSH2 0x694 JUMP JUMPDEST PUSH2 0x1EE JUMP JUMPDEST STOP JUMPDEST PUSH2 0xF3 PUSH2 0x339 JUMP JUMPDEST PUSH1 0x40 MLOAD PUSH2 0xA2 SWAP2 SWAP1 PUSH2 0x713 JUMP JUMPDEST PUSH1 0x5 SLOAD PUSH1 0x6 SLOAD PUSH1 0x7 SLOAD PUSH1 0x8 SLOAD PUSH2 0x116 SWAP4 SWAP3 SWAP2 SWAP1 DUP5 JUMP JUMPDEST PUSH1 0x40 DUP1 MLOAD SWAP5 DUP6 MSTORE PUSH1 0x20 DUP6 ADD SWAP4 SWAP1 SWAP4 MSTORE SWAP2 DUP4 ADD MSTORE PUSH1 0x60 DUP3 ADD MSTORE PUSH1 0x80 ADD PUSH2 0xA2 JUMP JUMPDEST PUSH2 0x95 PUSH2 0x567 JUMP JUMPDEST PUSH2 0x95 PUSH2 0x574 JUMP JUMPDEST PUSH1 0x4 SLOAD PUSH2 0x153 SWAP1 PUSH1 0xFF AND DUP2 JUMP JUMPDEST PUSH1 0x40 MLOAD PUSH2 0xA2 SWAP2 SWAP1 PUSH2 0x7CB JUMP JUMPDEST PUSH1 0x1 DUP1 SLOAD PUSH2 0x16D SWAP1 PUSH2 0x7DF JUMP JUMPDEST DUP1 PUSH1 0x1F ADD PUSH1 0x20 DUP1 SWAP2 DIV MUL PUSH1 0x20 ADD PUSH1 0x40 MLOAD SWAP1 DUP2 ADD PUSH1 0x40 MSTORE DUP1 SWAP3 SWAP2 SWAP1 DUP2 DUP2 MSTORE PUSH1 0x20 ADD DUP3 DUP1 SLOAD PUSH2 0x199 SWAP1 PUSH2 0x7DF JUMP JUMPDEST DUP1 ISZERO PUSH2 0x1E6 JUMPI DUP1 PUSH1 0x1F LT PUSH2 0x1BB JUMPI PUSH2 0x100 DUP1 DUP4 SLOAD DIV MUL DUP4 MSTORE SWAP2 PUSH1 0x20 ADD SWAP2 PUSH2 0x1E6 JUMP JUMPDEST DUP3 ADD SWAP2 SWAP1 PUSH1 0x0 MSTORE PUSH1 0x20 PUSH1 0x0 KECCAK256 SWAP1 JUMPDEST DUP2 SLOAD DUP2 MSTORE SWAP1 PUSH1 0x1 ADD SWAP1 PUSH1 0x20 ADD DUP1 DUP4 GT PUSH2 0x1C9 JUMPI DUP3 SWAP1 SUB PUSH1 0x1F AND DUP3 ADD SWAP2 JUMPDEST POP POP POP POP POP DUP2 JUMP JUMPDEST PUSH1 0x1 PUSH1 0x1 PUSH1 0xA0 SHL SUB DUP5 AND PUSH1 0x0 SWAP1 DUP2 MSTORE PUSH1 0xA PUSH1 0x20 MSTORE PUSH1 0x40 SWAP1 KECCAK256 SLOAD DUP5 SWAP1 PUSH1 0xFF AND ISZERO PUSH2 0x25D JUMPI PUSH1 0x40 MLOAD PUSH3 0x461BCD PUSH1 0xE5 SHL DUP2 MSTORE PUSH1 0x20 PUSH1 0x4 DUP3 ADD MSTORE PUSH1 0x19 PUSH1 0x24 DUP3 ADD MSTORE PUSH32 0x596F752063616E206F6E6C792072617465206F6E636521212100000000000000 PUSH1 0x44 DUP3 ADD MSTORE PUSH1 0x64 ADD PUSH1 0x40 MLOAD DUP1 SWAP2 SUB SWAP1 REVERT JUMPDEST PUSH1 0x1 PUSH1 0x1 PUSH1 0xA0 SHL SUB DUP2 AND PUSH1 0x0 SWAP1 DUP2 MSTORE PUSH1 0xA PUSH1 0x20 MSTORE PUSH1 0x40 SWAP1 KECCAK256 DUP1 SLOAD PUSH1 0xFF NOT AND PUSH1 0x1 OR SWAP1 SSTORE PUSH1 0x9 SLOAD PUSH1 0x6 SLOAD PUSH2 0x291 SWAP1 DUP7 DUP4 PUSH2 0x581 JUMP JUMPDEST PUSH1 0x6 SSTORE PUSH1 0x7 SLOAD PUSH2 0x2A2 SWAP1 DUP6 DUP4 PUSH2 0x581 JUMP JUMPDEST PUSH1 0x7 SSTORE PUSH1 0x8 SLOAD PUSH2 0x2B3 SWAP1 DUP5 DUP4 PUSH2 0x581 JUMP JUMPDEST PUSH1 0x8 SSTORE PUSH1 0x0 PUSH1 0x3 DUP5 PUSH2 0x2C5 DUP8 DUP10 PUSH2 0x830 JUMP JUMPDEST PUSH2 0x2CF SWAP2 SWAP1 PUSH2 0x830 JUMP JUMPDEST PUSH2 0x2D9 SWAP2 SWAP1 PUSH2 0x848 JUMP JUMPDEST SWAP1 POP PUSH2 0x2EB PUSH1 0x5 PUSH1 0x0 ADD SLOAD DUP3 DUP5 PUSH2 0x581 JUMP JUMPDEST PUSH1 0x5 SSTORE POP POP PUSH1 0x9 DUP1 SLOAD PUSH1 0x1 DUP2 ADD DUP3 SSTORE PUSH1 0x0 SWAP2 SWAP1 SWAP2 MSTORE PUSH32 0x6E1540171B6C0C960B71A7020D9F60077F6AF931A8BBF590DA0223DACF75C7AF ADD DUP1 SLOAD PUSH1 0x1 PUSH1 0x1 PUSH1 0xA0 SHL SUB NOT AND CALLER OR SWAP1 SSTORE POP POP POP POP POP JUMP JUMPDEST PUSH2 0x341 PUSH2 0x5B5 JUMP JUMPDEST PUSH1 0x40 DUP1 MLOAD PUSH1 0xC0 DUP2 ADD SWAP1 SWAP2 MSTORE PUSH1 0x0 DUP1 SLOAD PUSH1 0x1 PUSH1 0x1 PUSH1 0xA0 SHL SUB AND DUP3 MSTORE PUSH1 0x1 DUP1 SLOAD SWAP2 SWAP3 SWAP2 PUSH1 0x20 DUP4 ADD SWAP2 SWAP1 PUSH2 0x371 SWAP1 PUSH2 0x7DF JUMP JUMPDEST DUP1 PUSH1 0x1F ADD PUSH1 0x20 DUP1 SWAP2 DIV MUL PUSH1 0x20 ADD PUSH1 0x40 MLOAD SWAP1 DUP2 ADD PUSH1 0x40 MSTORE DUP1 SWAP3 SWAP2 SWAP1 DUP2 DUP2 MSTORE PUSH1 0x20 ADD DUP3 DUP1 SLOAD PUSH2 0x39D SWAP1 PUSH2 0x7DF JUMP JUMPDEST DUP1 ISZERO PUSH2 0x3EA JUMPI DUP1 PUSH1 0x1F LT PUSH2 0x3BF JUMPI PUSH2 0x100 DUP1 DUP4 SLOAD DIV MUL DUP4 MSTORE SWAP2 PUSH1 0x20 ADD SWAP2 PUSH2 0x3EA JUMP JUMPDEST DUP3 ADD SWAP2 SWAP1 PUSH1 0x0 MSTORE PUSH1 0x20 PUSH1 0x0 KECCAK256 SWAP1 JUMPDEST DUP2 SLOAD DUP2 MSTORE SWAP1 PUSH1 0x1 ADD SWAP1 PUSH1 0x20 ADD DUP1 DUP4 GT PUSH2 0x3CD JUMPI DUP3 SWAP1 SUB PUSH1 0x1F AND DUP3 ADD SWAP2 JUMPDEST POP POP POP POP POP DUP2 MSTORE PUSH1 0x20 ADD PUSH1 0x2 DUP1 SLOAD PUSH2 0x401 SWAP1 PUSH2 0x7DF JUMP JUMPDEST DUP1 PUSH1 0x1F ADD PUSH1 0x20 DUP1 SWAP2 DIV MUL PUSH1 0x20 ADD PUSH1 0x40 MLOAD SWAP1 DUP2 ADD PUSH1 0x40 MSTORE DUP1 SWAP3 SWAP2 SWAP1 DUP2 DUP2 MSTORE PUSH1 0x20 ADD DUP3 DUP1 SLOAD PUSH2 0x42D SWAP1 PUSH2 0x7DF JUMP JUMPDEST DUP1 ISZERO PUSH2 0x47A JUMPI DUP1 PUSH1 0x1F LT PUSH2 0x44F JUMPI PUSH2 0x100 DUP1 DUP4 SLOAD DIV MUL DUP4 MSTORE SWAP2 PUSH1 0x20 ADD SWAP2 PUSH2 0x47A JUMP JUMPDEST DUP3 ADD SWAP2 SWAP1 PUSH1 0x0 MSTORE PUSH1 0x20 PUSH1 0x0 KECCAK256 SWAP1 JUMPDEST DUP2 SLOAD DUP2 MSTORE SWAP1 PUSH1 0x1 ADD SWAP1 PUSH1 0x20 ADD DUP1 DUP4 GT PUSH2 0x45D JUMPI DUP3 SWAP1 SUB PUSH1 0x1F AND DUP3 ADD SWAP2 JUMPDEST POP POP POP POP POP DUP2 MSTORE PUSH1 0x20 ADD PUSH1 0x3 DUP1 SLOAD PUSH2 0x491 SWAP1 PUSH2 0x7DF JUMP JUMPDEST DUP1 PUSH1 0x1F ADD PUSH1 0x20 DUP1 SWAP2 DIV MUL PUSH1 0x20 ADD PUSH1 0x40 MLOAD SWAP1 DUP2 ADD PUSH1 0x40 MSTORE DUP1 SWAP3 SWAP2 SWAP1 DUP2 DUP2 MSTORE PUSH1 0x20 ADD DUP3 DUP1 SLOAD PUSH2 0x4BD SWAP1 PUSH2 0x7DF JUMP JUMPDEST DUP1 ISZERO PUSH2 0x50A JUMPI DUP1 PUSH1 0x1F LT PUSH2 0x4DF JUMPI PUSH2 0x100 DUP1 DUP4 SLOAD DIV MUL DUP4 MSTORE SWAP2 PUSH1 0x20 ADD SWAP2 PUSH2 0x50A JUMP JUMPDEST DUP3 ADD SWAP2 SWAP1 PUSH1 0x0 MSTORE PUSH1 0x20 PUSH1 0x0 KECCAK256 SWAP1 JUMPDEST DUP2 SLOAD DUP2 MSTORE SWAP1 PUSH1 0x1 ADD SWAP1 PUSH1 0x20 ADD DUP1 DUP4 GT PUSH2 0x4ED JUMPI DUP3 SWAP1 SUB PUSH1 0x1F AND DUP3 ADD SWAP2 JUMPDEST POP POP POP SWAP2 DUP4 MSTORE POP POP PUSH1 0x4 SLOAD PUSH1 0x20 SWAP1 SWAP2 ADD SWAP1 PUSH1 0xFF AND PUSH1 0x2 DUP2 GT ISZERO PUSH2 0x52F JUMPI PUSH2 0x52F PUSH2 0x6DB JUMP JUMPDEST DUP2 MSTORE PUSH1 0x40 DUP1 MLOAD PUSH1 0x80 DUP2 ADD DUP3 MSTORE PUSH1 0x5 SLOAD DUP2 MSTORE PUSH1 0x6 SLOAD PUSH1 0x20 DUP3 DUP2 ADD SWAP2 SWAP1 SWAP2 MSTORE PUSH1 0x7 SLOAD SWAP3 DUP3 ADD SWAP3 SWAP1 SWAP3 MSTORE PUSH1 0x8 SLOAD PUSH1 0x60 DUP3 ADD MSTORE SWAP2 ADD MSTORE SWAP3 SWAP2 POP POP JUMP JUMPDEST PUSH1 0x2 DUP1 SLOAD PUSH2 0x16D SWAP1 PUSH2 0x7DF JUMP JUMPDEST PUSH1 0x3 DUP1 SLOAD PUSH2 0x16D SWAP1 PUSH2 0x7DF JUMP JUMPDEST PUSH1 0x0 PUSH2 0x58E DUP3 PUSH1 0x1 PUSH2 0x830 JUMP JUMPDEST DUP4 PUSH2 0x599 DUP5 DUP8 PUSH2 0x86A JUMP JUMPDEST PUSH2 0x5A3 SWAP2 SWAP1 PUSH2 0x830 JUMP JUMPDEST PUSH2 0x5AD SWAP2 SWAP1 PUSH2 0x848 JUMP JUMPDEST SWAP5 SWAP4 POP POP POP POP JUMP JUMPDEST PUSH1 0x40 MLOAD DUP1 PUSH1 0xC0 ADD PUSH1 0x40 MSTORE DUP1 PUSH1 0x0 PUSH1 0x1 PUSH1 0x1 PUSH1 0xA0 SHL SUB AND DUP2 MSTORE PUSH1 0x20 ADD PUSH1 0x60 DUP2 MSTORE PUSH1 0x20 ADD PUSH1 0x60 DUP2 MSTORE PUSH1 0x20 ADD PUSH1 0x60 DUP2 MSTORE PUSH1 0x20 ADD PUSH1 0x0 PUSH1 0x2 DUP2 GT ISZERO PUSH2 0x5F8 JUMPI PUSH2 0x5F8 PUSH2 0x6DB JUMP JUMPDEST DUP2 MSTORE PUSH1 0x20 ADD PUSH2 0x628 PUSH1 0x40 MLOAD DUP1 PUSH1 0x80 ADD PUSH1 0x40 MSTORE DUP1 PUSH1 0x0 DUP2 MSTORE PUSH1 0x20 ADD PUSH1 0x0 DUP2 MSTORE PUSH1 0x20 ADD PUSH1 0x0 DUP2 MSTORE PUSH1 0x20 ADD PUSH1 0x0 DUP2 MSTORE POP SWAP1 JUMP JUMPDEST SWAP1 MSTORE SWAP1 JUMP JUMPDEST PUSH1 0x0 DUP2 MLOAD DUP1 DUP5 MSTORE PUSH1 0x0 JUMPDEST DUP2 DUP2 LT ISZERO PUSH2 0x653 JUMPI PUSH1 0x20 DUP2 DUP6 ADD DUP2 ADD MLOAD DUP7 DUP4 ADD DUP3 ADD MSTORE ADD PUSH2 0x637 JUMP JUMPDEST DUP2 DUP2 GT ISZERO PUSH2 0x665 JUMPI PUSH1 0x0 PUSH1 0x20 DUP4 DUP8 ADD ADD MSTORE JUMPDEST POP PUSH1 0x1F ADD PUSH1 0x1F NOT AND SWAP3 SWAP1 SWAP3 ADD PUSH1 0x20 ADD SWAP3 SWAP2 POP POP JUMP JUMPDEST PUSH1 0x20 DUP2 MSTORE PUSH1 0x0 PUSH2 0x68D PUSH1 0x20 DUP4 ADD DUP5 PUSH2 0x62D JUMP JUMPDEST SWAP4 SWAP3 POP POP POP JUMP JUMPDEST PUSH1 0x0 DUP1 PUSH1 0x0 DUP1 PUSH1 0x80 DUP6 DUP8 SUB SLT ISZERO PUSH2 0x6AA JUMPI PUSH1 0x0 DUP1 REVERT JUMPDEST DUP5 CALLDATALOAD PUSH1 0x1 PUSH1 0x1 PUSH1 0xA0 SHL SUB DUP2 AND DUP2 EQ PUSH2 0x6C1 JUMPI PUSH1 0x0 DUP1 REVERT JUMPDEST SWAP7 PUSH1 0x20 DUP7 ADD CALLDATALOAD SWAP7 POP PUSH1 0x40 DUP7 ADD CALLDATALOAD SWAP6 PUSH1 0x60 ADD CALLDATALOAD SWAP5 POP SWAP3 POP POP POP JUMP JUMPDEST PUSH4 0x4E487B71 PUSH1 0xE0 SHL PUSH1 0x0 MSTORE PUSH1 0x21 PUSH1 0x4 MSTORE PUSH1 0x24 PUSH1 0x0 REVERT JUMPDEST PUSH1 0x3 DUP2 LT PUSH2 0x70F JUMPI PUSH4 0x4E487B71 PUSH1 0xE0 SHL PUSH1 0x0 MSTORE PUSH1 0x21 PUSH1 0x4 MSTORE PUSH1 0x24 PUSH1 0x0 REVERT JUMPDEST SWAP1 MSTORE JUMP JUMPDEST PUSH1 0x20 DUP1 DUP3 MSTORE DUP3 MLOAD PUSH1 0x1 PUSH1 0x1 PUSH1 0xA0 SHL SUB AND DUP3 DUP3 ADD MSTORE DUP3 ADD MLOAD PUSH2 0x120 PUSH1 0x40 DUP4 ADD DUP2 SWAP1 MSTORE PUSH1 0x0 SWAP2 SWAP1 PUSH2 0x746 PUSH2 0x140 DUP6 ADD DUP4 PUSH2 0x62D JUMP JUMPDEST SWAP2 POP PUSH1 0x40 DUP6 ADD MLOAD PUSH1 0x1F NOT DUP1 DUP7 DUP6 SUB ADD PUSH1 0x60 DUP8 ADD MSTORE PUSH2 0x764 DUP5 DUP4 PUSH2 0x62D JUMP JUMPDEST SWAP4 POP PUSH1 0x60 DUP8 ADD MLOAD SWAP2 POP DUP1 DUP7 DUP6 SUB ADD PUSH1 0x80 DUP8 ADD MSTORE POP PUSH2 0x782 DUP4 DUP3 PUSH2 0x62D JUMP JUMPDEST SWAP3 POP POP PUSH1 0x80 DUP6 ADD MLOAD PUSH2 0x797 PUSH1 0xA0 DUP7 ADD DUP3 PUSH2 0x6F1 JUMP JUMPDEST POP PUSH1 0xA0 SWAP5 SWAP1 SWAP5 ADD MLOAD DUP1 MLOAD PUSH1 0xC0 DUP6 ADD MSTORE PUSH1 0x20 DUP2 ADD MLOAD PUSH1 0xE0 DUP6 ADD MSTORE PUSH1 0x40 DUP2 ADD MLOAD PUSH2 0x100 DUP6 ADD MSTORE PUSH1 0x60 ADD MLOAD SWAP3 SWAP1 SWAP4 ADD SWAP2 SWAP1 SWAP2 MSTORE POP SWAP1 JUMP JUMPDEST PUSH1 0x20 DUP2 ADD PUSH2 0x7D9 DUP3 DUP5 PUSH2 0x6F1 JUMP JUMPDEST SWAP3 SWAP2 POP POP JUMP JUMPDEST PUSH1 0x1 DUP2 DUP2 SHR SWAP1 DUP3 AND DUP1 PUSH2 0x7F3 JUMPI PUSH1 0x7F DUP3 AND SWAP2 POP JUMPDEST PUSH1 0x20 DUP3 LT DUP2 EQ ISZERO PUSH2 0x814 JUMPI PUSH4 0x4E487B71 PUSH1 0xE0 SHL PUSH1 0x0 MSTORE PUSH1 0x22 PUSH1 0x4 MSTORE PUSH1 0x24 PUSH1 0x0 REVERT JUMPDEST POP SWAP2 SWAP1 POP JUMP JUMPDEST PUSH4 0x4E487B71 PUSH1 0xE0 SHL PUSH1 0x0 MSTORE PUSH1 0x11 PUSH1 0x4 MSTORE PUSH1 0x24 PUSH1 0x0 REVERT JUMPDEST PUSH1 0x0 DUP3 NOT DUP3 GT ISZERO PUSH2 0x843 JUMPI PUSH2 0x843 PUSH2 0x81A JUMP JUMPDEST POP ADD SWAP1 JUMP JUMPDEST PUSH1 0x0 DUP3 PUSH2 0x865 JUMPI PUSH4 0x4E487B71 PUSH1 0xE0 SHL PUSH1 0x0 MSTORE PUSH1 0x12 PUSH1 0x4 MSTORE PUSH1 0x24 PUSH1 0x0 REVERT JUMPDEST POP DIV SWAP1 JUMP JUMPDEST PUSH1 0x0 DUP2 PUSH1 0x0 NOT DIV DUP4 GT DUP3 ISZERO ISZERO AND ISZERO PUSH2 0x884 JUMPI PUSH2 0x884 PUSH2 0x81A JUMP JUMPDEST POP MUL SWAP1 JUMP INVALID LOG2 PUSH5 0x6970667358 0x22 SLT KECCAK256 0xD3 SLOAD PUSH25 0x104980E61A65582711F282210A800B203A0E795B1ABF0037BB 0xAD 0xDE DUP2 0xCE PUSH5 0x736F6C6343 STOP ADDMOD EXP STOP CALLER ",
  "sha1": "04b6de93bb45dedb314557ca5bc1c78eac8706d7",
  "source": "// SPDX-License-Identifier: GPL-3.0\n\npragma solidity >=0.6.6 <0.9.0;\n\nstruct Rating {\n    uint256 overallScore;\n    uint256 technicalImplementation;\n    uint256 trustFactor;\n    uint256 founderReliability;\n}\nenum CATEGORY {\n    Token,\n    DApp,\n    NFT\n}\nstruct Data{\n    address assetAddress;\n    string name;\n    string symbol;\n    string imageURL;\n    CATEGORY category;\n    Rating rating;\n}\n\ncontract Asset {\n    address public assetAddress;\n    string public name;\n    string public symbol;\n    string public imageURL;\n    CATEGORY public category;\n    Rating public rating;\n    address [] ratedUsers;\n    mapping(address => bool) ratedUsersMap;\n\n    constructor(\n        address _contract,\n        string memory _name,\n        string memory _symbol,\n        string memory _imageURL,\n        CATEGORY _category\n    ) {\n        assetAddress=_contract;\n        name = _name;\n        symbol = _symbol;\n        imageURL = _imageURL;\n        category = _category;\n    }\n\n    function data() public view returns(Data memory){\n        Data memory returnData = Data(assetAddress,name,symbol,imageURL,category,rating);\n        return returnData;\n    }\n\n\n    modifier UniqueRater(address _address) {\n        require(ratedUsersMap[_address] == false, \"You can only rate once!!!\");\n        ratedUsersMap[_address]=true;        \n        _;\n    }\n\n    function rate(\n        address _address,\n        uint256 _technicalImplementation,\n        uint256 _trustFactor,\n        uint256 _founderReliability\n    ) public UniqueRater(_address) {\n        uint256 n = ratedUsers.length;\n        rating.technicalImplementation = appendMetric(\n            rating.technicalImplementation,\n            _technicalImplementation,\n            n\n        );\n        rating.trustFactor = appendMetric(rating.trustFactor, _trustFactor, n);\n        rating.founderReliability = appendMetric(\n            rating.founderReliability,\n            _founderReliability,\n            n\n        );\n        uint256 overallScore = (_technicalImplementation +\n            _trustFactor +\n            _founderReliability) / 3;\n        rating.overallScore = appendMetric(\n            rating.overallScore,\n            overallScore,\n            n\n        );\n        ratedUsers.push(msg.sender);\n    }\n\n    function appendMetric(\n        uint256 a,\n        uint256 b,\n        uint256 n\n    ) pure private returns (uint256) {\n        return (a * n + b) / (n + 1);\n    }\n}\n",
  "sourcePath": "contracts/Asset.sol",
  "type": "contract"
}