{
  "abi": [
    {
      "inputs": [
        {
          "internalType": "uint256",
          "name": "",
          "type": "uint256"
        }
      ],
      "name": "assetContracts",
      "outputs": [
        {
          "internalType": "contract Asset",
          "name": "",
          "type": "address"
        }
      ],
      "stateMutability": "view",
      "type": "function"
    },
    {
      "inputs": [
        {
          "internalType": "address",
          "name": "",
          "type": "address"
        }
      ],
      "name": "assetContractsMap",
      "outputs": [
        {
          "internalType": "address",
          "name": "",
          "type": "address"
        }
      ],
      "stateMutability": "view",
      "type": "function"
    },
    {
      "inputs": [
        {
          "internalType": "address",
          "name": "_contract",
          "type": "address"
        },
        {
          "internalType": "string",
          "name": "message",
          "type": "string"
        }
      ],
      "name": "commentAsset",
      "outputs": [],
      "stateMutability": "nonpayable",
      "type": "function"
    },
    {
      "inputs": [
        {
          "internalType": "address",
          "name": "_contract",
          "type": "address"
        },
        {
          "internalType": "string",
          "name": "_name",
          "type": "string"
        },
        {
          "internalType": "string",
          "name": "_symbol",
          "type": "string"
        },
        {
          "internalType": "string",
          "name": "_imageURL",
          "type": "string"
        },
        {
          "internalType": "enum CATEGORY",
          "name": "_category",
          "type": "uint8"
        }
      ],
      "name": "create",
      "outputs": [],
      "stateMutability": "nonpayable",
      "type": "function"
    },
    {
      "inputs": [
        {
          "internalType": "address",
          "name": "_contract",
          "type": "address"
        }
      ],
      "name": "getComments",
      "outputs": [
        {
          "components": [
            {
              "internalType": "address",
              "name": "user",
              "type": "address"
            },
            {
              "internalType": "string",
              "name": "message",
              "type": "string"
            },
            {
              "internalType": "uint256",
              "name": "upvotes",
              "type": "uint256"
            },
            {
              "internalType": "uint256",
              "name": "downvotes",
              "type": "uint256"
            }
          ],
          "internalType": "struct Comment[]",
          "name": "",
          "type": "tuple[]"
        }
      ],
      "stateMutability": "view",
      "type": "function"
    },
    {
      "inputs": [
        {
          "internalType": "address",
          "name": "_contract",
          "type": "address"
        }
      ],
      "name": "getData",
      "outputs": [
        {
          "components": [
            {
              "internalType": "address",
              "name": "assetAddress",
              "type": "address"
            },
            {
              "internalType": "string",
              "name": "name",
              "type": "string"
            },
            {
              "internalType": "string",
              "name": "symbol",
              "type": "string"
            },
            {
              "internalType": "string",
              "name": "imageURL",
              "type": "string"
            },
            {
              "internalType": "enum CATEGORY",
              "name": "category",
              "type": "uint8"
            },
            {
              "components": [
                {
                  "internalType": "uint256",
                  "name": "overallScore",
                  "type": "uint256"
                },
                {
                  "internalType": "uint256",
                  "name": "technicalImplementation",
                  "type": "uint256"
                },
                {
                  "internalType": "uint256",
                  "name": "trustFactor",
                  "type": "uint256"
                },
                {
                  "internalType": "uint256",
                  "name": "founderReliability",
                  "type": "uint256"
                }
              ],
              "internalType": "struct Rating",
              "name": "rating",
              "type": "tuple"
            }
          ],
          "internalType": "struct Data",
          "name": "",
          "type": "tuple"
        }
      ],
      "stateMutability": "view",
      "type": "function"
    },
    {
      "inputs": [
        {
          "internalType": "address",
          "name": "_contract",
          "type": "address"
        },
        {
          "internalType": "uint256",
          "name": "_technicalImplementation",
          "type": "uint256"
        },
        {
          "internalType": "uint256",
          "name": "_trustFactor",
          "type": "uint256"
        },
        {
          "internalType": "uint256",
          "name": "_founderReliability",
          "type": "uint256"
        }
      ],
      "name": "rateAsset",
      "outputs": [],
      "stateMutability": "nonpayable",
      "type": "function"
    },
    {
      "inputs": [
        {
          "internalType": "address",
          "name": "_contract",
          "type": "address"
        },
        {
          "internalType": "uint256",
          "name": "_comment",
          "type": "uint256"
        },
        {
          "internalType": "enum VOTE",
          "name": "_vote",
          "type": "uint8"
        }
      ],
      "name": "voteComment",
      "outputs": [],
      "stateMutability": "nonpayable",
      "type": "function"
    }
  ],
  "bytecode": "608060405234801561001057600080fd5b5061244e806100206000396000f3fe60806040523480156200001157600080fd5b5060043610620000935760003560e01c806368684a8b116200006257806368684a8b146200014b578063812eabe014620001625780638211082714620001795780638e5fa1db146200019057600080fd5b806317fe375f146200009857806338266b2214620000c75780635123fa4a14620000ed5780635bcb18a31462000132575b600080fd5b620000af620000a9366004620006f8565b620001a7565b604051620000be919062000780565b60405180910390f35b620000de620000d8366004620006f8565b62000276565b604051620000be919062000847565b62000119620000fe366004620006f8565b6001602052600090815260409020546001600160a01b031681565b6040516001600160a01b039091168152602001620000be565b620001496200014336600462000a38565b6200033b565b005b620001496200015c36600462000af6565b620003e8565b620001496200017336600462000b4c565b620004a3565b620001496200018a36600462000b8a565b6200056c565b62000119620001a136600462000bd4565b6200062a565b6001600160a01b03808216600090815260016020526040902054606091839116620001ef5760405162461bcd60e51b8152600401620001e69062000bee565b60405180910390fd5b6001600160a01b0380841660009081526001602052604080822054815163247cd04360e21b8152915193169283926391f3410c92600480820193918290030181865afa15801562000244573d6000803e3d6000fd5b505050506040513d6000823e601f3d908101601f191682016040526200026e919081019062000cbd565b949350505050565b6200028062000655565b6001600160a01b03808316600090815260016020526040902054839116620002bc5760405162461bcd60e51b8152600401620001e69062000bee565b6001600160a01b038084166000908152600160205260408082205481516339ea509d60e11b8152915193169283926373d4a13a92600480820193918290030181865afa15801562000311573d6000803e3d6000fd5b505050506040513d6000823e601f3d908101601f191682016040526200026e919081019062000e45565b600085858585856040516200035090620006d1565b6200036095949392919062000f43565b604051809103906000f0801580156200037d573d6000803e3d6000fd5b5060008054600181810183557f290decd9548b62a8d60345a988386fc84ba6bc95484008f6362f93160ef3e56390910180546001600160a01b039485166001600160a01b03199182168117909255999093168252602052604090208054909716179095555050505050565b6001600160a01b03808316600090815260016020526040902054839116620004245760405162461bcd60e51b8152600401620001e69062000bee565b6001600160a01b0380841660009081526001602052604090819020549051636c8bfbb560e11b8152911690819063d917f76a9062000469903390879060040162000faf565b600060405180830381600087803b1580156200048457600080fd5b505af115801562000499573d6000803e3d6000fd5b5050505050505050565b6001600160a01b03808516600090815260016020526040902054859116620004df5760405162461bcd60e51b8152600401620001e69062000bee565b6001600160a01b0385811660009081526001602052604090819020549051633073bdcf60e11b815233600482015260248101879052604481018690526064810185905291169081906360e77b9e90608401600060405180830381600087803b1580156200054b57600080fd5b505af115801562000560573d6000803e3d6000fd5b50505050505050505050565b6001600160a01b03808416600090815260016020526040902054849116620005a85760405162461bcd60e51b8152600401620001e69062000bee565b6001600160a01b0380851660009081526001602052604090819020549051638211082760e01b81529116908190638211082790620005ef9033908890889060040162000fd5565b600060405180830381600087803b1580156200060a57600080fd5b505af11580156200061f573d6000803e3d6000fd5b505050505050505050565b600081815481106200063b57600080fd5b6000918252602090912001546001600160a01b0316905081565b6040518060c0016040528060006001600160a01b03168152602001606081526020016060815260200160608152602001600060028111156200069b576200069b6200081a565b8152602001620006cc6040518060800160405280600081526020016000815260200160008152602001600081525090565b905290565b61140b806200100e83390190565b6001600160a01b0381168114620006f557600080fd5b50565b6000602082840312156200070b57600080fd5b81356200071881620006df565b9392505050565b60005b838110156200073c57818101518382015260200162000722565b838111156200074c576000848401525b50505050565b600081518084526200076c8160208601602086016200071f565b601f01601f19169290920160200192915050565b60006020808301818452808551808352604092508286019150828160051b87010184880160005b838110156200080c57888303603f19018552815180516001600160a01b0316845287810151608089860181905290620007e38287018262000752565b838a0151878b0152606093840151939096019290925250509386019390860190600101620007a7565b509098975050505050505050565b634e487b7160e01b600052602160045260246000fd5b600381106200084357620008436200081a565b9052565b602080825282516001600160a01b03168282015282015161012060408301819052600091906200087c61014085018362000752565b91506040850151601f19808685030160608701526200089c848362000752565b9350606087015191508086850301608087015250620008bc838262000752565b9250506080850151620008d360a086018262000830565b5060a09490940151805160c0850152602081015160e085015260408101516101008501526060015192909301919091525090565b634e487b7160e01b600052604160045260246000fd5b6040516080810167ffffffffffffffff8111828210171562000943576200094362000907565b60405290565b60405160c0810167ffffffffffffffff8111828210171562000943576200094362000907565b604051601f8201601f1916810167ffffffffffffffff811182821017156200099b576200099b62000907565b604052919050565b600067ffffffffffffffff821115620009c057620009c062000907565b50601f01601f191660200190565b600082601f830112620009e057600080fd5b8135620009f7620009f182620009a3565b6200096f565b81815284602083860101111562000a0d57600080fd5b816020850160208301376000918101602001919091529392505050565b60038110620006f557600080fd5b600080600080600060a0868803121562000a5157600080fd5b853562000a5e81620006df565b9450602086013567ffffffffffffffff8082111562000a7c57600080fd5b62000a8a89838a01620009ce565b9550604088013591508082111562000aa157600080fd5b62000aaf89838a01620009ce565b9450606088013591508082111562000ac657600080fd5b5062000ad588828901620009ce565b925050608086013562000ae88162000a2a565b809150509295509295909350565b6000806040838503121562000b0a57600080fd5b823562000b1781620006df565b9150602083013567ffffffffffffffff81111562000b3457600080fd5b62000b4285828601620009ce565b9150509250929050565b6000806000806080858703121562000b6357600080fd5b843562000b7081620006df565b966020860135965060408601359560600135945092505050565b60008060006060848603121562000ba057600080fd5b833562000bad81620006df565b92506020840135915060408401356002811062000bc957600080fd5b809150509250925092565b60006020828403121562000be757600080fd5b5035919050565b6020808252604b908201527f536f7272792074686973206173736574206973206e6f7420617661696c61626c60408201527f652c20506c6561736520636f6e736964657220616464696e6720697420746f2060608201526a3a34329039bcb9ba32b69760a91b608082015260a00190565b805162000c6c81620006df565b919050565b600082601f83011262000c8357600080fd5b815162000c94620009f182620009a3565b81815284602083860101111562000caa57600080fd5b6200026e8260208301602087016200071f565b6000602080838503121562000cd157600080fd5b825167ffffffffffffffff8082111562000cea57600080fd5b818501915085601f83011262000cff57600080fd5b81518181111562000d145762000d1462000907565b8060051b62000d258582016200096f565b918252838101850191858101908984111562000d4057600080fd5b86860192505b8383101562000de45782518581111562000d605760008081fd5b86016080818c03601f190181131562000d795760008081fd5b62000d836200091d565b8983015162000d9281620006df565b81526040838101518981111562000da95760008081fd5b62000db98f8d8388010162000c71565b838d015250606084810151918301919091529190920151908201528252918601919086019062000d46565b9998505050505050505050565b805162000c6c8162000a2a565b60006080828403121562000e1157600080fd5b62000e1b6200091d565b90508151815260208201516020820152604082015160408201526060820151606082015292915050565b60006020828403121562000e5857600080fd5b815167ffffffffffffffff8082111562000e7157600080fd5b90830190610120828603121562000e8757600080fd5b62000e9162000949565b62000e9c8362000c5f565b815260208301518281111562000eb157600080fd5b62000ebf8782860162000c71565b60208301525060408301518281111562000ed857600080fd5b62000ee68782860162000c71565b60408301525060608301518281111562000eff57600080fd5b62000f0d8782860162000c71565b60608301525062000f216080840162000df1565b608082015262000f358660a0850162000dfe565b60a082015295945050505050565b6001600160a01b038616815260a06020820181905260009062000f699083018762000752565b828103604084015262000f7d818762000752565b9050828103606084015262000f93818662000752565b91505062000fa5608083018462000830565b9695505050505050565b6001600160a01b03831681526040602082018190526000906200026e9083018462000752565b6001600160a01b038416815260208101839052606081016002831062000fff5762000fff6200081a565b82604083015294935050505056fe60806040523480156200001157600080fd5b506040516200140b3803806200140b833981016040819052620000349162000236565b600080546001600160a01b0319166001600160a01b038716179055835162000064906001906020870190620000c3565b5082516200007a906002906020860190620000c3565b50815162000090906003906020850190620000c3565b506004805482919060ff19166001836002811115620000b357620000b362000302565b0217905550505050505062000355565b828054620000d19062000318565b90600052602060002090601f016020900481019282620000f5576000855562000140565b82601f106200011057805160ff191683800117855562000140565b8280016001018555821562000140579182015b828111156200014057825182559160200191906001019062000123565b506200014e92915062000152565b5090565b5b808211156200014e576000815560010162000153565b634e487b7160e01b600052604160045260246000fd5b600082601f8301126200019157600080fd5b81516001600160401b0380821115620001ae57620001ae62000169565b604051601f8301601f19908116603f01168101908282118183101715620001d957620001d962000169565b81604052838152602092508683858801011115620001f657600080fd5b600091505b838210156200021a5785820183015181830184015290820190620001fb565b838211156200022c5760008385830101525b9695505050505050565b600080600080600060a086880312156200024f57600080fd5b85516001600160a01b03811681146200026757600080fd5b60208701519095506001600160401b03808211156200028557600080fd5b6200029389838a016200017f565b95506040880151915080821115620002aa57600080fd5b620002b889838a016200017f565b94506060880151915080821115620002cf57600080fd5b50620002de888289016200017f565b925050608086015160038110620002f457600080fd5b809150509295509295909350565b634e487b7160e01b600052602160045260246000fd5b600181811c908216806200032d57607f821691505b602082108114156200034f57634e487b7160e01b600052602260045260246000fd5b50919050565b6110a680620003656000396000f3fe608060405234801561001057600080fd5b50600436106100b45760003560e01c80638ebb4c15116100715780638ebb4c151461017557806391f3410c1461019857806395d89b41146101ad578063b90497e0146101b5578063d917f76a146101bd578063ef430aa6146101d057600080fd5b806306fdde03146100b95780631ba46cfd146100d757806360e77b9e1461010257806373d4a13a1461011757806380f474f61461012c5780638211082714610162575b600080fd5b6100c16101ea565b6040516100ce9190610c20565b60405180910390f35b6000546100ea906001600160a01b031681565b6040516001600160a01b0390911681526020016100ce565b610115610110366004610c56565b610278565b005b61011f6103d2565b6040516100ce9190610cc7565b6005546006546007546008546101429392919084565b6040805194855260208501939093529183015260608201526080016100ce565b610115610170366004610d7f565b610600565b610188610183366004610dc3565b610751565b6040516100ce9493929190610ddc565b6101a061081f565b6040516100ce9190610e13565b6100c161093a565b6100c1610947565b6101156101cb366004610ebf565b610954565b6004546101dd9060ff1681565b6040516100ce9190610f81565b600180546101f790610f95565b80601f016020809104026020016040519081016040528092919081815260200182805461022390610f95565b80156102705780601f1061024557610100808354040283529160200191610270565b820191906000526020600020905b81548152906001019060200180831161025357829003601f168201915b505050505081565b6001600160a01b0384166000908152600a6020526040902054849060ff16156102e85760405162461bcd60e51b815260206004820152601960248201527f596f752063616e206f6e6c792072617465206f6e63652121210000000000000060448201526064015b60405180910390fd5b6001600160a01b0381166000908152600a60205260409020805460ff1916600117905560095460065461031c908683610a8e565b60065560075461032d908583610a8e565b60075560085461033e908483610a8e565b60085560006003846103508789610fe6565b61035a9190610fe6565b6103649190610ffe565b90506103766005600001548284610a8e565b6005555050600980546001810182556000919091527f6e1540171b6c0c960b71a7020d9f60077f6af931a8bbf590da0223dacf75c7af0180546001600160a01b0319166001600160a01b03969096169590951790945550505050565b6103da610ac2565b6040805160c08101909152600080546001600160a01b031682526001805491929160208301919061040a90610f95565b80601f016020809104026020016040519081016040528092919081815260200182805461043690610f95565b80156104835780601f1061045857610100808354040283529160200191610483565b820191906000526020600020905b81548152906001019060200180831161046657829003601f168201915b505050505081526020016002805461049a90610f95565b80601f01602080910402602001604051908101604052809291908181526020018280546104c690610f95565b80156105135780601f106104e857610100808354040283529160200191610513565b820191906000526020600020905b8154815290600101906020018083116104f657829003601f168201915b505050505081526020016003805461052a90610f95565b80601f016020809104026020016040519081016040528092919081815260200182805461055690610f95565b80156105a35780601f10610578576101008083540402835291602001916105a3565b820191906000526020600020905b81548152906001019060200180831161058657829003601f168201915b505050918352505060045460209091019060ff1660028111156105c8576105c8610c8f565b815260408051608081018252600554815260065460208281019190915260075492820192909252600854606082015291015292915050565b6001600160a01b0383166000908152600d602090815260408083208584529091529020548290849060ff16156106785760405162461bcd60e51b815260206004820152601960248201527f596f752063616e206f6e6c7920766f7465206f6e63652121210000000000000060448201526064016102df565b6001600160a01b0381166000908152600d602090815260408083208584529091528120805460ff191660011790558360018111156106b8576106b8610c8f565b14156106f957600b84815481106106d1576106d1611020565b6000918252602082206002600490920201018054916106ef83611036565b919050555061074a565b600183600181111561070d5761070d610c8f565b141561074a57600b848154811061072657610726611020565b60009182526020822060036004909202010180549161074483611036565b91905055505b5050505050565b600b818154811061076157600080fd5b6000918252602090912060049091020180546001820180546001600160a01b0390921693509061079090610f95565b80601f01602080910402602001604051908101604052809291908181526020018280546107bc90610f95565b80156108095780601f106107de57610100808354040283529160200191610809565b820191906000526020600020905b8154815290600101906020018083116107ec57829003601f168201915b5050505050908060020154908060030154905084565b6060600b805480602002602001604051908101604052809291908181526020016000905b8282101561093157600084815260209081902060408051608081019091526004850290910180546001600160a01b03168252600181018054929391929184019161088c90610f95565b80601f01602080910402602001604051908101604052809291908181526020018280546108b890610f95565b80156109055780601f106108da57610100808354040283529160200191610905565b820191906000526020600020905b8154815290600101906020018083116108e857829003601f168201915b505050505081526020016002820154815260200160038201548152505081526020019060010190610843565b50505050905090565b600280546101f790610f95565b600380546101f790610f95565b6001600160a01b0382166000908152600c6020526040902054829060ff16156109bf5760405162461bcd60e51b815260206004820152601960248201527f596f752063616e206f6e6c7920706f7374206f6e63652121210000000000000060448201526064016102df565b6001600160a01b038181166000908152600c6020908152604082208054600160ff199091168117909155600b805491820181559092527f0175b7a638427703f0dbe7bb9bbf987a2551717b34e79f33b5b1008d1fa01db9600490920291820180546001600160a01b0319169387169390931783558451610a64927f0175b7a638427703f0dbe7bb9bbf987a2551717b34e79f33b5b1008d1fa01dba0191860190610b3a565b5050506001600160a01b039091166000908152600c60205260409020805460ff1916600117905550565b6000610a9b826001610fe6565b83610aa68487611051565b610ab09190610fe6565b610aba9190610ffe565b949350505050565b6040518060c0016040528060006001600160a01b0316815260200160608152602001606081526020016060815260200160006002811115610b0557610b05610c8f565b8152602001610b356040518060800160405280600081526020016000815260200160008152602001600081525090565b905290565b828054610b4690610f95565b90600052602060002090601f016020900481019282610b685760008555610bae565b82601f10610b8157805160ff1916838001178555610bae565b82800160010185558215610bae579182015b82811115610bae578251825591602001919060010190610b93565b50610bba929150610bbe565b5090565b5b80821115610bba5760008155600101610bbf565b6000815180845260005b81811015610bf957602081850181015186830182015201610bdd565b81811115610c0b576000602083870101525b50601f01601f19169290920160200192915050565b602081526000610c336020830184610bd3565b9392505050565b80356001600160a01b0381168114610c5157600080fd5b919050565b60008060008060808587031215610c6c57600080fd5b610c7585610c3a565b966020860135965060408601359560600135945092505050565b634e487b7160e01b600052602160045260246000fd5b60038110610cc357634e487b7160e01b600052602160045260246000fd5b9052565b602080825282516001600160a01b0316828201528201516101206040830181905260009190610cfa610140850183610bd3565b91506040850151601f1980868503016060870152610d188483610bd3565b9350606087015191508086850301608087015250610d368382610bd3565b9250506080850151610d4b60a0860182610ca5565b5060a09490940151805160c0850152602081015160e085015260408101516101008501526060015192909301919091525090565b600080600060608486031215610d9457600080fd5b610d9d84610c3a565b925060208401359150604084013560028110610db857600080fd5b809150509250925092565b600060208284031215610dd557600080fd5b5035919050565b6001600160a01b0385168152608060208201819052600090610e0090830186610bd3565b6040830194909452506060015292915050565b60006020808301818452808551808352604092508286019150828160051b87010184880160005b83811015610e9b57888303603f19018552815180516001600160a01b0316845287810151608089860181905290610e7382870182610bd3565b838a0151878b0152606093840151939096019290925250509386019390860190600101610e3a565b509098975050505050505050565b634e487b7160e01b600052604160045260246000fd5b60008060408385031215610ed257600080fd5b610edb83610c3a565b9150602083013567ffffffffffffffff80821115610ef857600080fd5b818501915085601f830112610f0c57600080fd5b813581811115610f1e57610f1e610ea9565b604051601f8201601f19908116603f01168101908382118183101715610f4657610f46610ea9565b81604052828152886020848701011115610f5f57600080fd5b8260208601602083013760006020848301015280955050505050509250929050565b60208101610f8f8284610ca5565b92915050565b600181811c90821680610fa957607f821691505b60208210811415610fca57634e487b7160e01b600052602260045260246000fd5b50919050565b634e487b7160e01b600052601160045260246000fd5b60008219821115610ff957610ff9610fd0565b500190565b60008261101b57634e487b7160e01b600052601260045260246000fd5b500490565b634e487b7160e01b600052603260045260246000fd5b600060001982141561104a5761104a610fd0565b5060010190565b600081600019048311821515161561106b5761106b610fd0565b50029056fea264697066735822122009fb989b9c238bac2a776979f4bccf0fc90d6651af30042dd85a329256a02e1964736f6c634300080a0033a26469706673582212208c71cd5a0d19f153bda22d88d3bcabf35267cc9ca9334b944fbaa99400a35e5964736f6c634300080a0033",
  "bytecodeSha1": "ca2021f9329bae7d258586ee2e32766b2a8728a3",
  "compiler": {
    "evm_version": "istanbul",
    "optimizer": {
      "enabled": true,
      "runs": 200
    },
    "version": "0.8.10+commit.fc410830"
  },
  "contractName": "CommunityAudits",
  "language": "Solidity",
  "natspec": {
    "kind": "dev",
    "methods": {},
    "version": 1
  },
  "opcodes": "PUSH1 0x80 PUSH1 0x40 MSTORE CALLVALUE DUP1 ISZERO PUSH3 0x11 JUMPI PUSH1 0x0 DUP1 REVERT JUMPDEST POP PUSH1 0x4 CALLDATASIZE LT PUSH3 0x93 JUMPI PUSH1 0x0 CALLDATALOAD PUSH1 0xE0 SHR DUP1 PUSH4 0x68684A8B GT PUSH3 0x62 JUMPI DUP1 PUSH4 0x68684A8B EQ PUSH3 0x14B JUMPI DUP1 PUSH4 0x812EABE0 EQ PUSH3 0x162 JUMPI DUP1 PUSH4 0x82110827 EQ PUSH3 0x179 JUMPI DUP1 PUSH4 0x8E5FA1DB EQ PUSH3 0x190 JUMPI PUSH1 0x0 DUP1 REVERT JUMPDEST DUP1 PUSH4 0x17FE375F EQ PUSH3 0x98 JUMPI DUP1 PUSH4 0x38266B22 EQ PUSH3 0xC7 JUMPI DUP1 PUSH4 0x5123FA4A EQ PUSH3 0xED JUMPI DUP1 PUSH4 0x5BCB18A3 EQ PUSH3 0x132 JUMPI JUMPDEST PUSH1 0x0 DUP1 REVERT JUMPDEST PUSH3 0xAF PUSH3 0xA9 CALLDATASIZE PUSH1 0x4 PUSH3 0x6F8 JUMP JUMPDEST PUSH3 0x1A7 JUMP JUMPDEST PUSH1 0x40 MLOAD PUSH3 0xBE SWAP2 SWAP1 PUSH3 0x780 JUMP JUMPDEST PUSH1 0x40 MLOAD DUP1 SWAP2 SUB SWAP1 RETURN JUMPDEST PUSH3 0xDE PUSH3 0xD8 CALLDATASIZE PUSH1 0x4 PUSH3 0x6F8 JUMP JUMPDEST PUSH3 0x276 JUMP JUMPDEST PUSH1 0x40 MLOAD PUSH3 0xBE SWAP2 SWAP1 PUSH3 0x847 JUMP JUMPDEST PUSH3 0x119 PUSH3 0xFE CALLDATASIZE PUSH1 0x4 PUSH3 0x6F8 JUMP JUMPDEST PUSH1 0x1 PUSH1 0x20 MSTORE PUSH1 0x0 SWAP1 DUP2 MSTORE PUSH1 0x40 SWAP1 KECCAK256 SLOAD PUSH1 0x1 PUSH1 0x1 PUSH1 0xA0 SHL SUB AND DUP2 JUMP JUMPDEST PUSH1 0x40 MLOAD PUSH1 0x1 PUSH1 0x1 PUSH1 0xA0 SHL SUB SWAP1 SWAP2 AND DUP2 MSTORE PUSH1 0x20 ADD PUSH3 0xBE JUMP JUMPDEST PUSH3 0x149 PUSH3 0x143 CALLDATASIZE PUSH1 0x4 PUSH3 0xA38 JUMP JUMPDEST PUSH3 0x33B JUMP JUMPDEST STOP JUMPDEST PUSH3 0x149 PUSH3 0x15C CALLDATASIZE PUSH1 0x4 PUSH3 0xAF6 JUMP JUMPDEST PUSH3 0x3E8 JUMP JUMPDEST PUSH3 0x149 PUSH3 0x173 CALLDATASIZE PUSH1 0x4 PUSH3 0xB4C JUMP JUMPDEST PUSH3 0x4A3 JUMP JUMPDEST PUSH3 0x149 PUSH3 0x18A CALLDATASIZE PUSH1 0x4 PUSH3 0xB8A JUMP JUMPDEST PUSH3 0x56C JUMP JUMPDEST PUSH3 0x119 PUSH3 0x1A1 CALLDATASIZE PUSH1 0x4 PUSH3 0xBD4 JUMP JUMPDEST PUSH3 0x62A JUMP JUMPDEST PUSH1 0x1 PUSH1 0x1 PUSH1 0xA0 SHL SUB DUP1 DUP3 AND PUSH1 0x0 SWAP1 DUP2 MSTORE PUSH1 0x1 PUSH1 0x20 MSTORE PUSH1 0x40 SWAP1 KECCAK256 SLOAD PUSH1 0x60 SWAP2 DUP4 SWAP2 AND PUSH3 0x1EF JUMPI PUSH1 0x40 MLOAD PUSH3 0x461BCD PUSH1 0xE5 SHL DUP2 MSTORE PUSH1 0x4 ADD PUSH3 0x1E6 SWAP1 PUSH3 0xBEE JUMP JUMPDEST PUSH1 0x40 MLOAD DUP1 SWAP2 SUB SWAP1 REVERT JUMPDEST PUSH1 0x1 PUSH1 0x1 PUSH1 0xA0 SHL SUB DUP1 DUP5 AND PUSH1 0x0 SWAP1 DUP2 MSTORE PUSH1 0x1 PUSH1 0x20 MSTORE PUSH1 0x40 DUP1 DUP3 KECCAK256 SLOAD DUP2 MLOAD PUSH4 0x247CD043 PUSH1 0xE2 SHL DUP2 MSTORE SWAP2 MLOAD SWAP4 AND SWAP3 DUP4 SWAP3 PUSH4 0x91F3410C SWAP3 PUSH1 0x4 DUP1 DUP3 ADD SWAP4 SWAP2 DUP3 SWAP1 SUB ADD DUP2 DUP7 GAS STATICCALL ISZERO DUP1 ISZERO PUSH3 0x244 JUMPI RETURNDATASIZE PUSH1 0x0 DUP1 RETURNDATACOPY RETURNDATASIZE PUSH1 0x0 REVERT JUMPDEST POP POP POP POP PUSH1 0x40 MLOAD RETURNDATASIZE PUSH1 0x0 DUP3 RETURNDATACOPY PUSH1 0x1F RETURNDATASIZE SWAP1 DUP2 ADD PUSH1 0x1F NOT AND DUP3 ADD PUSH1 0x40 MSTORE PUSH3 0x26E SWAP2 SWAP1 DUP2 ADD SWAP1 PUSH3 0xCBD JUMP JUMPDEST SWAP5 SWAP4 POP POP POP POP JUMP JUMPDEST PUSH3 0x280 PUSH3 0x655 JUMP JUMPDEST PUSH1 0x1 PUSH1 0x1 PUSH1 0xA0 SHL SUB DUP1 DUP4 AND PUSH1 0x0 SWAP1 DUP2 MSTORE PUSH1 0x1 PUSH1 0x20 MSTORE PUSH1 0x40 SWAP1 KECCAK256 SLOAD DUP4 SWAP2 AND PUSH3 0x2BC JUMPI PUSH1 0x40 MLOAD PUSH3 0x461BCD PUSH1 0xE5 SHL DUP2 MSTORE PUSH1 0x4 ADD PUSH3 0x1E6 SWAP1 PUSH3 0xBEE JUMP JUMPDEST PUSH1 0x1 PUSH1 0x1 PUSH1 0xA0 SHL SUB DUP1 DUP5 AND PUSH1 0x0 SWAP1 DUP2 MSTORE PUSH1 0x1 PUSH1 0x20 MSTORE PUSH1 0x40 DUP1 DUP3 KECCAK256 SLOAD DUP2 MLOAD PUSH4 0x39EA509D PUSH1 0xE1 SHL DUP2 MSTORE SWAP2 MLOAD SWAP4 AND SWAP3 DUP4 SWAP3 PUSH4 0x73D4A13A SWAP3 PUSH1 0x4 DUP1 DUP3 ADD SWAP4 SWAP2 DUP3 SWAP1 SUB ADD DUP2 DUP7 GAS STATICCALL ISZERO DUP1 ISZERO PUSH3 0x311 JUMPI RETURNDATASIZE PUSH1 0x0 DUP1 RETURNDATACOPY RETURNDATASIZE PUSH1 0x0 REVERT JUMPDEST POP POP POP POP PUSH1 0x40 MLOAD RETURNDATASIZE PUSH1 0x0 DUP3 RETURNDATACOPY PUSH1 0x1F RETURNDATASIZE SWAP1 DUP2 ADD PUSH1 0x1F NOT AND DUP3 ADD PUSH1 0x40 MSTORE PUSH3 0x26E SWAP2 SWAP1 DUP2 ADD SWAP1 PUSH3 0xE45 JUMP JUMPDEST PUSH1 0x0 DUP6 DUP6 DUP6 DUP6 DUP6 PUSH1 0x40 MLOAD PUSH3 0x350 SWAP1 PUSH3 0x6D1 JUMP JUMPDEST PUSH3 0x360 SWAP6 SWAP5 SWAP4 SWAP3 SWAP2 SWAP1 PUSH3 0xF43 JUMP JUMPDEST PUSH1 0x40 MLOAD DUP1 SWAP2 SUB SWAP1 PUSH1 0x0 CREATE DUP1 ISZERO DUP1 ISZERO PUSH3 0x37D JUMPI RETURNDATASIZE PUSH1 0x0 DUP1 RETURNDATACOPY RETURNDATASIZE PUSH1 0x0 REVERT JUMPDEST POP PUSH1 0x0 DUP1 SLOAD PUSH1 0x1 DUP2 DUP2 ADD DUP4 SSTORE PUSH32 0x290DECD9548B62A8D60345A988386FC84BA6BC95484008F6362F93160EF3E563 SWAP1 SWAP2 ADD DUP1 SLOAD PUSH1 0x1 PUSH1 0x1 PUSH1 0xA0 SHL SUB SWAP5 DUP6 AND PUSH1 0x1 PUSH1 0x1 PUSH1 0xA0 SHL SUB NOT SWAP2 DUP3 AND DUP2 OR SWAP1 SWAP3 SSTORE SWAP10 SWAP1 SWAP4 AND DUP3 MSTORE PUSH1 0x20 MSTORE PUSH1 0x40 SWAP1 KECCAK256 DUP1 SLOAD SWAP1 SWAP8 AND OR SWAP1 SWAP6 SSTORE POP POP POP POP POP JUMP JUMPDEST PUSH1 0x1 PUSH1 0x1 PUSH1 0xA0 SHL SUB DUP1 DUP4 AND PUSH1 0x0 SWAP1 DUP2 MSTORE PUSH1 0x1 PUSH1 0x20 MSTORE PUSH1 0x40 SWAP1 KECCAK256 SLOAD DUP4 SWAP2 AND PUSH3 0x424 JUMPI PUSH1 0x40 MLOAD PUSH3 0x461BCD PUSH1 0xE5 SHL DUP2 MSTORE PUSH1 0x4 ADD PUSH3 0x1E6 SWAP1 PUSH3 0xBEE JUMP JUMPDEST PUSH1 0x1 PUSH1 0x1 PUSH1 0xA0 SHL SUB DUP1 DUP5 AND PUSH1 0x0 SWAP1 DUP2 MSTORE PUSH1 0x1 PUSH1 0x20 MSTORE PUSH1 0x40 SWAP1 DUP2 SWAP1 KECCAK256 SLOAD SWAP1 MLOAD PUSH4 0x6C8BFBB5 PUSH1 0xE1 SHL DUP2 MSTORE SWAP2 AND SWAP1 DUP2 SWAP1 PUSH4 0xD917F76A SWAP1 PUSH3 0x469 SWAP1 CALLER SWAP1 DUP8 SWAP1 PUSH1 0x4 ADD PUSH3 0xFAF JUMP JUMPDEST PUSH1 0x0 PUSH1 0x40 MLOAD DUP1 DUP4 SUB DUP2 PUSH1 0x0 DUP8 DUP1 EXTCODESIZE ISZERO DUP1 ISZERO PUSH3 0x484 JUMPI PUSH1 0x0 DUP1 REVERT JUMPDEST POP GAS CALL ISZERO DUP1 ISZERO PUSH3 0x499 JUMPI RETURNDATASIZE PUSH1 0x0 DUP1 RETURNDATACOPY RETURNDATASIZE PUSH1 0x0 REVERT JUMPDEST POP POP POP POP POP POP POP POP JUMP JUMPDEST PUSH1 0x1 PUSH1 0x1 PUSH1 0xA0 SHL SUB DUP1 DUP6 AND PUSH1 0x0 SWAP1 DUP2 MSTORE PUSH1 0x1 PUSH1 0x20 MSTORE PUSH1 0x40 SWAP1 KECCAK256 SLOAD DUP6 SWAP2 AND PUSH3 0x4DF JUMPI PUSH1 0x40 MLOAD PUSH3 0x461BCD PUSH1 0xE5 SHL DUP2 MSTORE PUSH1 0x4 ADD PUSH3 0x1E6 SWAP1 PUSH3 0xBEE JUMP JUMPDEST PUSH1 0x1 PUSH1 0x1 PUSH1 0xA0 SHL SUB DUP6 DUP2 AND PUSH1 0x0 SWAP1 DUP2 MSTORE PUSH1 0x1 PUSH1 0x20 MSTORE PUSH1 0x40 SWAP1 DUP2 SWAP1 KECCAK256 SLOAD SWAP1 MLOAD PUSH4 0x3073BDCF PUSH1 0xE1 SHL DUP2 MSTORE CALLER PUSH1 0x4 DUP3 ADD MSTORE PUSH1 0x24 DUP2 ADD DUP8 SWAP1 MSTORE PUSH1 0x44 DUP2 ADD DUP7 SWAP1 MSTORE PUSH1 0x64 DUP2 ADD DUP6 SWAP1 MSTORE SWAP2 AND SWAP1 DUP2 SWAP1 PUSH4 0x60E77B9E SWAP1 PUSH1 0x84 ADD PUSH1 0x0 PUSH1 0x40 MLOAD DUP1 DUP4 SUB DUP2 PUSH1 0x0 DUP8 DUP1 EXTCODESIZE ISZERO DUP1 ISZERO PUSH3 0x54B JUMPI PUSH1 0x0 DUP1 REVERT JUMPDEST POP GAS CALL ISZERO DUP1 ISZERO PUSH3 0x560 JUMPI RETURNDATASIZE PUSH1 0x0 DUP1 RETURNDATACOPY RETURNDATASIZE PUSH1 0x0 REVERT JUMPDEST POP POP POP POP POP POP POP POP POP POP JUMP JUMPDEST PUSH1 0x1 PUSH1 0x1 PUSH1 0xA0 SHL SUB DUP1 DUP5 AND PUSH1 0x0 SWAP1 DUP2 MSTORE PUSH1 0x1 PUSH1 0x20 MSTORE PUSH1 0x40 SWAP1 KECCAK256 SLOAD DUP5 SWAP2 AND PUSH3 0x5A8 JUMPI PUSH1 0x40 MLOAD PUSH3 0x461BCD PUSH1 0xE5 SHL DUP2 MSTORE PUSH1 0x4 ADD PUSH3 0x1E6 SWAP1 PUSH3 0xBEE JUMP JUMPDEST PUSH1 0x1 PUSH1 0x1 PUSH1 0xA0 SHL SUB DUP1 DUP6 AND PUSH1 0x0 SWAP1 DUP2 MSTORE PUSH1 0x1 PUSH1 0x20 MSTORE PUSH1 0x40 SWAP1 DUP2 SWAP1 KECCAK256 SLOAD SWAP1 MLOAD PUSH4 0x82110827 PUSH1 0xE0 SHL DUP2 MSTORE SWAP2 AND SWAP1 DUP2 SWAP1 PUSH4 0x82110827 SWAP1 PUSH3 0x5EF SWAP1 CALLER SWAP1 DUP9 SWAP1 DUP9 SWAP1 PUSH1 0x4 ADD PUSH3 0xFD5 JUMP JUMPDEST PUSH1 0x0 PUSH1 0x40 MLOAD DUP1 DUP4 SUB DUP2 PUSH1 0x0 DUP8 DUP1 EXTCODESIZE ISZERO DUP1 ISZERO PUSH3 0x60A JUMPI PUSH1 0x0 DUP1 REVERT JUMPDEST POP GAS CALL ISZERO DUP1 ISZERO PUSH3 0x61F JUMPI RETURNDATASIZE PUSH1 0x0 DUP1 RETURNDATACOPY RETURNDATASIZE PUSH1 0x0 REVERT JUMPDEST POP POP POP POP POP POP POP POP POP JUMP JUMPDEST PUSH1 0x0 DUP2 DUP2 SLOAD DUP2 LT PUSH3 0x63B JUMPI PUSH1 0x0 DUP1 REVERT JUMPDEST PUSH1 0x0 SWAP2 DUP3 MSTORE PUSH1 0x20 SWAP1 SWAP2 KECCAK256 ADD SLOAD PUSH1 0x1 PUSH1 0x1 PUSH1 0xA0 SHL SUB AND SWAP1 POP DUP2 JUMP JUMPDEST PUSH1 0x40 MLOAD DUP1 PUSH1 0xC0 ADD PUSH1 0x40 MSTORE DUP1 PUSH1 0x0 PUSH1 0x1 PUSH1 0x1 PUSH1 0xA0 SHL SUB AND DUP2 MSTORE PUSH1 0x20 ADD PUSH1 0x60 DUP2 MSTORE PUSH1 0x20 ADD PUSH1 0x60 DUP2 MSTORE PUSH1 0x20 ADD PUSH1 0x60 DUP2 MSTORE PUSH1 0x20 ADD PUSH1 0x0 PUSH1 0x2 DUP2 GT ISZERO PUSH3 0x69B JUMPI PUSH3 0x69B PUSH3 0x81A JUMP JUMPDEST DUP2 MSTORE PUSH1 0x20 ADD PUSH3 0x6CC PUSH1 0x40 MLOAD DUP1 PUSH1 0x80 ADD PUSH1 0x40 MSTORE DUP1 PUSH1 0x0 DUP2 MSTORE PUSH1 0x20 ADD PUSH1 0x0 DUP2 MSTORE PUSH1 0x20 ADD PUSH1 0x0 DUP2 MSTORE PUSH1 0x20 ADD PUSH1 0x0 DUP2 MSTORE POP SWAP1 JUMP JUMPDEST SWAP1 MSTORE SWAP1 JUMP JUMPDEST PUSH2 0x140B DUP1 PUSH3 0x100E DUP4 CODECOPY ADD SWAP1 JUMP JUMPDEST PUSH1 0x1 PUSH1 0x1 PUSH1 0xA0 SHL SUB DUP2 AND DUP2 EQ PUSH3 0x6F5 JUMPI PUSH1 0x0 DUP1 REVERT JUMPDEST POP JUMP JUMPDEST PUSH1 0x0 PUSH1 0x20 DUP3 DUP5 SUB SLT ISZERO PUSH3 0x70B JUMPI PUSH1 0x0 DUP1 REVERT JUMPDEST DUP2 CALLDATALOAD PUSH3 0x718 DUP2 PUSH3 0x6DF JUMP JUMPDEST SWAP4 SWAP3 POP POP POP JUMP JUMPDEST PUSH1 0x0 JUMPDEST DUP4 DUP2 LT ISZERO PUSH3 0x73C JUMPI DUP2 DUP2 ADD MLOAD DUP4 DUP3 ADD MSTORE PUSH1 0x20 ADD PUSH3 0x722 JUMP JUMPDEST DUP4 DUP2 GT ISZERO PUSH3 0x74C JUMPI PUSH1 0x0 DUP5 DUP5 ADD MSTORE JUMPDEST POP POP POP POP JUMP JUMPDEST PUSH1 0x0 DUP2 MLOAD DUP1 DUP5 MSTORE PUSH3 0x76C DUP2 PUSH1 0x20 DUP7 ADD PUSH1 0x20 DUP7 ADD PUSH3 0x71F JUMP JUMPDEST PUSH1 0x1F ADD PUSH1 0x1F NOT AND SWAP3 SWAP1 SWAP3 ADD PUSH1 0x20 ADD SWAP3 SWAP2 POP POP JUMP JUMPDEST PUSH1 0x0 PUSH1 0x20 DUP1 DUP4 ADD DUP2 DUP5 MSTORE DUP1 DUP6 MLOAD DUP1 DUP4 MSTORE PUSH1 0x40 SWAP3 POP DUP3 DUP7 ADD SWAP2 POP DUP3 DUP2 PUSH1 0x5 SHL DUP8 ADD ADD DUP5 DUP9 ADD PUSH1 0x0 JUMPDEST DUP4 DUP2 LT ISZERO PUSH3 0x80C JUMPI DUP9 DUP4 SUB PUSH1 0x3F NOT ADD DUP6 MSTORE DUP2 MLOAD DUP1 MLOAD PUSH1 0x1 PUSH1 0x1 PUSH1 0xA0 SHL SUB AND DUP5 MSTORE DUP8 DUP2 ADD MLOAD PUSH1 0x80 DUP10 DUP7 ADD DUP2 SWAP1 MSTORE SWAP1 PUSH3 0x7E3 DUP3 DUP8 ADD DUP3 PUSH3 0x752 JUMP JUMPDEST DUP4 DUP11 ADD MLOAD DUP8 DUP12 ADD MSTORE PUSH1 0x60 SWAP4 DUP5 ADD MLOAD SWAP4 SWAP1 SWAP7 ADD SWAP3 SWAP1 SWAP3 MSTORE POP POP SWAP4 DUP7 ADD SWAP4 SWAP1 DUP7 ADD SWAP1 PUSH1 0x1 ADD PUSH3 0x7A7 JUMP JUMPDEST POP SWAP1 SWAP9 SWAP8 POP POP POP POP POP POP POP POP JUMP JUMPDEST PUSH4 0x4E487B71 PUSH1 0xE0 SHL PUSH1 0x0 MSTORE PUSH1 0x21 PUSH1 0x4 MSTORE PUSH1 0x24 PUSH1 0x0 REVERT JUMPDEST PUSH1 0x3 DUP2 LT PUSH3 0x843 JUMPI PUSH3 0x843 PUSH3 0x81A JUMP JUMPDEST SWAP1 MSTORE JUMP JUMPDEST PUSH1 0x20 DUP1 DUP3 MSTORE DUP3 MLOAD PUSH1 0x1 PUSH1 0x1 PUSH1 0xA0 SHL SUB AND DUP3 DUP3 ADD MSTORE DUP3 ADD MLOAD PUSH2 0x120 PUSH1 0x40 DUP4 ADD DUP2 SWAP1 MSTORE PUSH1 0x0 SWAP2 SWAP1 PUSH3 0x87C PUSH2 0x140 DUP6 ADD DUP4 PUSH3 0x752 JUMP JUMPDEST SWAP2 POP PUSH1 0x40 DUP6 ADD MLOAD PUSH1 0x1F NOT DUP1 DUP7 DUP6 SUB ADD PUSH1 0x60 DUP8 ADD MSTORE PUSH3 0x89C DUP5 DUP4 PUSH3 0x752 JUMP JUMPDEST SWAP4 POP PUSH1 0x60 DUP8 ADD MLOAD SWAP2 POP DUP1 DUP7 DUP6 SUB ADD PUSH1 0x80 DUP8 ADD MSTORE POP PUSH3 0x8BC DUP4 DUP3 PUSH3 0x752 JUMP JUMPDEST SWAP3 POP POP PUSH1 0x80 DUP6 ADD MLOAD PUSH3 0x8D3 PUSH1 0xA0 DUP7 ADD DUP3 PUSH3 0x830 JUMP JUMPDEST POP PUSH1 0xA0 SWAP5 SWAP1 SWAP5 ADD MLOAD DUP1 MLOAD PUSH1 0xC0 DUP6 ADD MSTORE PUSH1 0x20 DUP2 ADD MLOAD PUSH1 0xE0 DUP6 ADD MSTORE PUSH1 0x40 DUP2 ADD MLOAD PUSH2 0x100 DUP6 ADD MSTORE PUSH1 0x60 ADD MLOAD SWAP3 SWAP1 SWAP4 ADD SWAP2 SWAP1 SWAP2 MSTORE POP SWAP1 JUMP JUMPDEST PUSH4 0x4E487B71 PUSH1 0xE0 SHL PUSH1 0x0 MSTORE PUSH1 0x41 PUSH1 0x4 MSTORE PUSH1 0x24 PUSH1 0x0 REVERT JUMPDEST PUSH1 0x40 MLOAD PUSH1 0x80 DUP2 ADD PUSH8 0xFFFFFFFFFFFFFFFF DUP2 GT DUP3 DUP3 LT OR ISZERO PUSH3 0x943 JUMPI PUSH3 0x943 PUSH3 0x907 JUMP JUMPDEST PUSH1 0x40 MSTORE SWAP1 JUMP JUMPDEST PUSH1 0x40 MLOAD PUSH1 0xC0 DUP2 ADD PUSH8 0xFFFFFFFFFFFFFFFF DUP2 GT DUP3 DUP3 LT OR ISZERO PUSH3 0x943 JUMPI PUSH3 0x943 PUSH3 0x907 JUMP JUMPDEST PUSH1 0x40 MLOAD PUSH1 0x1F DUP3 ADD PUSH1 0x1F NOT AND DUP2 ADD PUSH8 0xFFFFFFFFFFFFFFFF DUP2 GT DUP3 DUP3 LT OR ISZERO PUSH3 0x99B JUMPI PUSH3 0x99B PUSH3 0x907 JUMP JUMPDEST PUSH1 0x40 MSTORE SWAP2 SWAP1 POP JUMP JUMPDEST PUSH1 0x0 PUSH8 0xFFFFFFFFFFFFFFFF DUP3 GT ISZERO PUSH3 0x9C0 JUMPI PUSH3 0x9C0 PUSH3 0x907 JUMP JUMPDEST POP PUSH1 0x1F ADD PUSH1 0x1F NOT AND PUSH1 0x20 ADD SWAP1 JUMP JUMPDEST PUSH1 0x0 DUP3 PUSH1 0x1F DUP4 ADD SLT PUSH3 0x9E0 JUMPI PUSH1 0x0 DUP1 REVERT JUMPDEST DUP2 CALLDATALOAD PUSH3 0x9F7 PUSH3 0x9F1 DUP3 PUSH3 0x9A3 JUMP JUMPDEST PUSH3 0x96F JUMP JUMPDEST DUP2 DUP2 MSTORE DUP5 PUSH1 0x20 DUP4 DUP7 ADD ADD GT ISZERO PUSH3 0xA0D JUMPI PUSH1 0x0 DUP1 REVERT JUMPDEST DUP2 PUSH1 0x20 DUP6 ADD PUSH1 0x20 DUP4 ADD CALLDATACOPY PUSH1 0x0 SWAP2 DUP2 ADD PUSH1 0x20 ADD SWAP2 SWAP1 SWAP2 MSTORE SWAP4 SWAP3 POP POP POP JUMP JUMPDEST PUSH1 0x3 DUP2 LT PUSH3 0x6F5 JUMPI PUSH1 0x0 DUP1 REVERT JUMPDEST PUSH1 0x0 DUP1 PUSH1 0x0 DUP1 PUSH1 0x0 PUSH1 0xA0 DUP7 DUP9 SUB SLT ISZERO PUSH3 0xA51 JUMPI PUSH1 0x0 DUP1 REVERT JUMPDEST DUP6 CALLDATALOAD PUSH3 0xA5E DUP2 PUSH3 0x6DF JUMP JUMPDEST SWAP5 POP PUSH1 0x20 DUP7 ADD CALLDATALOAD PUSH8 0xFFFFFFFFFFFFFFFF DUP1 DUP3 GT ISZERO PUSH3 0xA7C JUMPI PUSH1 0x0 DUP1 REVERT JUMPDEST PUSH3 0xA8A DUP10 DUP4 DUP11 ADD PUSH3 0x9CE JUMP JUMPDEST SWAP6 POP PUSH1 0x40 DUP9 ADD CALLDATALOAD SWAP2 POP DUP1 DUP3 GT ISZERO PUSH3 0xAA1 JUMPI PUSH1 0x0 DUP1 REVERT JUMPDEST PUSH3 0xAAF DUP10 DUP4 DUP11 ADD PUSH3 0x9CE JUMP JUMPDEST SWAP5 POP PUSH1 0x60 DUP9 ADD CALLDATALOAD SWAP2 POP DUP1 DUP3 GT ISZERO PUSH3 0xAC6 JUMPI PUSH1 0x0 DUP1 REVERT JUMPDEST POP PUSH3 0xAD5 DUP9 DUP3 DUP10 ADD PUSH3 0x9CE JUMP JUMPDEST SWAP3 POP POP PUSH1 0x80 DUP7 ADD CALLDATALOAD PUSH3 0xAE8 DUP2 PUSH3 0xA2A JUMP JUMPDEST DUP1 SWAP2 POP POP SWAP3 SWAP6 POP SWAP3 SWAP6 SWAP1 SWAP4 POP JUMP JUMPDEST PUSH1 0x0 DUP1 PUSH1 0x40 DUP4 DUP6 SUB SLT ISZERO PUSH3 0xB0A JUMPI PUSH1 0x0 DUP1 REVERT JUMPDEST DUP3 CALLDATALOAD PUSH3 0xB17 DUP2 PUSH3 0x6DF JUMP JUMPDEST SWAP2 POP PUSH1 0x20 DUP4 ADD CALLDATALOAD PUSH8 0xFFFFFFFFFFFFFFFF DUP2 GT ISZERO PUSH3 0xB34 JUMPI PUSH1 0x0 DUP1 REVERT JUMPDEST PUSH3 0xB42 DUP6 DUP3 DUP7 ADD PUSH3 0x9CE JUMP JUMPDEST SWAP2 POP POP SWAP3 POP SWAP3 SWAP1 POP JUMP JUMPDEST PUSH1 0x0 DUP1 PUSH1 0x0 DUP1 PUSH1 0x80 DUP6 DUP8 SUB SLT ISZERO PUSH3 0xB63 JUMPI PUSH1 0x0 DUP1 REVERT JUMPDEST DUP5 CALLDATALOAD PUSH3 0xB70 DUP2 PUSH3 0x6DF JUMP JUMPDEST SWAP7 PUSH1 0x20 DUP7 ADD CALLDATALOAD SWAP7 POP PUSH1 0x40 DUP7 ADD CALLDATALOAD SWAP6 PUSH1 0x60 ADD CALLDATALOAD SWAP5 POP SWAP3 POP POP POP JUMP JUMPDEST PUSH1 0x0 DUP1 PUSH1 0x0 PUSH1 0x60 DUP5 DUP7 SUB SLT ISZERO PUSH3 0xBA0 JUMPI PUSH1 0x0 DUP1 REVERT JUMPDEST DUP4 CALLDATALOAD PUSH3 0xBAD DUP2 PUSH3 0x6DF JUMP JUMPDEST SWAP3 POP PUSH1 0x20 DUP5 ADD CALLDATALOAD SWAP2 POP PUSH1 0x40 DUP5 ADD CALLDATALOAD PUSH1 0x2 DUP2 LT PUSH3 0xBC9 JUMPI PUSH1 0x0 DUP1 REVERT JUMPDEST DUP1 SWAP2 POP POP SWAP3 POP SWAP3 POP SWAP3 JUMP JUMPDEST PUSH1 0x0 PUSH1 0x20 DUP3 DUP5 SUB SLT ISZERO PUSH3 0xBE7 JUMPI PUSH1 0x0 DUP1 REVERT JUMPDEST POP CALLDATALOAD SWAP2 SWAP1 POP JUMP JUMPDEST PUSH1 0x20 DUP1 DUP3 MSTORE PUSH1 0x4B SWAP1 DUP3 ADD MSTORE PUSH32 0x536F7272792074686973206173736574206973206E6F7420617661696C61626C PUSH1 0x40 DUP3 ADD MSTORE PUSH32 0x652C20506C6561736520636F6E736964657220616464696E6720697420746F20 PUSH1 0x60 DUP3 ADD MSTORE PUSH11 0x3A34329039BCB9BA32B697 PUSH1 0xA9 SHL PUSH1 0x80 DUP3 ADD MSTORE PUSH1 0xA0 ADD SWAP1 JUMP JUMPDEST DUP1 MLOAD PUSH3 0xC6C DUP2 PUSH3 0x6DF JUMP JUMPDEST SWAP2 SWAP1 POP JUMP JUMPDEST PUSH1 0x0 DUP3 PUSH1 0x1F DUP4 ADD SLT PUSH3 0xC83 JUMPI PUSH1 0x0 DUP1 REVERT JUMPDEST DUP2 MLOAD PUSH3 0xC94 PUSH3 0x9F1 DUP3 PUSH3 0x9A3 JUMP JUMPDEST DUP2 DUP2 MSTORE DUP5 PUSH1 0x20 DUP4 DUP7 ADD ADD GT ISZERO PUSH3 0xCAA JUMPI PUSH1 0x0 DUP1 REVERT JUMPDEST PUSH3 0x26E DUP3 PUSH1 0x20 DUP4 ADD PUSH1 0x20 DUP8 ADD PUSH3 0x71F JUMP JUMPDEST PUSH1 0x0 PUSH1 0x20 DUP1 DUP4 DUP6 SUB SLT ISZERO PUSH3 0xCD1 JUMPI PUSH1 0x0 DUP1 REVERT JUMPDEST DUP3 MLOAD PUSH8 0xFFFFFFFFFFFFFFFF DUP1 DUP3 GT ISZERO PUSH3 0xCEA JUMPI PUSH1 0x0 DUP1 REVERT JUMPDEST DUP2 DUP6 ADD SWAP2 POP DUP6 PUSH1 0x1F DUP4 ADD SLT PUSH3 0xCFF JUMPI PUSH1 0x0 DUP1 REVERT JUMPDEST DUP2 MLOAD DUP2 DUP2 GT ISZERO PUSH3 0xD14 JUMPI PUSH3 0xD14 PUSH3 0x907 JUMP JUMPDEST DUP1 PUSH1 0x5 SHL PUSH3 0xD25 DUP6 DUP3 ADD PUSH3 0x96F JUMP JUMPDEST SWAP2 DUP3 MSTORE DUP4 DUP2 ADD DUP6 ADD SWAP2 DUP6 DUP2 ADD SWAP1 DUP10 DUP5 GT ISZERO PUSH3 0xD40 JUMPI PUSH1 0x0 DUP1 REVERT JUMPDEST DUP7 DUP7 ADD SWAP3 POP JUMPDEST DUP4 DUP4 LT ISZERO PUSH3 0xDE4 JUMPI DUP3 MLOAD DUP6 DUP2 GT ISZERO PUSH3 0xD60 JUMPI PUSH1 0x0 DUP1 DUP2 REVERT JUMPDEST DUP7 ADD PUSH1 0x80 DUP2 DUP13 SUB PUSH1 0x1F NOT ADD DUP2 SGT ISZERO PUSH3 0xD79 JUMPI PUSH1 0x0 DUP1 DUP2 REVERT JUMPDEST PUSH3 0xD83 PUSH3 0x91D JUMP JUMPDEST DUP10 DUP4 ADD MLOAD PUSH3 0xD92 DUP2 PUSH3 0x6DF JUMP JUMPDEST DUP2 MSTORE PUSH1 0x40 DUP4 DUP2 ADD MLOAD DUP10 DUP2 GT ISZERO PUSH3 0xDA9 JUMPI PUSH1 0x0 DUP1 DUP2 REVERT JUMPDEST PUSH3 0xDB9 DUP16 DUP14 DUP4 DUP9 ADD ADD PUSH3 0xC71 JUMP JUMPDEST DUP4 DUP14 ADD MSTORE POP PUSH1 0x60 DUP5 DUP2 ADD MLOAD SWAP2 DUP4 ADD SWAP2 SWAP1 SWAP2 MSTORE SWAP2 SWAP1 SWAP3 ADD MLOAD SWAP1 DUP3 ADD MSTORE DUP3 MSTORE SWAP2 DUP7 ADD SWAP2 SWAP1 DUP7 ADD SWAP1 PUSH3 0xD46 JUMP JUMPDEST SWAP10 SWAP9 POP POP POP POP POP POP POP POP POP JUMP JUMPDEST DUP1 MLOAD PUSH3 0xC6C DUP2 PUSH3 0xA2A JUMP JUMPDEST PUSH1 0x0 PUSH1 0x80 DUP3 DUP5 SUB SLT ISZERO PUSH3 0xE11 JUMPI PUSH1 0x0 DUP1 REVERT JUMPDEST PUSH3 0xE1B PUSH3 0x91D JUMP JUMPDEST SWAP1 POP DUP2 MLOAD DUP2 MSTORE PUSH1 0x20 DUP3 ADD MLOAD PUSH1 0x20 DUP3 ADD MSTORE PUSH1 0x40 DUP3 ADD MLOAD PUSH1 0x40 DUP3 ADD MSTORE PUSH1 0x60 DUP3 ADD MLOAD PUSH1 0x60 DUP3 ADD MSTORE SWAP3 SWAP2 POP POP JUMP JUMPDEST PUSH1 0x0 PUSH1 0x20 DUP3 DUP5 SUB SLT ISZERO PUSH3 0xE58 JUMPI PUSH1 0x0 DUP1 REVERT JUMPDEST DUP2 MLOAD PUSH8 0xFFFFFFFFFFFFFFFF DUP1 DUP3 GT ISZERO PUSH3 0xE71 JUMPI PUSH1 0x0 DUP1 REVERT JUMPDEST SWAP1 DUP4 ADD SWAP1 PUSH2 0x120 DUP3 DUP7 SUB SLT ISZERO PUSH3 0xE87 JUMPI PUSH1 0x0 DUP1 REVERT JUMPDEST PUSH3 0xE91 PUSH3 0x949 JUMP JUMPDEST PUSH3 0xE9C DUP4 PUSH3 0xC5F JUMP JUMPDEST DUP2 MSTORE PUSH1 0x20 DUP4 ADD MLOAD DUP3 DUP2 GT ISZERO PUSH3 0xEB1 JUMPI PUSH1 0x0 DUP1 REVERT JUMPDEST PUSH3 0xEBF DUP8 DUP3 DUP7 ADD PUSH3 0xC71 JUMP JUMPDEST PUSH1 0x20 DUP4 ADD MSTORE POP PUSH1 0x40 DUP4 ADD MLOAD DUP3 DUP2 GT ISZERO PUSH3 0xED8 JUMPI PUSH1 0x0 DUP1 REVERT JUMPDEST PUSH3 0xEE6 DUP8 DUP3 DUP7 ADD PUSH3 0xC71 JUMP JUMPDEST PUSH1 0x40 DUP4 ADD MSTORE POP PUSH1 0x60 DUP4 ADD MLOAD DUP3 DUP2 GT ISZERO PUSH3 0xEFF JUMPI PUSH1 0x0 DUP1 REVERT JUMPDEST PUSH3 0xF0D DUP8 DUP3 DUP7 ADD PUSH3 0xC71 JUMP JUMPDEST PUSH1 0x60 DUP4 ADD MSTORE POP PUSH3 0xF21 PUSH1 0x80 DUP5 ADD PUSH3 0xDF1 JUMP JUMPDEST PUSH1 0x80 DUP3 ADD MSTORE PUSH3 0xF35 DUP7 PUSH1 0xA0 DUP6 ADD PUSH3 0xDFE JUMP JUMPDEST PUSH1 0xA0 DUP3 ADD MSTORE SWAP6 SWAP5 POP POP POP POP POP JUMP JUMPDEST PUSH1 0x1 PUSH1 0x1 PUSH1 0xA0 SHL SUB DUP7 AND DUP2 MSTORE PUSH1 0xA0 PUSH1 0x20 DUP3 ADD DUP2 SWAP1 MSTORE PUSH1 0x0 SWAP1 PUSH3 0xF69 SWAP1 DUP4 ADD DUP8 PUSH3 0x752 JUMP JUMPDEST DUP3 DUP2 SUB PUSH1 0x40 DUP5 ADD MSTORE PUSH3 0xF7D DUP2 DUP8 PUSH3 0x752 JUMP JUMPDEST SWAP1 POP DUP3 DUP2 SUB PUSH1 0x60 DUP5 ADD MSTORE PUSH3 0xF93 DUP2 DUP7 PUSH3 0x752 JUMP JUMPDEST SWAP2 POP POP PUSH3 0xFA5 PUSH1 0x80 DUP4 ADD DUP5 PUSH3 0x830 JUMP JUMPDEST SWAP7 SWAP6 POP POP POP POP POP POP JUMP JUMPDEST PUSH1 0x1 PUSH1 0x1 PUSH1 0xA0 SHL SUB DUP4 AND DUP2 MSTORE PUSH1 0x40 PUSH1 0x20 DUP3 ADD DUP2 SWAP1 MSTORE PUSH1 0x0 SWAP1 PUSH3 0x26E SWAP1 DUP4 ADD DUP5 PUSH3 0x752 JUMP JUMPDEST PUSH1 0x1 PUSH1 0x1 PUSH1 0xA0 SHL SUB DUP5 AND DUP2 MSTORE PUSH1 0x20 DUP2 ADD DUP4 SWAP1 MSTORE PUSH1 0x60 DUP2 ADD PUSH1 0x2 DUP4 LT PUSH3 0xFFF JUMPI PUSH3 0xFFF PUSH3 0x81A JUMP JUMPDEST DUP3 PUSH1 0x40 DUP4 ADD MSTORE SWAP5 SWAP4 POP POP POP POP JUMP INVALID PUSH1 0x80 PUSH1 0x40 MSTORE CALLVALUE DUP1 ISZERO PUSH3 0x11 JUMPI PUSH1 0x0 DUP1 REVERT JUMPDEST POP PUSH1 0x40 MLOAD PUSH3 0x140B CODESIZE SUB DUP1 PUSH3 0x140B DUP4 CODECOPY DUP2 ADD PUSH1 0x40 DUP2 SWAP1 MSTORE PUSH3 0x34 SWAP2 PUSH3 0x236 JUMP JUMPDEST PUSH1 0x0 DUP1 SLOAD PUSH1 0x1 PUSH1 0x1 PUSH1 0xA0 SHL SUB NOT AND PUSH1 0x1 PUSH1 0x1 PUSH1 0xA0 SHL SUB DUP8 AND OR SWAP1 SSTORE DUP4 MLOAD PUSH3 0x64 SWAP1 PUSH1 0x1 SWAP1 PUSH1 0x20 DUP8 ADD SWAP1 PUSH3 0xC3 JUMP JUMPDEST POP DUP3 MLOAD PUSH3 0x7A SWAP1 PUSH1 0x2 SWAP1 PUSH1 0x20 DUP7 ADD SWAP1 PUSH3 0xC3 JUMP JUMPDEST POP DUP2 MLOAD PUSH3 0x90 SWAP1 PUSH1 0x3 SWAP1 PUSH1 0x20 DUP6 ADD SWAP1 PUSH3 0xC3 JUMP JUMPDEST POP PUSH1 0x4 DUP1 SLOAD DUP3 SWAP2 SWAP1 PUSH1 0xFF NOT AND PUSH1 0x1 DUP4 PUSH1 0x2 DUP2 GT ISZERO PUSH3 0xB3 JUMPI PUSH3 0xB3 PUSH3 0x302 JUMP JUMPDEST MUL OR SWAP1 SSTORE POP POP POP POP POP POP PUSH3 0x355 JUMP JUMPDEST DUP3 DUP1 SLOAD PUSH3 0xD1 SWAP1 PUSH3 0x318 JUMP JUMPDEST SWAP1 PUSH1 0x0 MSTORE PUSH1 0x20 PUSH1 0x0 KECCAK256 SWAP1 PUSH1 0x1F ADD PUSH1 0x20 SWAP1 DIV DUP2 ADD SWAP3 DUP3 PUSH3 0xF5 JUMPI PUSH1 0x0 DUP6 SSTORE PUSH3 0x140 JUMP JUMPDEST DUP3 PUSH1 0x1F LT PUSH3 0x110 JUMPI DUP1 MLOAD PUSH1 0xFF NOT AND DUP4 DUP1 ADD OR DUP6 SSTORE PUSH3 0x140 JUMP JUMPDEST DUP3 DUP1 ADD PUSH1 0x1 ADD DUP6 SSTORE DUP3 ISZERO PUSH3 0x140 JUMPI SWAP2 DUP3 ADD JUMPDEST DUP3 DUP2 GT ISZERO PUSH3 0x140 JUMPI DUP3 MLOAD DUP3 SSTORE SWAP2 PUSH1 0x20 ADD SWAP2 SWAP1 PUSH1 0x1 ADD SWAP1 PUSH3 0x123 JUMP JUMPDEST POP PUSH3 0x14E SWAP3 SWAP2 POP PUSH3 0x152 JUMP JUMPDEST POP SWAP1 JUMP JUMPDEST JUMPDEST DUP1 DUP3 GT ISZERO PUSH3 0x14E JUMPI PUSH1 0x0 DUP2 SSTORE PUSH1 0x1 ADD PUSH3 0x153 JUMP JUMPDEST PUSH4 0x4E487B71 PUSH1 0xE0 SHL PUSH1 0x0 MSTORE PUSH1 0x41 PUSH1 0x4 MSTORE PUSH1 0x24 PUSH1 0x0 REVERT JUMPDEST PUSH1 0x0 DUP3 PUSH1 0x1F DUP4 ADD SLT PUSH3 0x191 JUMPI PUSH1 0x0 DUP1 REVERT JUMPDEST DUP2 MLOAD PUSH1 0x1 PUSH1 0x1 PUSH1 0x40 SHL SUB DUP1 DUP3 GT ISZERO PUSH3 0x1AE JUMPI PUSH3 0x1AE PUSH3 0x169 JUMP JUMPDEST PUSH1 0x40 MLOAD PUSH1 0x1F DUP4 ADD PUSH1 0x1F NOT SWAP1 DUP2 AND PUSH1 0x3F ADD AND DUP2 ADD SWAP1 DUP3 DUP3 GT DUP2 DUP4 LT OR ISZERO PUSH3 0x1D9 JUMPI PUSH3 0x1D9 PUSH3 0x169 JUMP JUMPDEST DUP2 PUSH1 0x40 MSTORE DUP4 DUP2 MSTORE PUSH1 0x20 SWAP3 POP DUP7 DUP4 DUP6 DUP9 ADD ADD GT ISZERO PUSH3 0x1F6 JUMPI PUSH1 0x0 DUP1 REVERT JUMPDEST PUSH1 0x0 SWAP2 POP JUMPDEST DUP4 DUP3 LT ISZERO PUSH3 0x21A JUMPI DUP6 DUP3 ADD DUP4 ADD MLOAD DUP2 DUP4 ADD DUP5 ADD MSTORE SWAP1 DUP3 ADD SWAP1 PUSH3 0x1FB JUMP JUMPDEST DUP4 DUP3 GT ISZERO PUSH3 0x22C JUMPI PUSH1 0x0 DUP4 DUP6 DUP4 ADD ADD MSTORE JUMPDEST SWAP7 SWAP6 POP POP POP POP POP POP JUMP JUMPDEST PUSH1 0x0 DUP1 PUSH1 0x0 DUP1 PUSH1 0x0 PUSH1 0xA0 DUP7 DUP9 SUB SLT ISZERO PUSH3 0x24F JUMPI PUSH1 0x0 DUP1 REVERT JUMPDEST DUP6 MLOAD PUSH1 0x1 PUSH1 0x1 PUSH1 0xA0 SHL SUB DUP2 AND DUP2 EQ PUSH3 0x267 JUMPI PUSH1 0x0 DUP1 REVERT JUMPDEST PUSH1 0x20 DUP8 ADD MLOAD SWAP1 SWAP6 POP PUSH1 0x1 PUSH1 0x1 PUSH1 0x40 SHL SUB DUP1 DUP3 GT ISZERO PUSH3 0x285 JUMPI PUSH1 0x0 DUP1 REVERT JUMPDEST PUSH3 0x293 DUP10 DUP4 DUP11 ADD PUSH3 0x17F JUMP JUMPDEST SWAP6 POP PUSH1 0x40 DUP9 ADD MLOAD SWAP2 POP DUP1 DUP3 GT ISZERO PUSH3 0x2AA JUMPI PUSH1 0x0 DUP1 REVERT JUMPDEST PUSH3 0x2B8 DUP10 DUP4 DUP11 ADD PUSH3 0x17F JUMP JUMPDEST SWAP5 POP PUSH1 0x60 DUP9 ADD MLOAD SWAP2 POP DUP1 DUP3 GT ISZERO PUSH3 0x2CF JUMPI PUSH1 0x0 DUP1 REVERT JUMPDEST POP PUSH3 0x2DE DUP9 DUP3 DUP10 ADD PUSH3 0x17F JUMP JUMPDEST SWAP3 POP POP PUSH1 0x80 DUP7 ADD MLOAD PUSH1 0x3 DUP2 LT PUSH3 0x2F4 JUMPI PUSH1 0x0 DUP1 REVERT JUMPDEST DUP1 SWAP2 POP POP SWAP3 SWAP6 POP SWAP3 SWAP6 SWAP1 SWAP4 POP JUMP JUMPDEST PUSH4 0x4E487B71 PUSH1 0xE0 SHL PUSH1 0x0 MSTORE PUSH1 0x21 PUSH1 0x4 MSTORE PUSH1 0x24 PUSH1 0x0 REVERT JUMPDEST PUSH1 0x1 DUP2 DUP2 SHR SWAP1 DUP3 AND DUP1 PUSH3 0x32D JUMPI PUSH1 0x7F DUP3 AND SWAP2 POP JUMPDEST PUSH1 0x20 DUP3 LT DUP2 EQ ISZERO PUSH3 0x34F JUMPI PUSH4 0x4E487B71 PUSH1 0xE0 SHL PUSH1 0x0 MSTORE PUSH1 0x22 PUSH1 0x4 MSTORE PUSH1 0x24 PUSH1 0x0 REVERT JUMPDEST POP SWAP2 SWAP1 POP JUMP JUMPDEST PUSH2 0x10A6 DUP1 PUSH3 0x365 PUSH1 0x0 CODECOPY PUSH1 0x0 RETURN INVALID PUSH1 0x80 PUSH1 0x40 MSTORE CALLVALUE DUP1 ISZERO PUSH2 0x10 JUMPI PUSH1 0x0 DUP1 REVERT JUMPDEST POP PUSH1 0x4 CALLDATASIZE LT PUSH2 0xB4 JUMPI PUSH1 0x0 CALLDATALOAD PUSH1 0xE0 SHR DUP1 PUSH4 0x8EBB4C15 GT PUSH2 0x71 JUMPI DUP1 PUSH4 0x8EBB4C15 EQ PUSH2 0x175 JUMPI DUP1 PUSH4 0x91F3410C EQ PUSH2 0x198 JUMPI DUP1 PUSH4 0x95D89B41 EQ PUSH2 0x1AD JUMPI DUP1 PUSH4 0xB90497E0 EQ PUSH2 0x1B5 JUMPI DUP1 PUSH4 0xD917F76A EQ PUSH2 0x1BD JUMPI DUP1 PUSH4 0xEF430AA6 EQ PUSH2 0x1D0 JUMPI PUSH1 0x0 DUP1 REVERT JUMPDEST DUP1 PUSH4 0x6FDDE03 EQ PUSH2 0xB9 JUMPI DUP1 PUSH4 0x1BA46CFD EQ PUSH2 0xD7 JUMPI DUP1 PUSH4 0x60E77B9E EQ PUSH2 0x102 JUMPI DUP1 PUSH4 0x73D4A13A EQ PUSH2 0x117 JUMPI DUP1 PUSH4 0x80F474F6 EQ PUSH2 0x12C JUMPI DUP1 PUSH4 0x82110827 EQ PUSH2 0x162 JUMPI JUMPDEST PUSH1 0x0 DUP1 REVERT JUMPDEST PUSH2 0xC1 PUSH2 0x1EA JUMP JUMPDEST PUSH1 0x40 MLOAD PUSH2 0xCE SWAP2 SWAP1 PUSH2 0xC20 JUMP JUMPDEST PUSH1 0x40 MLOAD DUP1 SWAP2 SUB SWAP1 RETURN JUMPDEST PUSH1 0x0 SLOAD PUSH2 0xEA SWAP1 PUSH1 0x1 PUSH1 0x1 PUSH1 0xA0 SHL SUB AND DUP2 JUMP JUMPDEST PUSH1 0x40 MLOAD PUSH1 0x1 PUSH1 0x1 PUSH1 0xA0 SHL SUB SWAP1 SWAP2 AND DUP2 MSTORE PUSH1 0x20 ADD PUSH2 0xCE JUMP JUMPDEST PUSH2 0x115 PUSH2 0x110 CALLDATASIZE PUSH1 0x4 PUSH2 0xC56 JUMP JUMPDEST PUSH2 0x278 JUMP JUMPDEST STOP JUMPDEST PUSH2 0x11F PUSH2 0x3D2 JUMP JUMPDEST PUSH1 0x40 MLOAD PUSH2 0xCE SWAP2 SWAP1 PUSH2 0xCC7 JUMP JUMPDEST PUSH1 0x5 SLOAD PUSH1 0x6 SLOAD PUSH1 0x7 SLOAD PUSH1 0x8 SLOAD PUSH2 0x142 SWAP4 SWAP3 SWAP2 SWAP1 DUP5 JUMP JUMPDEST PUSH1 0x40 DUP1 MLOAD SWAP5 DUP6 MSTORE PUSH1 0x20 DUP6 ADD SWAP4 SWAP1 SWAP4 MSTORE SWAP2 DUP4 ADD MSTORE PUSH1 0x60 DUP3 ADD MSTORE PUSH1 0x80 ADD PUSH2 0xCE JUMP JUMPDEST PUSH2 0x115 PUSH2 0x170 CALLDATASIZE PUSH1 0x4 PUSH2 0xD7F JUMP JUMPDEST PUSH2 0x600 JUMP JUMPDEST PUSH2 0x188 PUSH2 0x183 CALLDATASIZE PUSH1 0x4 PUSH2 0xDC3 JUMP JUMPDEST PUSH2 0x751 JUMP JUMPDEST PUSH1 0x40 MLOAD PUSH2 0xCE SWAP5 SWAP4 SWAP3 SWAP2 SWAP1 PUSH2 0xDDC JUMP JUMPDEST PUSH2 0x1A0 PUSH2 0x81F JUMP JUMPDEST PUSH1 0x40 MLOAD PUSH2 0xCE SWAP2 SWAP1 PUSH2 0xE13 JUMP JUMPDEST PUSH2 0xC1 PUSH2 0x93A JUMP JUMPDEST PUSH2 0xC1 PUSH2 0x947 JUMP JUMPDEST PUSH2 0x115 PUSH2 0x1CB CALLDATASIZE PUSH1 0x4 PUSH2 0xEBF JUMP JUMPDEST PUSH2 0x954 JUMP JUMPDEST PUSH1 0x4 SLOAD PUSH2 0x1DD SWAP1 PUSH1 0xFF AND DUP2 JUMP JUMPDEST PUSH1 0x40 MLOAD PUSH2 0xCE SWAP2 SWAP1 PUSH2 0xF81 JUMP JUMPDEST PUSH1 0x1 DUP1 SLOAD PUSH2 0x1F7 SWAP1 PUSH2 0xF95 JUMP JUMPDEST DUP1 PUSH1 0x1F ADD PUSH1 0x20 DUP1 SWAP2 DIV MUL PUSH1 0x20 ADD PUSH1 0x40 MLOAD SWAP1 DUP2 ADD PUSH1 0x40 MSTORE DUP1 SWAP3 SWAP2 SWAP1 DUP2 DUP2 MSTORE PUSH1 0x20 ADD DUP3 DUP1 SLOAD PUSH2 0x223 SWAP1 PUSH2 0xF95 JUMP JUMPDEST DUP1 ISZERO PUSH2 0x270 JUMPI DUP1 PUSH1 0x1F LT PUSH2 0x245 JUMPI PUSH2 0x100 DUP1 DUP4 SLOAD DIV MUL DUP4 MSTORE SWAP2 PUSH1 0x20 ADD SWAP2 PUSH2 0x270 JUMP JUMPDEST DUP3 ADD SWAP2 SWAP1 PUSH1 0x0 MSTORE PUSH1 0x20 PUSH1 0x0 KECCAK256 SWAP1 JUMPDEST DUP2 SLOAD DUP2 MSTORE SWAP1 PUSH1 0x1 ADD SWAP1 PUSH1 0x20 ADD DUP1 DUP4 GT PUSH2 0x253 JUMPI DUP3 SWAP1 SUB PUSH1 0x1F AND DUP3 ADD SWAP2 JUMPDEST POP POP POP POP POP DUP2 JUMP JUMPDEST PUSH1 0x1 PUSH1 0x1 PUSH1 0xA0 SHL SUB DUP5 AND PUSH1 0x0 SWAP1 DUP2 MSTORE PUSH1 0xA PUSH1 0x20 MSTORE PUSH1 0x40 SWAP1 KECCAK256 SLOAD DUP5 SWAP1 PUSH1 0xFF AND ISZERO PUSH2 0x2E8 JUMPI PUSH1 0x40 MLOAD PUSH3 0x461BCD PUSH1 0xE5 SHL DUP2 MSTORE PUSH1 0x20 PUSH1 0x4 DUP3 ADD MSTORE PUSH1 0x19 PUSH1 0x24 DUP3 ADD MSTORE PUSH32 0x596F752063616E206F6E6C792072617465206F6E636521212100000000000000 PUSH1 0x44 DUP3 ADD MSTORE PUSH1 0x64 ADD JUMPDEST PUSH1 0x40 MLOAD DUP1 SWAP2 SUB SWAP1 REVERT JUMPDEST PUSH1 0x1 PUSH1 0x1 PUSH1 0xA0 SHL SUB DUP2 AND PUSH1 0x0 SWAP1 DUP2 MSTORE PUSH1 0xA PUSH1 0x20 MSTORE PUSH1 0x40 SWAP1 KECCAK256 DUP1 SLOAD PUSH1 0xFF NOT AND PUSH1 0x1 OR SWAP1 SSTORE PUSH1 0x9 SLOAD PUSH1 0x6 SLOAD PUSH2 0x31C SWAP1 DUP7 DUP4 PUSH2 0xA8E JUMP JUMPDEST PUSH1 0x6 SSTORE PUSH1 0x7 SLOAD PUSH2 0x32D SWAP1 DUP6 DUP4 PUSH2 0xA8E JUMP JUMPDEST PUSH1 0x7 SSTORE PUSH1 0x8 SLOAD PUSH2 0x33E SWAP1 DUP5 DUP4 PUSH2 0xA8E JUMP JUMPDEST PUSH1 0x8 SSTORE PUSH1 0x0 PUSH1 0x3 DUP5 PUSH2 0x350 DUP8 DUP10 PUSH2 0xFE6 JUMP JUMPDEST PUSH2 0x35A SWAP2 SWAP1 PUSH2 0xFE6 JUMP JUMPDEST PUSH2 0x364 SWAP2 SWAP1 PUSH2 0xFFE JUMP JUMPDEST SWAP1 POP PUSH2 0x376 PUSH1 0x5 PUSH1 0x0 ADD SLOAD DUP3 DUP5 PUSH2 0xA8E JUMP JUMPDEST PUSH1 0x5 SSTORE POP POP PUSH1 0x9 DUP1 SLOAD PUSH1 0x1 DUP2 ADD DUP3 SSTORE PUSH1 0x0 SWAP2 SWAP1 SWAP2 MSTORE PUSH32 0x6E1540171B6C0C960B71A7020D9F60077F6AF931A8BBF590DA0223DACF75C7AF ADD DUP1 SLOAD PUSH1 0x1 PUSH1 0x1 PUSH1 0xA0 SHL SUB NOT AND PUSH1 0x1 PUSH1 0x1 PUSH1 0xA0 SHL SUB SWAP7 SWAP1 SWAP7 AND SWAP6 SWAP1 SWAP6 OR SWAP1 SWAP5 SSTORE POP POP POP POP JUMP JUMPDEST PUSH2 0x3DA PUSH2 0xAC2 JUMP JUMPDEST PUSH1 0x40 DUP1 MLOAD PUSH1 0xC0 DUP2 ADD SWAP1 SWAP2 MSTORE PUSH1 0x0 DUP1 SLOAD PUSH1 0x1 PUSH1 0x1 PUSH1 0xA0 SHL SUB AND DUP3 MSTORE PUSH1 0x1 DUP1 SLOAD SWAP2 SWAP3 SWAP2 PUSH1 0x20 DUP4 ADD SWAP2 SWAP1 PUSH2 0x40A SWAP1 PUSH2 0xF95 JUMP JUMPDEST DUP1 PUSH1 0x1F ADD PUSH1 0x20 DUP1 SWAP2 DIV MUL PUSH1 0x20 ADD PUSH1 0x40 MLOAD SWAP1 DUP2 ADD PUSH1 0x40 MSTORE DUP1 SWAP3 SWAP2 SWAP1 DUP2 DUP2 MSTORE PUSH1 0x20 ADD DUP3 DUP1 SLOAD PUSH2 0x436 SWAP1 PUSH2 0xF95 JUMP JUMPDEST DUP1 ISZERO PUSH2 0x483 JUMPI DUP1 PUSH1 0x1F LT PUSH2 0x458 JUMPI PUSH2 0x100 DUP1 DUP4 SLOAD DIV MUL DUP4 MSTORE SWAP2 PUSH1 0x20 ADD SWAP2 PUSH2 0x483 JUMP JUMPDEST DUP3 ADD SWAP2 SWAP1 PUSH1 0x0 MSTORE PUSH1 0x20 PUSH1 0x0 KECCAK256 SWAP1 JUMPDEST DUP2 SLOAD DUP2 MSTORE SWAP1 PUSH1 0x1 ADD SWAP1 PUSH1 0x20 ADD DUP1 DUP4 GT PUSH2 0x466 JUMPI DUP3 SWAP1 SUB PUSH1 0x1F AND DUP3 ADD SWAP2 JUMPDEST POP POP POP POP POP DUP2 MSTORE PUSH1 0x20 ADD PUSH1 0x2 DUP1 SLOAD PUSH2 0x49A SWAP1 PUSH2 0xF95 JUMP JUMPDEST DUP1 PUSH1 0x1F ADD PUSH1 0x20 DUP1 SWAP2 DIV MUL PUSH1 0x20 ADD PUSH1 0x40 MLOAD SWAP1 DUP2 ADD PUSH1 0x40 MSTORE DUP1 SWAP3 SWAP2 SWAP1 DUP2 DUP2 MSTORE PUSH1 0x20 ADD DUP3 DUP1 SLOAD PUSH2 0x4C6 SWAP1 PUSH2 0xF95 JUMP JUMPDEST DUP1 ISZERO PUSH2 0x513 JUMPI DUP1 PUSH1 0x1F LT PUSH2 0x4E8 JUMPI PUSH2 0x100 DUP1 DUP4 SLOAD DIV MUL DUP4 MSTORE SWAP2 PUSH1 0x20 ADD SWAP2 PUSH2 0x513 JUMP JUMPDEST DUP3 ADD SWAP2 SWAP1 PUSH1 0x0 MSTORE PUSH1 0x20 PUSH1 0x0 KECCAK256 SWAP1 JUMPDEST DUP2 SLOAD DUP2 MSTORE SWAP1 PUSH1 0x1 ADD SWAP1 PUSH1 0x20 ADD DUP1 DUP4 GT PUSH2 0x4F6 JUMPI DUP3 SWAP1 SUB PUSH1 0x1F AND DUP3 ADD SWAP2 JUMPDEST POP POP POP POP POP DUP2 MSTORE PUSH1 0x20 ADD PUSH1 0x3 DUP1 SLOAD PUSH2 0x52A SWAP1 PUSH2 0xF95 JUMP JUMPDEST DUP1 PUSH1 0x1F ADD PUSH1 0x20 DUP1 SWAP2 DIV MUL PUSH1 0x20 ADD PUSH1 0x40 MLOAD SWAP1 DUP2 ADD PUSH1 0x40 MSTORE DUP1 SWAP3 SWAP2 SWAP1 DUP2 DUP2 MSTORE PUSH1 0x20 ADD DUP3 DUP1 SLOAD PUSH2 0x556 SWAP1 PUSH2 0xF95 JUMP JUMPDEST DUP1 ISZERO PUSH2 0x5A3 JUMPI DUP1 PUSH1 0x1F LT PUSH2 0x578 JUMPI PUSH2 0x100 DUP1 DUP4 SLOAD DIV MUL DUP4 MSTORE SWAP2 PUSH1 0x20 ADD SWAP2 PUSH2 0x5A3 JUMP JUMPDEST DUP3 ADD SWAP2 SWAP1 PUSH1 0x0 MSTORE PUSH1 0x20 PUSH1 0x0 KECCAK256 SWAP1 JUMPDEST DUP2 SLOAD DUP2 MSTORE SWAP1 PUSH1 0x1 ADD SWAP1 PUSH1 0x20 ADD DUP1 DUP4 GT PUSH2 0x586 JUMPI DUP3 SWAP1 SUB PUSH1 0x1F AND DUP3 ADD SWAP2 JUMPDEST POP POP POP SWAP2 DUP4 MSTORE POP POP PUSH1 0x4 SLOAD PUSH1 0x20 SWAP1 SWAP2 ADD SWAP1 PUSH1 0xFF AND PUSH1 0x2 DUP2 GT ISZERO PUSH2 0x5C8 JUMPI PUSH2 0x5C8 PUSH2 0xC8F JUMP JUMPDEST DUP2 MSTORE PUSH1 0x40 DUP1 MLOAD PUSH1 0x80 DUP2 ADD DUP3 MSTORE PUSH1 0x5 SLOAD DUP2 MSTORE PUSH1 0x6 SLOAD PUSH1 0x20 DUP3 DUP2 ADD SWAP2 SWAP1 SWAP2 MSTORE PUSH1 0x7 SLOAD SWAP3 DUP3 ADD SWAP3 SWAP1 SWAP3 MSTORE PUSH1 0x8 SLOAD PUSH1 0x60 DUP3 ADD MSTORE SWAP2 ADD MSTORE SWAP3 SWAP2 POP POP JUMP JUMPDEST PUSH1 0x1 PUSH1 0x1 PUSH1 0xA0 SHL SUB DUP4 AND PUSH1 0x0 SWAP1 DUP2 MSTORE PUSH1 0xD PUSH1 0x20 SWAP1 DUP2 MSTORE PUSH1 0x40 DUP1 DUP4 KECCAK256 DUP6 DUP5 MSTORE SWAP1 SWAP2 MSTORE SWAP1 KECCAK256 SLOAD DUP3 SWAP1 DUP5 SWAP1 PUSH1 0xFF AND ISZERO PUSH2 0x678 JUMPI PUSH1 0x40 MLOAD PUSH3 0x461BCD PUSH1 0xE5 SHL DUP2 MSTORE PUSH1 0x20 PUSH1 0x4 DUP3 ADD MSTORE PUSH1 0x19 PUSH1 0x24 DUP3 ADD MSTORE PUSH32 0x596F752063616E206F6E6C7920766F7465206F6E636521212100000000000000 PUSH1 0x44 DUP3 ADD MSTORE PUSH1 0x64 ADD PUSH2 0x2DF JUMP JUMPDEST PUSH1 0x1 PUSH1 0x1 PUSH1 0xA0 SHL SUB DUP2 AND PUSH1 0x0 SWAP1 DUP2 MSTORE PUSH1 0xD PUSH1 0x20 SWAP1 DUP2 MSTORE PUSH1 0x40 DUP1 DUP4 KECCAK256 DUP6 DUP5 MSTORE SWAP1 SWAP2 MSTORE DUP2 KECCAK256 DUP1 SLOAD PUSH1 0xFF NOT AND PUSH1 0x1 OR SWAP1 SSTORE DUP4 PUSH1 0x1 DUP2 GT ISZERO PUSH2 0x6B8 JUMPI PUSH2 0x6B8 PUSH2 0xC8F JUMP JUMPDEST EQ ISZERO PUSH2 0x6F9 JUMPI PUSH1 0xB DUP5 DUP2 SLOAD DUP2 LT PUSH2 0x6D1 JUMPI PUSH2 0x6D1 PUSH2 0x1020 JUMP JUMPDEST PUSH1 0x0 SWAP2 DUP3 MSTORE PUSH1 0x20 DUP3 KECCAK256 PUSH1 0x2 PUSH1 0x4 SWAP1 SWAP3 MUL ADD ADD DUP1 SLOAD SWAP2 PUSH2 0x6EF DUP4 PUSH2 0x1036 JUMP JUMPDEST SWAP2 SWAP1 POP SSTORE POP PUSH2 0x74A JUMP JUMPDEST PUSH1 0x1 DUP4 PUSH1 0x1 DUP2 GT ISZERO PUSH2 0x70D JUMPI PUSH2 0x70D PUSH2 0xC8F JUMP JUMPDEST EQ ISZERO PUSH2 0x74A JUMPI PUSH1 0xB DUP5 DUP2 SLOAD DUP2 LT PUSH2 0x726 JUMPI PUSH2 0x726 PUSH2 0x1020 JUMP JUMPDEST PUSH1 0x0 SWAP2 DUP3 MSTORE PUSH1 0x20 DUP3 KECCAK256 PUSH1 0x3 PUSH1 0x4 SWAP1 SWAP3 MUL ADD ADD DUP1 SLOAD SWAP2 PUSH2 0x744 DUP4 PUSH2 0x1036 JUMP JUMPDEST SWAP2 SWAP1 POP SSTORE POP JUMPDEST POP POP POP POP POP JUMP JUMPDEST PUSH1 0xB DUP2 DUP2 SLOAD DUP2 LT PUSH2 0x761 JUMPI PUSH1 0x0 DUP1 REVERT JUMPDEST PUSH1 0x0 SWAP2 DUP3 MSTORE PUSH1 0x20 SWAP1 SWAP2 KECCAK256 PUSH1 0x4 SWAP1 SWAP2 MUL ADD DUP1 SLOAD PUSH1 0x1 DUP3 ADD DUP1 SLOAD PUSH1 0x1 PUSH1 0x1 PUSH1 0xA0 SHL SUB SWAP1 SWAP3 AND SWAP4 POP SWAP1 PUSH2 0x790 SWAP1 PUSH2 0xF95 JUMP JUMPDEST DUP1 PUSH1 0x1F ADD PUSH1 0x20 DUP1 SWAP2 DIV MUL PUSH1 0x20 ADD PUSH1 0x40 MLOAD SWAP1 DUP2 ADD PUSH1 0x40 MSTORE DUP1 SWAP3 SWAP2 SWAP1 DUP2 DUP2 MSTORE PUSH1 0x20 ADD DUP3 DUP1 SLOAD PUSH2 0x7BC SWAP1 PUSH2 0xF95 JUMP JUMPDEST DUP1 ISZERO PUSH2 0x809 JUMPI DUP1 PUSH1 0x1F LT PUSH2 0x7DE JUMPI PUSH2 0x100 DUP1 DUP4 SLOAD DIV MUL DUP4 MSTORE SWAP2 PUSH1 0x20 ADD SWAP2 PUSH2 0x809 JUMP JUMPDEST DUP3 ADD SWAP2 SWAP1 PUSH1 0x0 MSTORE PUSH1 0x20 PUSH1 0x0 KECCAK256 SWAP1 JUMPDEST DUP2 SLOAD DUP2 MSTORE SWAP1 PUSH1 0x1 ADD SWAP1 PUSH1 0x20 ADD DUP1 DUP4 GT PUSH2 0x7EC JUMPI DUP3 SWAP1 SUB PUSH1 0x1F AND DUP3 ADD SWAP2 JUMPDEST POP POP POP POP POP SWAP1 DUP1 PUSH1 0x2 ADD SLOAD SWAP1 DUP1 PUSH1 0x3 ADD SLOAD SWAP1 POP DUP5 JUMP JUMPDEST PUSH1 0x60 PUSH1 0xB DUP1 SLOAD DUP1 PUSH1 0x20 MUL PUSH1 0x20 ADD PUSH1 0x40 MLOAD SWAP1 DUP2 ADD PUSH1 0x40 MSTORE DUP1 SWAP3 SWAP2 SWAP1 DUP2 DUP2 MSTORE PUSH1 0x20 ADD PUSH1 0x0 SWAP1 JUMPDEST DUP3 DUP3 LT ISZERO PUSH2 0x931 JUMPI PUSH1 0x0 DUP5 DUP2 MSTORE PUSH1 0x20 SWAP1 DUP2 SWAP1 KECCAK256 PUSH1 0x40 DUP1 MLOAD PUSH1 0x80 DUP2 ADD SWAP1 SWAP2 MSTORE PUSH1 0x4 DUP6 MUL SWAP1 SWAP2 ADD DUP1 SLOAD PUSH1 0x1 PUSH1 0x1 PUSH1 0xA0 SHL SUB AND DUP3 MSTORE PUSH1 0x1 DUP2 ADD DUP1 SLOAD SWAP3 SWAP4 SWAP2 SWAP3 SWAP2 DUP5 ADD SWAP2 PUSH2 0x88C SWAP1 PUSH2 0xF95 JUMP JUMPDEST DUP1 PUSH1 0x1F ADD PUSH1 0x20 DUP1 SWAP2 DIV MUL PUSH1 0x20 ADD PUSH1 0x40 MLOAD SWAP1 DUP2 ADD PUSH1 0x40 MSTORE DUP1 SWAP3 SWAP2 SWAP1 DUP2 DUP2 MSTORE PUSH1 0x20 ADD DUP3 DUP1 SLOAD PUSH2 0x8B8 SWAP1 PUSH2 0xF95 JUMP JUMPDEST DUP1 ISZERO PUSH2 0x905 JUMPI DUP1 PUSH1 0x1F LT PUSH2 0x8DA JUMPI PUSH2 0x100 DUP1 DUP4 SLOAD DIV MUL DUP4 MSTORE SWAP2 PUSH1 0x20 ADD SWAP2 PUSH2 0x905 JUMP JUMPDEST DUP3 ADD SWAP2 SWAP1 PUSH1 0x0 MSTORE PUSH1 0x20 PUSH1 0x0 KECCAK256 SWAP1 JUMPDEST DUP2 SLOAD DUP2 MSTORE SWAP1 PUSH1 0x1 ADD SWAP1 PUSH1 0x20 ADD DUP1 DUP4 GT PUSH2 0x8E8 JUMPI DUP3 SWAP1 SUB PUSH1 0x1F AND DUP3 ADD SWAP2 JUMPDEST POP POP POP POP POP DUP2 MSTORE PUSH1 0x20 ADD PUSH1 0x2 DUP3 ADD SLOAD DUP2 MSTORE PUSH1 0x20 ADD PUSH1 0x3 DUP3 ADD SLOAD DUP2 MSTORE POP POP DUP2 MSTORE PUSH1 0x20 ADD SWAP1 PUSH1 0x1 ADD SWAP1 PUSH2 0x843 JUMP JUMPDEST POP POP POP POP SWAP1 POP SWAP1 JUMP JUMPDEST PUSH1 0x2 DUP1 SLOAD PUSH2 0x1F7 SWAP1 PUSH2 0xF95 JUMP JUMPDEST PUSH1 0x3 DUP1 SLOAD PUSH2 0x1F7 SWAP1 PUSH2 0xF95 JUMP JUMPDEST PUSH1 0x1 PUSH1 0x1 PUSH1 0xA0 SHL SUB DUP3 AND PUSH1 0x0 SWAP1 DUP2 MSTORE PUSH1 0xC PUSH1 0x20 MSTORE PUSH1 0x40 SWAP1 KECCAK256 SLOAD DUP3 SWAP1 PUSH1 0xFF AND ISZERO PUSH2 0x9BF JUMPI PUSH1 0x40 MLOAD PUSH3 0x461BCD PUSH1 0xE5 SHL DUP2 MSTORE PUSH1 0x20 PUSH1 0x4 DUP3 ADD MSTORE PUSH1 0x19 PUSH1 0x24 DUP3 ADD MSTORE PUSH32 0x596F752063616E206F6E6C7920706F7374206F6E636521212100000000000000 PUSH1 0x44 DUP3 ADD MSTORE PUSH1 0x64 ADD PUSH2 0x2DF JUMP JUMPDEST PUSH1 0x1 PUSH1 0x1 PUSH1 0xA0 SHL SUB DUP2 DUP2 AND PUSH1 0x0 SWAP1 DUP2 MSTORE PUSH1 0xC PUSH1 0x20 SWAP1 DUP2 MSTORE PUSH1 0x40 DUP3 KECCAK256 DUP1 SLOAD PUSH1 0x1 PUSH1 0xFF NOT SWAP1 SWAP2 AND DUP2 OR SWAP1 SWAP2 SSTORE PUSH1 0xB DUP1 SLOAD SWAP2 DUP3 ADD DUP2 SSTORE SWAP1 SWAP3 MSTORE PUSH32 0x175B7A638427703F0DBE7BB9BBF987A2551717B34E79F33B5B1008D1FA01DB9 PUSH1 0x4 SWAP1 SWAP3 MUL SWAP2 DUP3 ADD DUP1 SLOAD PUSH1 0x1 PUSH1 0x1 PUSH1 0xA0 SHL SUB NOT AND SWAP4 DUP8 AND SWAP4 SWAP1 SWAP4 OR DUP4 SSTORE DUP5 MLOAD PUSH2 0xA64 SWAP3 PUSH32 0x175B7A638427703F0DBE7BB9BBF987A2551717B34E79F33B5B1008D1FA01DBA ADD SWAP2 DUP7 ADD SWAP1 PUSH2 0xB3A JUMP JUMPDEST POP POP POP PUSH1 0x1 PUSH1 0x1 PUSH1 0xA0 SHL SUB SWAP1 SWAP2 AND PUSH1 0x0 SWAP1 DUP2 MSTORE PUSH1 0xC PUSH1 0x20 MSTORE PUSH1 0x40 SWAP1 KECCAK256 DUP1 SLOAD PUSH1 0xFF NOT AND PUSH1 0x1 OR SWAP1 SSTORE POP JUMP JUMPDEST PUSH1 0x0 PUSH2 0xA9B DUP3 PUSH1 0x1 PUSH2 0xFE6 JUMP JUMPDEST DUP4 PUSH2 0xAA6 DUP5 DUP8 PUSH2 0x1051 JUMP JUMPDEST PUSH2 0xAB0 SWAP2 SWAP1 PUSH2 0xFE6 JUMP JUMPDEST PUSH2 0xABA SWAP2 SWAP1 PUSH2 0xFFE JUMP JUMPDEST SWAP5 SWAP4 POP POP POP POP JUMP JUMPDEST PUSH1 0x40 MLOAD DUP1 PUSH1 0xC0 ADD PUSH1 0x40 MSTORE DUP1 PUSH1 0x0 PUSH1 0x1 PUSH1 0x1 PUSH1 0xA0 SHL SUB AND DUP2 MSTORE PUSH1 0x20 ADD PUSH1 0x60 DUP2 MSTORE PUSH1 0x20 ADD PUSH1 0x60 DUP2 MSTORE PUSH1 0x20 ADD PUSH1 0x60 DUP2 MSTORE PUSH1 0x20 ADD PUSH1 0x0 PUSH1 0x2 DUP2 GT ISZERO PUSH2 0xB05 JUMPI PUSH2 0xB05 PUSH2 0xC8F JUMP JUMPDEST DUP2 MSTORE PUSH1 0x20 ADD PUSH2 0xB35 PUSH1 0x40 MLOAD DUP1 PUSH1 0x80 ADD PUSH1 0x40 MSTORE DUP1 PUSH1 0x0 DUP2 MSTORE PUSH1 0x20 ADD PUSH1 0x0 DUP2 MSTORE PUSH1 0x20 ADD PUSH1 0x0 DUP2 MSTORE PUSH1 0x20 ADD PUSH1 0x0 DUP2 MSTORE POP SWAP1 JUMP JUMPDEST SWAP1 MSTORE SWAP1 JUMP JUMPDEST DUP3 DUP1 SLOAD PUSH2 0xB46 SWAP1 PUSH2 0xF95 JUMP JUMPDEST SWAP1 PUSH1 0x0 MSTORE PUSH1 0x20 PUSH1 0x0 KECCAK256 SWAP1 PUSH1 0x1F ADD PUSH1 0x20 SWAP1 DIV DUP2 ADD SWAP3 DUP3 PUSH2 0xB68 JUMPI PUSH1 0x0 DUP6 SSTORE PUSH2 0xBAE JUMP JUMPDEST DUP3 PUSH1 0x1F LT PUSH2 0xB81 JUMPI DUP1 MLOAD PUSH1 0xFF NOT AND DUP4 DUP1 ADD OR DUP6 SSTORE PUSH2 0xBAE JUMP JUMPDEST DUP3 DUP1 ADD PUSH1 0x1 ADD DUP6 SSTORE DUP3 ISZERO PUSH2 0xBAE JUMPI SWAP2 DUP3 ADD JUMPDEST DUP3 DUP2 GT ISZERO PUSH2 0xBAE JUMPI DUP3 MLOAD DUP3 SSTORE SWAP2 PUSH1 0x20 ADD SWAP2 SWAP1 PUSH1 0x1 ADD SWAP1 PUSH2 0xB93 JUMP JUMPDEST POP PUSH2 0xBBA SWAP3 SWAP2 POP PUSH2 0xBBE JUMP JUMPDEST POP SWAP1 JUMP JUMPDEST JUMPDEST DUP1 DUP3 GT ISZERO PUSH2 0xBBA JUMPI PUSH1 0x0 DUP2 SSTORE PUSH1 0x1 ADD PUSH2 0xBBF JUMP JUMPDEST PUSH1 0x0 DUP2 MLOAD DUP1 DUP5 MSTORE PUSH1 0x0 JUMPDEST DUP2 DUP2 LT ISZERO PUSH2 0xBF9 JUMPI PUSH1 0x20 DUP2 DUP6 ADD DUP2 ADD MLOAD DUP7 DUP4 ADD DUP3 ADD MSTORE ADD PUSH2 0xBDD JUMP JUMPDEST DUP2 DUP2 GT ISZERO PUSH2 0xC0B JUMPI PUSH1 0x0 PUSH1 0x20 DUP4 DUP8 ADD ADD MSTORE JUMPDEST POP PUSH1 0x1F ADD PUSH1 0x1F NOT AND SWAP3 SWAP1 SWAP3 ADD PUSH1 0x20 ADD SWAP3 SWAP2 POP POP JUMP JUMPDEST PUSH1 0x20 DUP2 MSTORE PUSH1 0x0 PUSH2 0xC33 PUSH1 0x20 DUP4 ADD DUP5 PUSH2 0xBD3 JUMP JUMPDEST SWAP4 SWAP3 POP POP POP JUMP JUMPDEST DUP1 CALLDATALOAD PUSH1 0x1 PUSH1 0x1 PUSH1 0xA0 SHL SUB DUP2 AND DUP2 EQ PUSH2 0xC51 JUMPI PUSH1 0x0 DUP1 REVERT JUMPDEST SWAP2 SWAP1 POP JUMP JUMPDEST PUSH1 0x0 DUP1 PUSH1 0x0 DUP1 PUSH1 0x80 DUP6 DUP8 SUB SLT ISZERO PUSH2 0xC6C JUMPI PUSH1 0x0 DUP1 REVERT JUMPDEST PUSH2 0xC75 DUP6 PUSH2 0xC3A JUMP JUMPDEST SWAP7 PUSH1 0x20 DUP7 ADD CALLDATALOAD SWAP7 POP PUSH1 0x40 DUP7 ADD CALLDATALOAD SWAP6 PUSH1 0x60 ADD CALLDATALOAD SWAP5 POP SWAP3 POP POP POP JUMP JUMPDEST PUSH4 0x4E487B71 PUSH1 0xE0 SHL PUSH1 0x0 MSTORE PUSH1 0x21 PUSH1 0x4 MSTORE PUSH1 0x24 PUSH1 0x0 REVERT JUMPDEST PUSH1 0x3 DUP2 LT PUSH2 0xCC3 JUMPI PUSH4 0x4E487B71 PUSH1 0xE0 SHL PUSH1 0x0 MSTORE PUSH1 0x21 PUSH1 0x4 MSTORE PUSH1 0x24 PUSH1 0x0 REVERT JUMPDEST SWAP1 MSTORE JUMP JUMPDEST PUSH1 0x20 DUP1 DUP3 MSTORE DUP3 MLOAD PUSH1 0x1 PUSH1 0x1 PUSH1 0xA0 SHL SUB AND DUP3 DUP3 ADD MSTORE DUP3 ADD MLOAD PUSH2 0x120 PUSH1 0x40 DUP4 ADD DUP2 SWAP1 MSTORE PUSH1 0x0 SWAP2 SWAP1 PUSH2 0xCFA PUSH2 0x140 DUP6 ADD DUP4 PUSH2 0xBD3 JUMP JUMPDEST SWAP2 POP PUSH1 0x40 DUP6 ADD MLOAD PUSH1 0x1F NOT DUP1 DUP7 DUP6 SUB ADD PUSH1 0x60 DUP8 ADD MSTORE PUSH2 0xD18 DUP5 DUP4 PUSH2 0xBD3 JUMP JUMPDEST SWAP4 POP PUSH1 0x60 DUP8 ADD MLOAD SWAP2 POP DUP1 DUP7 DUP6 SUB ADD PUSH1 0x80 DUP8 ADD MSTORE POP PUSH2 0xD36 DUP4 DUP3 PUSH2 0xBD3 JUMP JUMPDEST SWAP3 POP POP PUSH1 0x80 DUP6 ADD MLOAD PUSH2 0xD4B PUSH1 0xA0 DUP7 ADD DUP3 PUSH2 0xCA5 JUMP JUMPDEST POP PUSH1 0xA0 SWAP5 SWAP1 SWAP5 ADD MLOAD DUP1 MLOAD PUSH1 0xC0 DUP6 ADD MSTORE PUSH1 0x20 DUP2 ADD MLOAD PUSH1 0xE0 DUP6 ADD MSTORE PUSH1 0x40 DUP2 ADD MLOAD PUSH2 0x100 DUP6 ADD MSTORE PUSH1 0x60 ADD MLOAD SWAP3 SWAP1 SWAP4 ADD SWAP2 SWAP1 SWAP2 MSTORE POP SWAP1 JUMP JUMPDEST PUSH1 0x0 DUP1 PUSH1 0x0 PUSH1 0x60 DUP5 DUP7 SUB SLT ISZERO PUSH2 0xD94 JUMPI PUSH1 0x0 DUP1 REVERT JUMPDEST PUSH2 0xD9D DUP5 PUSH2 0xC3A JUMP JUMPDEST SWAP3 POP PUSH1 0x20 DUP5 ADD CALLDATALOAD SWAP2 POP PUSH1 0x40 DUP5 ADD CALLDATALOAD PUSH1 0x2 DUP2 LT PUSH2 0xDB8 JUMPI PUSH1 0x0 DUP1 REVERT JUMPDEST DUP1 SWAP2 POP POP SWAP3 POP SWAP3 POP SWAP3 JUMP JUMPDEST PUSH1 0x0 PUSH1 0x20 DUP3 DUP5 SUB SLT ISZERO PUSH2 0xDD5 JUMPI PUSH1 0x0 DUP1 REVERT JUMPDEST POP CALLDATALOAD SWAP2 SWAP1 POP JUMP JUMPDEST PUSH1 0x1 PUSH1 0x1 PUSH1 0xA0 SHL SUB DUP6 AND DUP2 MSTORE PUSH1 0x80 PUSH1 0x20 DUP3 ADD DUP2 SWAP1 MSTORE PUSH1 0x0 SWAP1 PUSH2 0xE00 SWAP1 DUP4 ADD DUP7 PUSH2 0xBD3 JUMP JUMPDEST PUSH1 0x40 DUP4 ADD SWAP5 SWAP1 SWAP5 MSTORE POP PUSH1 0x60 ADD MSTORE SWAP3 SWAP2 POP POP JUMP JUMPDEST PUSH1 0x0 PUSH1 0x20 DUP1 DUP4 ADD DUP2 DUP5 MSTORE DUP1 DUP6 MLOAD DUP1 DUP4 MSTORE PUSH1 0x40 SWAP3 POP DUP3 DUP7 ADD SWAP2 POP DUP3 DUP2 PUSH1 0x5 SHL DUP8 ADD ADD DUP5 DUP9 ADD PUSH1 0x0 JUMPDEST DUP4 DUP2 LT ISZERO PUSH2 0xE9B JUMPI DUP9 DUP4 SUB PUSH1 0x3F NOT ADD DUP6 MSTORE DUP2 MLOAD DUP1 MLOAD PUSH1 0x1 PUSH1 0x1 PUSH1 0xA0 SHL SUB AND DUP5 MSTORE DUP8 DUP2 ADD MLOAD PUSH1 0x80 DUP10 DUP7 ADD DUP2 SWAP1 MSTORE SWAP1 PUSH2 0xE73 DUP3 DUP8 ADD DUP3 PUSH2 0xBD3 JUMP JUMPDEST DUP4 DUP11 ADD MLOAD DUP8 DUP12 ADD MSTORE PUSH1 0x60 SWAP4 DUP5 ADD MLOAD SWAP4 SWAP1 SWAP7 ADD SWAP3 SWAP1 SWAP3 MSTORE POP POP SWAP4 DUP7 ADD SWAP4 SWAP1 DUP7 ADD SWAP1 PUSH1 0x1 ADD PUSH2 0xE3A JUMP JUMPDEST POP SWAP1 SWAP9 SWAP8 POP POP POP POP POP POP POP POP JUMP JUMPDEST PUSH4 0x4E487B71 PUSH1 0xE0 SHL PUSH1 0x0 MSTORE PUSH1 0x41 PUSH1 0x4 MSTORE PUSH1 0x24 PUSH1 0x0 REVERT JUMPDEST PUSH1 0x0 DUP1 PUSH1 0x40 DUP4 DUP6 SUB SLT ISZERO PUSH2 0xED2 JUMPI PUSH1 0x0 DUP1 REVERT JUMPDEST PUSH2 0xEDB DUP4 PUSH2 0xC3A JUMP JUMPDEST SWAP2 POP PUSH1 0x20 DUP4 ADD CALLDATALOAD PUSH8 0xFFFFFFFFFFFFFFFF DUP1 DUP3 GT ISZERO PUSH2 0xEF8 JUMPI PUSH1 0x0 DUP1 REVERT JUMPDEST DUP2 DUP6 ADD SWAP2 POP DUP6 PUSH1 0x1F DUP4 ADD SLT PUSH2 0xF0C JUMPI PUSH1 0x0 DUP1 REVERT JUMPDEST DUP2 CALLDATALOAD DUP2 DUP2 GT ISZERO PUSH2 0xF1E JUMPI PUSH2 0xF1E PUSH2 0xEA9 JUMP JUMPDEST PUSH1 0x40 MLOAD PUSH1 0x1F DUP3 ADD PUSH1 0x1F NOT SWAP1 DUP2 AND PUSH1 0x3F ADD AND DUP2 ADD SWAP1 DUP4 DUP3 GT DUP2 DUP4 LT OR ISZERO PUSH2 0xF46 JUMPI PUSH2 0xF46 PUSH2 0xEA9 JUMP JUMPDEST DUP2 PUSH1 0x40 MSTORE DUP3 DUP2 MSTORE DUP9 PUSH1 0x20 DUP5 DUP8 ADD ADD GT ISZERO PUSH2 0xF5F JUMPI PUSH1 0x0 DUP1 REVERT JUMPDEST DUP3 PUSH1 0x20 DUP7 ADD PUSH1 0x20 DUP4 ADD CALLDATACOPY PUSH1 0x0 PUSH1 0x20 DUP5 DUP4 ADD ADD MSTORE DUP1 SWAP6 POP POP POP POP POP POP SWAP3 POP SWAP3 SWAP1 POP JUMP JUMPDEST PUSH1 0x20 DUP2 ADD PUSH2 0xF8F DUP3 DUP5 PUSH2 0xCA5 JUMP JUMPDEST SWAP3 SWAP2 POP POP JUMP JUMPDEST PUSH1 0x1 DUP2 DUP2 SHR SWAP1 DUP3 AND DUP1 PUSH2 0xFA9 JUMPI PUSH1 0x7F DUP3 AND SWAP2 POP JUMPDEST PUSH1 0x20 DUP3 LT DUP2 EQ ISZERO PUSH2 0xFCA JUMPI PUSH4 0x4E487B71 PUSH1 0xE0 SHL PUSH1 0x0 MSTORE PUSH1 0x22 PUSH1 0x4 MSTORE PUSH1 0x24 PUSH1 0x0 REVERT JUMPDEST POP SWAP2 SWAP1 POP JUMP JUMPDEST PUSH4 0x4E487B71 PUSH1 0xE0 SHL PUSH1 0x0 MSTORE PUSH1 0x11 PUSH1 0x4 MSTORE PUSH1 0x24 PUSH1 0x0 REVERT JUMPDEST PUSH1 0x0 DUP3 NOT DUP3 GT ISZERO PUSH2 0xFF9 JUMPI PUSH2 0xFF9 PUSH2 0xFD0 JUMP JUMPDEST POP ADD SWAP1 JUMP JUMPDEST PUSH1 0x0 DUP3 PUSH2 0x101B JUMPI PUSH4 0x4E487B71 PUSH1 0xE0 SHL PUSH1 0x0 MSTORE PUSH1 0x12 PUSH1 0x4 MSTORE PUSH1 0x24 PUSH1 0x0 REVERT JUMPDEST POP DIV SWAP1 JUMP JUMPDEST PUSH4 0x4E487B71 PUSH1 0xE0 SHL PUSH1 0x0 MSTORE PUSH1 0x32 PUSH1 0x4 MSTORE PUSH1 0x24 PUSH1 0x0 REVERT JUMPDEST PUSH1 0x0 PUSH1 0x0 NOT DUP3 EQ ISZERO PUSH2 0x104A JUMPI PUSH2 0x104A PUSH2 0xFD0 JUMP JUMPDEST POP PUSH1 0x1 ADD SWAP1 JUMP JUMPDEST PUSH1 0x0 DUP2 PUSH1 0x0 NOT DIV DUP4 GT DUP3 ISZERO ISZERO AND ISZERO PUSH2 0x106B JUMPI PUSH2 0x106B PUSH2 0xFD0 JUMP JUMPDEST POP MUL SWAP1 JUMP INVALID LOG2 PUSH5 0x6970667358 0x22 SLT KECCAK256 MULMOD 0xFB SWAP9 SWAP12 SWAP13 0x23 DUP12 0xAC 0x2A PUSH24 0x6979F4BCCF0FC90D6651AF30042DD85A329256A02E196473 PUSH16 0x6C634300080A0033A264697066735822 SLT KECCAK256 DUP13 PUSH18 0xCD5A0D19F153BDA22D88D3BCABF35267CC9C 0xA9 CALLER 0x4B SWAP5 0x4F 0xBA 0xA9 SWAP5 STOP LOG3 0x5E MSIZE PUSH5 0x736F6C6343 STOP ADDMOD EXP STOP CALLER ",
  "sha1": "35491893f37db4cc0a1987d61f195772d131283a",
  "source": "// SPDX-License-Identifier: GPL-3.0\n\npragma solidity >=0.6.6 <0.9.0;\n\nimport \"./Asset.sol\";\n\n// store a map of asset contracts\n// onboard assets to master if not available\n\ncontract CommunityAudits {\n    Asset[] public assetContracts;\n    mapping(address => address) public assetContractsMap;\n\n    function create(\n        address _contract,\n        string memory _name,\n        string memory _symbol,\n        string memory _imageURL,\n        CATEGORY _category\n    ) public {\n        Asset newContract = new Asset(\n            _contract,\n            _name,\n            _symbol,\n            _imageURL,\n            _category\n        );\n        assetContracts.push(newContract);\n        assetContractsMap[_contract] = address(newContract);\n    }\n\n    modifier checkAsset(address _contract) {\n        require(\n            assetContractsMap[_contract] != address(0),\n            \"Sorry this asset is not available, Please consider adding it to the system.\"\n        );\n        _;\n    }\n\n    function getData(address _contract)\n        public\n        view\n        checkAsset(_contract)\n        returns (Data memory)\n    {\n        Asset assetContract = Asset(address(assetContractsMap[_contract]));\n        return assetContract.data();\n    }\n\n    function getComments(address _contract)\n        public\n        view\n        checkAsset(_contract)\n        returns (Comment[] memory)\n    {\n        Asset assetContract = Asset(address(assetContractsMap[_contract]));\n        return assetContract.getComments();\n    }\n\n    function rateAsset(\n        address _contract,\n        uint256 _technicalImplementation,\n        uint256 _trustFactor,\n        uint256 _founderReliability\n    ) public checkAsset(_contract) {\n        Asset assetContract = Asset(address(assetContractsMap[_contract]));\n        assetContract.rate(\n            msg.sender,\n            _technicalImplementation,\n            _trustFactor,\n            _founderReliability\n        );\n    }\n\n    function commentAsset(\n        address _contract,\n        string memory message\n    ) public checkAsset(_contract) {\n        Asset assetContract = Asset(address(assetContractsMap[_contract]));\n        assetContract.postComment(msg.sender,message);\n    }\n\n    function voteComment(\n        address _contract,\n        uint256 _comment,\n        VOTE _vote\n    ) public checkAsset(_contract) {\n        Asset assetContract = Asset(address(assetContractsMap[_contract]));\n        assetContract.voteComment(msg.sender,_comment,_vote);\n    }\n}\n",
  "sourcePath": "contracts/CommunityAudits.sol",
  "type": "contract"
}