{
  "abi": [
    {
      "inputs": [
        {
          "internalType": "uint256",
          "name": "",
          "type": "uint256"
        }
      ],
      "name": "assetContracts",
      "outputs": [
        {
          "internalType": "contract Asset",
          "name": "",
          "type": "address"
        }
      ],
      "stateMutability": "view",
      "type": "function"
    },
    {
      "inputs": [
        {
          "internalType": "address",
          "name": "",
          "type": "address"
        }
      ],
      "name": "assetContractsMap",
      "outputs": [
        {
          "internalType": "address",
          "name": "",
          "type": "address"
        }
      ],
      "stateMutability": "view",
      "type": "function"
    },
    {
      "inputs": [
        {
          "internalType": "address",
          "name": "_contract",
          "type": "address"
        },
        {
          "internalType": "string",
          "name": "_name",
          "type": "string"
        },
        {
          "internalType": "string",
          "name": "_symbol",
          "type": "string"
        },
        {
          "internalType": "string",
          "name": "_imageURL",
          "type": "string"
        },
        {
          "internalType": "enum CATEGORY",
          "name": "_category",
          "type": "uint8"
        }
      ],
      "name": "create",
      "outputs": [],
      "stateMutability": "nonpayable",
      "type": "function"
    },
    {
      "inputs": [
        {
          "internalType": "address",
          "name": "_contract",
          "type": "address"
        }
      ],
      "name": "getData",
      "outputs": [
        {
          "components": [
            {
              "internalType": "address",
              "name": "assetAddress",
              "type": "address"
            },
            {
              "internalType": "string",
              "name": "name",
              "type": "string"
            },
            {
              "internalType": "string",
              "name": "symbol",
              "type": "string"
            },
            {
              "internalType": "string",
              "name": "imageURL",
              "type": "string"
            },
            {
              "internalType": "enum CATEGORY",
              "name": "category",
              "type": "uint8"
            },
            {
              "components": [
                {
                  "internalType": "uint256",
                  "name": "overallScore",
                  "type": "uint256"
                },
                {
                  "internalType": "uint256",
                  "name": "technicalImplementation",
                  "type": "uint256"
                },
                {
                  "internalType": "uint256",
                  "name": "trustFactor",
                  "type": "uint256"
                },
                {
                  "internalType": "uint256",
                  "name": "founderReliability",
                  "type": "uint256"
                }
              ],
              "internalType": "struct Rating",
              "name": "rating",
              "type": "tuple"
            }
          ],
          "internalType": "struct Data",
          "name": "",
          "type": "tuple"
        }
      ],
      "stateMutability": "view",
      "type": "function"
    },
    {
      "inputs": [
        {
          "internalType": "address",
          "name": "_contract",
          "type": "address"
        },
        {
          "internalType": "uint256",
          "name": "_technicalImplementation",
          "type": "uint256"
        },
        {
          "internalType": "uint256",
          "name": "_trustFactor",
          "type": "uint256"
        },
        {
          "internalType": "uint256",
          "name": "_founderReliability",
          "type": "uint256"
        }
      ],
      "name": "rateAsset",
      "outputs": [],
      "stateMutability": "nonpayable",
      "type": "function"
    }
  ],
  "bytecode": "608060405234801561001057600080fd5b506116e4806100206000396000f3fe60806040523480156200001157600080fd5b50600436106200005e5760003560e01c806338266b2214620000635780635123fa4a14620000925780635bcb18a314620000d7578063812eabe014620000f05780638e5fa1db1462000107575b600080fd5b6200007a6200007436600462000438565b6200011e565b604051620000899190620004f9565b60405180910390f35b620000be620000a336600462000438565b6001602052600090815260409020546001600160a01b031681565b6040516001600160a01b03909116815260200162000089565b620000ee620000e8366004620006c4565b620001f4565b005b620000ee6200010136600462000782565b620002a1565b620000be62000118366004620007c0565b6200036a565b6200012862000395565b6001600160a01b038083166000908152600160205260409020548391166200016d5760405162461bcd60e51b81526004016200016490620007da565b60405180910390fd5b6001600160a01b038084166000908152600160205260408082205481516339ea509d60e11b8152915193169283926373d4a13a92600480820193918290030181865afa158015620001c2573d6000803e3d6000fd5b505050506040513d6000823e601f3d908101601f19168201604052620001ec919081019062000920565b949350505050565b60008585858585604051620002099062000411565b6200021995949392919062000a1e565b604051809103906000f08015801562000236573d6000803e3d6000fd5b5060008054600181810183557f290decd9548b62a8d60345a988386fc84ba6bc95484008f6362f93160ef3e56390910180546001600160a01b039485166001600160a01b03199182168117909255999093168252602052604090208054909716179095555050505050565b6001600160a01b03808516600090815260016020526040902054859116620002dd5760405162461bcd60e51b81526004016200016490620007da565b6001600160a01b0385811660009081526001602052604090819020549051633073bdcf60e11b815233600482015260248101879052604481018690526064810185905291169081906360e77b9e90608401600060405180830381600087803b1580156200034957600080fd5b505af11580156200035e573d6000803e3d6000fd5b50505050505050505050565b600081815481106200037b57600080fd5b6000918252602090912001546001600160a01b0316905081565b6040518060c0016040528060006001600160a01b0316815260200160608152602001606081526020016060815260200160006002811115620003db57620003db620004c0565b81526020016200040c6040518060800160405280600081526020016000815260200160008152602001600081525090565b905290565b610c248062000a8b83390190565b6001600160a01b03811681146200043557600080fd5b50565b6000602082840312156200044b57600080fd5b813562000458816200041f565b9392505050565b60005b838110156200047c57818101518382015260200162000462565b838111156200048c576000848401525b50505050565b60008151808452620004ac8160208601602086016200045f565b601f01601f19169290920160200192915050565b634e487b7160e01b600052602160045260246000fd5b60038110620004f557634e487b7160e01b600052602160045260246000fd5b9052565b602080825282516001600160a01b03168282015282015161012060408301819052600091906200052e61014085018362000492565b91506040850151601f19808685030160608701526200054e848362000492565b93506060870151915080868503016080870152506200056e838262000492565b92505060808501516200058560a0860182620004d6565b5060a09490940151805160c0850152602081015160e085015260408101516101008501526060015192909301919091525090565b634e487b7160e01b600052604160045260246000fd5b60405160c0810167ffffffffffffffff81118282101715620005f557620005f5620005b9565b60405290565b604051601f8201601f1916810167ffffffffffffffff81118282101715620006275762000627620005b9565b604052919050565b600067ffffffffffffffff8211156200064c576200064c620005b9565b50601f01601f191660200190565b600082601f8301126200066c57600080fd5b8135620006836200067d826200062f565b620005fb565b8181528460208386010111156200069957600080fd5b816020850160208301376000918101602001919091529392505050565b600381106200043557600080fd5b600080600080600060a08688031215620006dd57600080fd5b8535620006ea816200041f565b9450602086013567ffffffffffffffff808211156200070857600080fd5b6200071689838a016200065a565b955060408801359150808211156200072d57600080fd5b6200073b89838a016200065a565b945060608801359150808211156200075257600080fd5b5062000761888289016200065a565b92505060808601356200077481620006b6565b809150509295509295909350565b600080600080608085870312156200079957600080fd5b8435620007a6816200041f565b966020860135965060408601359560600135945092505050565b600060208284031215620007d357600080fd5b5035919050565b6020808252604b908201527f536f7272792074686973206173736574206973206e6f7420617661696c61626c60408201527f652c20506c6561736520636f6e736964657220616464696e6720697420746f2060608201526a3a34329039bcb9ba32b69760a91b608082015260a00190565b805162000858816200041f565b919050565b600082601f8301126200086f57600080fd5b8151620008806200067d826200062f565b8181528460208386010111156200089657600080fd5b620001ec8260208301602087016200045f565b80516200085881620006b6565b600060808284031215620008c957600080fd5b6040516080810181811067ffffffffffffffff82111715620008ef57620008ef620005b9565b8060405250809150825181526020830151602082015260408301516040820152606083015160608201525092915050565b6000602082840312156200093357600080fd5b815167ffffffffffffffff808211156200094c57600080fd5b9083019061012082860312156200096257600080fd5b6200096c620005cf565b62000977836200084b565b81526020830151828111156200098c57600080fd5b6200099a878286016200085d565b602083015250604083015182811115620009b357600080fd5b620009c1878286016200085d565b604083015250606083015182811115620009da57600080fd5b620009e8878286016200085d565b606083015250620009fc60808401620008a9565b608082015262000a108660a08501620008b6565b60a082015295945050505050565b6001600160a01b038616815260a06020820181905260009062000a449083018762000492565b828103604084015262000a58818762000492565b9050828103606084015262000a6e818662000492565b91505062000a806080830184620004d6565b969550505050505056fe60806040523480156200001157600080fd5b5060405162000c2438038062000c24833981016040819052620000349162000236565b600080546001600160a01b0319166001600160a01b038716179055835162000064906001906020870190620000c3565b5082516200007a906002906020860190620000c3565b50815162000090906003906020850190620000c3565b506004805482919060ff19166001836002811115620000b357620000b362000302565b0217905550505050505062000355565b828054620000d19062000318565b90600052602060002090601f016020900481019282620000f5576000855562000140565b82601f106200011057805160ff191683800117855562000140565b8280016001018555821562000140579182015b828111156200014057825182559160200191906001019062000123565b506200014e92915062000152565b5090565b5b808211156200014e576000815560010162000153565b634e487b7160e01b600052604160045260246000fd5b600082601f8301126200019157600080fd5b81516001600160401b0380821115620001ae57620001ae62000169565b604051601f8301601f19908116603f01168101908282118183101715620001d957620001d962000169565b81604052838152602092508683858801011115620001f657600080fd5b600091505b838210156200021a5785820183015181830184015290820190620001fb565b838211156200022c5760008385830101525b9695505050505050565b600080600080600060a086880312156200024f57600080fd5b85516001600160a01b03811681146200026757600080fd5b60208701519095506001600160401b03808211156200028557600080fd5b6200029389838a016200017f565b95506040880151915080821115620002aa57600080fd5b620002b889838a016200017f565b94506060880151915080821115620002cf57600080fd5b50620002de888289016200017f565b925050608086015160038110620002f457600080fd5b809150509295509295909350565b634e487b7160e01b600052602160045260246000fd5b600181811c908216806200032d57607f821691505b602082108114156200034f57634e487b7160e01b600052602260045260246000fd5b50919050565b6108bf80620003656000396000f3fe608060405234801561001057600080fd5b50600436106100885760003560e01c806380f474f61161005b57806380f474f61461010057806395d89b4114610136578063b90497e01461013e578063ef430aa61461014657600080fd5b806306fdde031461008d5780631ba46cfd146100ab57806360e77b9e146100d657806373d4a13a146100eb575b600080fd5b610095610160565b6040516100a2919061067a565b60405180910390f35b6000546100be906001600160a01b031681565b6040516001600160a01b0390911681526020016100a2565b6100e96100e4366004610694565b6101ee565b005b6100f3610339565b6040516100a29190610713565b6005546006546007546008546101169392919084565b6040805194855260208501939093529183015260608201526080016100a2565b610095610567565b610095610574565b6004546101539060ff1681565b6040516100a291906107cb565b6001805461016d906107df565b80601f0160208091040260200160405190810160405280929190818152602001828054610199906107df565b80156101e65780601f106101bb576101008083540402835291602001916101e6565b820191906000526020600020905b8154815290600101906020018083116101c957829003601f168201915b505050505081565b6001600160a01b0384166000908152600a6020526040902054849060ff161561025d5760405162461bcd60e51b815260206004820152601960248201527f596f752063616e206f6e6c792072617465206f6e636521212100000000000000604482015260640160405180910390fd5b6001600160a01b0381166000908152600a60205260409020805460ff19166001179055600954600654610291908683610581565b6006556007546102a2908583610581565b6007556008546102b3908483610581565b60085560006003846102c58789610830565b6102cf9190610830565b6102d99190610848565b90506102eb6005600001548284610581565b6005555050600980546001810182556000919091527f6e1540171b6c0c960b71a7020d9f60077f6af931a8bbf590da0223dacf75c7af0180546001600160a01b031916331790555050505050565b6103416105b5565b6040805160c08101909152600080546001600160a01b0316825260018054919291602083019190610371906107df565b80601f016020809104026020016040519081016040528092919081815260200182805461039d906107df565b80156103ea5780601f106103bf576101008083540402835291602001916103ea565b820191906000526020600020905b8154815290600101906020018083116103cd57829003601f168201915b5050505050815260200160028054610401906107df565b80601f016020809104026020016040519081016040528092919081815260200182805461042d906107df565b801561047a5780601f1061044f5761010080835404028352916020019161047a565b820191906000526020600020905b81548152906001019060200180831161045d57829003601f168201915b5050505050815260200160038054610491906107df565b80601f01602080910402602001604051908101604052809291908181526020018280546104bd906107df565b801561050a5780601f106104df5761010080835404028352916020019161050a565b820191906000526020600020905b8154815290600101906020018083116104ed57829003601f168201915b505050918352505060045460209091019060ff16600281111561052f5761052f6106db565b815260408051608081018252600554815260065460208281019190915260075492820192909252600854606082015291015292915050565b6002805461016d906107df565b6003805461016d906107df565b600061058e826001610830565b83610599848761086a565b6105a39190610830565b6105ad9190610848565b949350505050565b6040518060c0016040528060006001600160a01b03168152602001606081526020016060815260200160608152602001600060028111156105f8576105f86106db565b81526020016106286040518060800160405280600081526020016000815260200160008152602001600081525090565b905290565b6000815180845260005b8181101561065357602081850181015186830182015201610637565b81811115610665576000602083870101525b50601f01601f19169290920160200192915050565b60208152600061068d602083018461062d565b9392505050565b600080600080608085870312156106aa57600080fd5b84356001600160a01b03811681146106c157600080fd5b966020860135965060408601359560600135945092505050565b634e487b7160e01b600052602160045260246000fd5b6003811061070f57634e487b7160e01b600052602160045260246000fd5b9052565b602080825282516001600160a01b031682820152820151610120604083018190526000919061074661014085018361062d565b91506040850151601f1980868503016060870152610764848361062d565b9350606087015191508086850301608087015250610782838261062d565b925050608085015161079760a08601826106f1565b5060a09490940151805160c0850152602081015160e085015260408101516101008501526060015192909301919091525090565b602081016107d982846106f1565b92915050565b600181811c908216806107f357607f821691505b6020821081141561081457634e487b7160e01b600052602260045260246000fd5b50919050565b634e487b7160e01b600052601160045260246000fd5b600082198211156108435761084361081a565b500190565b60008261086557634e487b7160e01b600052601260045260246000fd5b500490565b60008160001904831182151516156108845761088461081a565b50029056fea2646970667358221220e02461181c322312b453a57816650851697a9934a01d2219893d83446ce76e3564736f6c634300080a0033a2646970667358221220e4a931e095ece8ac4f0b8aa051b6f0bcdb303d899b2f3bf85cc034844e3793d064736f6c634300080a0033",
  "bytecodeSha1": "4002330fd7e542a879360fb34b66b508a3e009c9",
  "compiler": {
    "evm_version": "istanbul",
    "optimizer": {
      "enabled": true,
      "runs": 200
    },
    "version": "0.8.10+commit.fc410830"
  },
  "contractName": "CommunityAudits",
  "language": "Solidity",
  "natspec": {
    "kind": "dev",
    "methods": {},
    "version": 1
  },
  "opcodes": "PUSH1 0x80 PUSH1 0x40 MSTORE CALLVALUE DUP1 ISZERO PUSH3 0x11 JUMPI PUSH1 0x0 DUP1 REVERT JUMPDEST POP PUSH1 0x4 CALLDATASIZE LT PUSH3 0x5E JUMPI PUSH1 0x0 CALLDATALOAD PUSH1 0xE0 SHR DUP1 PUSH4 0x38266B22 EQ PUSH3 0x63 JUMPI DUP1 PUSH4 0x5123FA4A EQ PUSH3 0x92 JUMPI DUP1 PUSH4 0x5BCB18A3 EQ PUSH3 0xD7 JUMPI DUP1 PUSH4 0x812EABE0 EQ PUSH3 0xF0 JUMPI DUP1 PUSH4 0x8E5FA1DB EQ PUSH3 0x107 JUMPI JUMPDEST PUSH1 0x0 DUP1 REVERT JUMPDEST PUSH3 0x7A PUSH3 0x74 CALLDATASIZE PUSH1 0x4 PUSH3 0x438 JUMP JUMPDEST PUSH3 0x11E JUMP JUMPDEST PUSH1 0x40 MLOAD PUSH3 0x89 SWAP2 SWAP1 PUSH3 0x4F9 JUMP JUMPDEST PUSH1 0x40 MLOAD DUP1 SWAP2 SUB SWAP1 RETURN JUMPDEST PUSH3 0xBE PUSH3 0xA3 CALLDATASIZE PUSH1 0x4 PUSH3 0x438 JUMP JUMPDEST PUSH1 0x1 PUSH1 0x20 MSTORE PUSH1 0x0 SWAP1 DUP2 MSTORE PUSH1 0x40 SWAP1 KECCAK256 SLOAD PUSH1 0x1 PUSH1 0x1 PUSH1 0xA0 SHL SUB AND DUP2 JUMP JUMPDEST PUSH1 0x40 MLOAD PUSH1 0x1 PUSH1 0x1 PUSH1 0xA0 SHL SUB SWAP1 SWAP2 AND DUP2 MSTORE PUSH1 0x20 ADD PUSH3 0x89 JUMP JUMPDEST PUSH3 0xEE PUSH3 0xE8 CALLDATASIZE PUSH1 0x4 PUSH3 0x6C4 JUMP JUMPDEST PUSH3 0x1F4 JUMP JUMPDEST STOP JUMPDEST PUSH3 0xEE PUSH3 0x101 CALLDATASIZE PUSH1 0x4 PUSH3 0x782 JUMP JUMPDEST PUSH3 0x2A1 JUMP JUMPDEST PUSH3 0xBE PUSH3 0x118 CALLDATASIZE PUSH1 0x4 PUSH3 0x7C0 JUMP JUMPDEST PUSH3 0x36A JUMP JUMPDEST PUSH3 0x128 PUSH3 0x395 JUMP JUMPDEST PUSH1 0x1 PUSH1 0x1 PUSH1 0xA0 SHL SUB DUP1 DUP4 AND PUSH1 0x0 SWAP1 DUP2 MSTORE PUSH1 0x1 PUSH1 0x20 MSTORE PUSH1 0x40 SWAP1 KECCAK256 SLOAD DUP4 SWAP2 AND PUSH3 0x16D JUMPI PUSH1 0x40 MLOAD PUSH3 0x461BCD PUSH1 0xE5 SHL DUP2 MSTORE PUSH1 0x4 ADD PUSH3 0x164 SWAP1 PUSH3 0x7DA JUMP JUMPDEST PUSH1 0x40 MLOAD DUP1 SWAP2 SUB SWAP1 REVERT JUMPDEST PUSH1 0x1 PUSH1 0x1 PUSH1 0xA0 SHL SUB DUP1 DUP5 AND PUSH1 0x0 SWAP1 DUP2 MSTORE PUSH1 0x1 PUSH1 0x20 MSTORE PUSH1 0x40 DUP1 DUP3 KECCAK256 SLOAD DUP2 MLOAD PUSH4 0x39EA509D PUSH1 0xE1 SHL DUP2 MSTORE SWAP2 MLOAD SWAP4 AND SWAP3 DUP4 SWAP3 PUSH4 0x73D4A13A SWAP3 PUSH1 0x4 DUP1 DUP3 ADD SWAP4 SWAP2 DUP3 SWAP1 SUB ADD DUP2 DUP7 GAS STATICCALL ISZERO DUP1 ISZERO PUSH3 0x1C2 JUMPI RETURNDATASIZE PUSH1 0x0 DUP1 RETURNDATACOPY RETURNDATASIZE PUSH1 0x0 REVERT JUMPDEST POP POP POP POP PUSH1 0x40 MLOAD RETURNDATASIZE PUSH1 0x0 DUP3 RETURNDATACOPY PUSH1 0x1F RETURNDATASIZE SWAP1 DUP2 ADD PUSH1 0x1F NOT AND DUP3 ADD PUSH1 0x40 MSTORE PUSH3 0x1EC SWAP2 SWAP1 DUP2 ADD SWAP1 PUSH3 0x920 JUMP JUMPDEST SWAP5 SWAP4 POP POP POP POP JUMP JUMPDEST PUSH1 0x0 DUP6 DUP6 DUP6 DUP6 DUP6 PUSH1 0x40 MLOAD PUSH3 0x209 SWAP1 PUSH3 0x411 JUMP JUMPDEST PUSH3 0x219 SWAP6 SWAP5 SWAP4 SWAP3 SWAP2 SWAP1 PUSH3 0xA1E JUMP JUMPDEST PUSH1 0x40 MLOAD DUP1 SWAP2 SUB SWAP1 PUSH1 0x0 CREATE DUP1 ISZERO DUP1 ISZERO PUSH3 0x236 JUMPI RETURNDATASIZE PUSH1 0x0 DUP1 RETURNDATACOPY RETURNDATASIZE PUSH1 0x0 REVERT JUMPDEST POP PUSH1 0x0 DUP1 SLOAD PUSH1 0x1 DUP2 DUP2 ADD DUP4 SSTORE PUSH32 0x290DECD9548B62A8D60345A988386FC84BA6BC95484008F6362F93160EF3E563 SWAP1 SWAP2 ADD DUP1 SLOAD PUSH1 0x1 PUSH1 0x1 PUSH1 0xA0 SHL SUB SWAP5 DUP6 AND PUSH1 0x1 PUSH1 0x1 PUSH1 0xA0 SHL SUB NOT SWAP2 DUP3 AND DUP2 OR SWAP1 SWAP3 SSTORE SWAP10 SWAP1 SWAP4 AND DUP3 MSTORE PUSH1 0x20 MSTORE PUSH1 0x40 SWAP1 KECCAK256 DUP1 SLOAD SWAP1 SWAP8 AND OR SWAP1 SWAP6 SSTORE POP POP POP POP POP JUMP JUMPDEST PUSH1 0x1 PUSH1 0x1 PUSH1 0xA0 SHL SUB DUP1 DUP6 AND PUSH1 0x0 SWAP1 DUP2 MSTORE PUSH1 0x1 PUSH1 0x20 MSTORE PUSH1 0x40 SWAP1 KECCAK256 SLOAD DUP6 SWAP2 AND PUSH3 0x2DD JUMPI PUSH1 0x40 MLOAD PUSH3 0x461BCD PUSH1 0xE5 SHL DUP2 MSTORE PUSH1 0x4 ADD PUSH3 0x164 SWAP1 PUSH3 0x7DA JUMP JUMPDEST PUSH1 0x1 PUSH1 0x1 PUSH1 0xA0 SHL SUB DUP6 DUP2 AND PUSH1 0x0 SWAP1 DUP2 MSTORE PUSH1 0x1 PUSH1 0x20 MSTORE PUSH1 0x40 SWAP1 DUP2 SWAP1 KECCAK256 SLOAD SWAP1 MLOAD PUSH4 0x3073BDCF PUSH1 0xE1 SHL DUP2 MSTORE CALLER PUSH1 0x4 DUP3 ADD MSTORE PUSH1 0x24 DUP2 ADD DUP8 SWAP1 MSTORE PUSH1 0x44 DUP2 ADD DUP7 SWAP1 MSTORE PUSH1 0x64 DUP2 ADD DUP6 SWAP1 MSTORE SWAP2 AND SWAP1 DUP2 SWAP1 PUSH4 0x60E77B9E SWAP1 PUSH1 0x84 ADD PUSH1 0x0 PUSH1 0x40 MLOAD DUP1 DUP4 SUB DUP2 PUSH1 0x0 DUP8 DUP1 EXTCODESIZE ISZERO DUP1 ISZERO PUSH3 0x349 JUMPI PUSH1 0x0 DUP1 REVERT JUMPDEST POP GAS CALL ISZERO DUP1 ISZERO PUSH3 0x35E JUMPI RETURNDATASIZE PUSH1 0x0 DUP1 RETURNDATACOPY RETURNDATASIZE PUSH1 0x0 REVERT JUMPDEST POP POP POP POP POP POP POP POP POP POP JUMP JUMPDEST PUSH1 0x0 DUP2 DUP2 SLOAD DUP2 LT PUSH3 0x37B JUMPI PUSH1 0x0 DUP1 REVERT JUMPDEST PUSH1 0x0 SWAP2 DUP3 MSTORE PUSH1 0x20 SWAP1 SWAP2 KECCAK256 ADD SLOAD PUSH1 0x1 PUSH1 0x1 PUSH1 0xA0 SHL SUB AND SWAP1 POP DUP2 JUMP JUMPDEST PUSH1 0x40 MLOAD DUP1 PUSH1 0xC0 ADD PUSH1 0x40 MSTORE DUP1 PUSH1 0x0 PUSH1 0x1 PUSH1 0x1 PUSH1 0xA0 SHL SUB AND DUP2 MSTORE PUSH1 0x20 ADD PUSH1 0x60 DUP2 MSTORE PUSH1 0x20 ADD PUSH1 0x60 DUP2 MSTORE PUSH1 0x20 ADD PUSH1 0x60 DUP2 MSTORE PUSH1 0x20 ADD PUSH1 0x0 PUSH1 0x2 DUP2 GT ISZERO PUSH3 0x3DB JUMPI PUSH3 0x3DB PUSH3 0x4C0 JUMP JUMPDEST DUP2 MSTORE PUSH1 0x20 ADD PUSH3 0x40C PUSH1 0x40 MLOAD DUP1 PUSH1 0x80 ADD PUSH1 0x40 MSTORE DUP1 PUSH1 0x0 DUP2 MSTORE PUSH1 0x20 ADD PUSH1 0x0 DUP2 MSTORE PUSH1 0x20 ADD PUSH1 0x0 DUP2 MSTORE PUSH1 0x20 ADD PUSH1 0x0 DUP2 MSTORE POP SWAP1 JUMP JUMPDEST SWAP1 MSTORE SWAP1 JUMP JUMPDEST PUSH2 0xC24 DUP1 PUSH3 0xA8B DUP4 CODECOPY ADD SWAP1 JUMP JUMPDEST PUSH1 0x1 PUSH1 0x1 PUSH1 0xA0 SHL SUB DUP2 AND DUP2 EQ PUSH3 0x435 JUMPI PUSH1 0x0 DUP1 REVERT JUMPDEST POP JUMP JUMPDEST PUSH1 0x0 PUSH1 0x20 DUP3 DUP5 SUB SLT ISZERO PUSH3 0x44B JUMPI PUSH1 0x0 DUP1 REVERT JUMPDEST DUP2 CALLDATALOAD PUSH3 0x458 DUP2 PUSH3 0x41F JUMP JUMPDEST SWAP4 SWAP3 POP POP POP JUMP JUMPDEST PUSH1 0x0 JUMPDEST DUP4 DUP2 LT ISZERO PUSH3 0x47C JUMPI DUP2 DUP2 ADD MLOAD DUP4 DUP3 ADD MSTORE PUSH1 0x20 ADD PUSH3 0x462 JUMP JUMPDEST DUP4 DUP2 GT ISZERO PUSH3 0x48C JUMPI PUSH1 0x0 DUP5 DUP5 ADD MSTORE JUMPDEST POP POP POP POP JUMP JUMPDEST PUSH1 0x0 DUP2 MLOAD DUP1 DUP5 MSTORE PUSH3 0x4AC DUP2 PUSH1 0x20 DUP7 ADD PUSH1 0x20 DUP7 ADD PUSH3 0x45F JUMP JUMPDEST PUSH1 0x1F ADD PUSH1 0x1F NOT AND SWAP3 SWAP1 SWAP3 ADD PUSH1 0x20 ADD SWAP3 SWAP2 POP POP JUMP JUMPDEST PUSH4 0x4E487B71 PUSH1 0xE0 SHL PUSH1 0x0 MSTORE PUSH1 0x21 PUSH1 0x4 MSTORE PUSH1 0x24 PUSH1 0x0 REVERT JUMPDEST PUSH1 0x3 DUP2 LT PUSH3 0x4F5 JUMPI PUSH4 0x4E487B71 PUSH1 0xE0 SHL PUSH1 0x0 MSTORE PUSH1 0x21 PUSH1 0x4 MSTORE PUSH1 0x24 PUSH1 0x0 REVERT JUMPDEST SWAP1 MSTORE JUMP JUMPDEST PUSH1 0x20 DUP1 DUP3 MSTORE DUP3 MLOAD PUSH1 0x1 PUSH1 0x1 PUSH1 0xA0 SHL SUB AND DUP3 DUP3 ADD MSTORE DUP3 ADD MLOAD PUSH2 0x120 PUSH1 0x40 DUP4 ADD DUP2 SWAP1 MSTORE PUSH1 0x0 SWAP2 SWAP1 PUSH3 0x52E PUSH2 0x140 DUP6 ADD DUP4 PUSH3 0x492 JUMP JUMPDEST SWAP2 POP PUSH1 0x40 DUP6 ADD MLOAD PUSH1 0x1F NOT DUP1 DUP7 DUP6 SUB ADD PUSH1 0x60 DUP8 ADD MSTORE PUSH3 0x54E DUP5 DUP4 PUSH3 0x492 JUMP JUMPDEST SWAP4 POP PUSH1 0x60 DUP8 ADD MLOAD SWAP2 POP DUP1 DUP7 DUP6 SUB ADD PUSH1 0x80 DUP8 ADD MSTORE POP PUSH3 0x56E DUP4 DUP3 PUSH3 0x492 JUMP JUMPDEST SWAP3 POP POP PUSH1 0x80 DUP6 ADD MLOAD PUSH3 0x585 PUSH1 0xA0 DUP7 ADD DUP3 PUSH3 0x4D6 JUMP JUMPDEST POP PUSH1 0xA0 SWAP5 SWAP1 SWAP5 ADD MLOAD DUP1 MLOAD PUSH1 0xC0 DUP6 ADD MSTORE PUSH1 0x20 DUP2 ADD MLOAD PUSH1 0xE0 DUP6 ADD MSTORE PUSH1 0x40 DUP2 ADD MLOAD PUSH2 0x100 DUP6 ADD MSTORE PUSH1 0x60 ADD MLOAD SWAP3 SWAP1 SWAP4 ADD SWAP2 SWAP1 SWAP2 MSTORE POP SWAP1 JUMP JUMPDEST PUSH4 0x4E487B71 PUSH1 0xE0 SHL PUSH1 0x0 MSTORE PUSH1 0x41 PUSH1 0x4 MSTORE PUSH1 0x24 PUSH1 0x0 REVERT JUMPDEST PUSH1 0x40 MLOAD PUSH1 0xC0 DUP2 ADD PUSH8 0xFFFFFFFFFFFFFFFF DUP2 GT DUP3 DUP3 LT OR ISZERO PUSH3 0x5F5 JUMPI PUSH3 0x5F5 PUSH3 0x5B9 JUMP JUMPDEST PUSH1 0x40 MSTORE SWAP1 JUMP JUMPDEST PUSH1 0x40 MLOAD PUSH1 0x1F DUP3 ADD PUSH1 0x1F NOT AND DUP2 ADD PUSH8 0xFFFFFFFFFFFFFFFF DUP2 GT DUP3 DUP3 LT OR ISZERO PUSH3 0x627 JUMPI PUSH3 0x627 PUSH3 0x5B9 JUMP JUMPDEST PUSH1 0x40 MSTORE SWAP2 SWAP1 POP JUMP JUMPDEST PUSH1 0x0 PUSH8 0xFFFFFFFFFFFFFFFF DUP3 GT ISZERO PUSH3 0x64C JUMPI PUSH3 0x64C PUSH3 0x5B9 JUMP JUMPDEST POP PUSH1 0x1F ADD PUSH1 0x1F NOT AND PUSH1 0x20 ADD SWAP1 JUMP JUMPDEST PUSH1 0x0 DUP3 PUSH1 0x1F DUP4 ADD SLT PUSH3 0x66C JUMPI PUSH1 0x0 DUP1 REVERT JUMPDEST DUP2 CALLDATALOAD PUSH3 0x683 PUSH3 0x67D DUP3 PUSH3 0x62F JUMP JUMPDEST PUSH3 0x5FB JUMP JUMPDEST DUP2 DUP2 MSTORE DUP5 PUSH1 0x20 DUP4 DUP7 ADD ADD GT ISZERO PUSH3 0x699 JUMPI PUSH1 0x0 DUP1 REVERT JUMPDEST DUP2 PUSH1 0x20 DUP6 ADD PUSH1 0x20 DUP4 ADD CALLDATACOPY PUSH1 0x0 SWAP2 DUP2 ADD PUSH1 0x20 ADD SWAP2 SWAP1 SWAP2 MSTORE SWAP4 SWAP3 POP POP POP JUMP JUMPDEST PUSH1 0x3 DUP2 LT PUSH3 0x435 JUMPI PUSH1 0x0 DUP1 REVERT JUMPDEST PUSH1 0x0 DUP1 PUSH1 0x0 DUP1 PUSH1 0x0 PUSH1 0xA0 DUP7 DUP9 SUB SLT ISZERO PUSH3 0x6DD JUMPI PUSH1 0x0 DUP1 REVERT JUMPDEST DUP6 CALLDATALOAD PUSH3 0x6EA DUP2 PUSH3 0x41F JUMP JUMPDEST SWAP5 POP PUSH1 0x20 DUP7 ADD CALLDATALOAD PUSH8 0xFFFFFFFFFFFFFFFF DUP1 DUP3 GT ISZERO PUSH3 0x708 JUMPI PUSH1 0x0 DUP1 REVERT JUMPDEST PUSH3 0x716 DUP10 DUP4 DUP11 ADD PUSH3 0x65A JUMP JUMPDEST SWAP6 POP PUSH1 0x40 DUP9 ADD CALLDATALOAD SWAP2 POP DUP1 DUP3 GT ISZERO PUSH3 0x72D JUMPI PUSH1 0x0 DUP1 REVERT JUMPDEST PUSH3 0x73B DUP10 DUP4 DUP11 ADD PUSH3 0x65A JUMP JUMPDEST SWAP5 POP PUSH1 0x60 DUP9 ADD CALLDATALOAD SWAP2 POP DUP1 DUP3 GT ISZERO PUSH3 0x752 JUMPI PUSH1 0x0 DUP1 REVERT JUMPDEST POP PUSH3 0x761 DUP9 DUP3 DUP10 ADD PUSH3 0x65A JUMP JUMPDEST SWAP3 POP POP PUSH1 0x80 DUP7 ADD CALLDATALOAD PUSH3 0x774 DUP2 PUSH3 0x6B6 JUMP JUMPDEST DUP1 SWAP2 POP POP SWAP3 SWAP6 POP SWAP3 SWAP6 SWAP1 SWAP4 POP JUMP JUMPDEST PUSH1 0x0 DUP1 PUSH1 0x0 DUP1 PUSH1 0x80 DUP6 DUP8 SUB SLT ISZERO PUSH3 0x799 JUMPI PUSH1 0x0 DUP1 REVERT JUMPDEST DUP5 CALLDATALOAD PUSH3 0x7A6 DUP2 PUSH3 0x41F JUMP JUMPDEST SWAP7 PUSH1 0x20 DUP7 ADD CALLDATALOAD SWAP7 POP PUSH1 0x40 DUP7 ADD CALLDATALOAD SWAP6 PUSH1 0x60 ADD CALLDATALOAD SWAP5 POP SWAP3 POP POP POP JUMP JUMPDEST PUSH1 0x0 PUSH1 0x20 DUP3 DUP5 SUB SLT ISZERO PUSH3 0x7D3 JUMPI PUSH1 0x0 DUP1 REVERT JUMPDEST POP CALLDATALOAD SWAP2 SWAP1 POP JUMP JUMPDEST PUSH1 0x20 DUP1 DUP3 MSTORE PUSH1 0x4B SWAP1 DUP3 ADD MSTORE PUSH32 0x536F7272792074686973206173736574206973206E6F7420617661696C61626C PUSH1 0x40 DUP3 ADD MSTORE PUSH32 0x652C20506C6561736520636F6E736964657220616464696E6720697420746F20 PUSH1 0x60 DUP3 ADD MSTORE PUSH11 0x3A34329039BCB9BA32B697 PUSH1 0xA9 SHL PUSH1 0x80 DUP3 ADD MSTORE PUSH1 0xA0 ADD SWAP1 JUMP JUMPDEST DUP1 MLOAD PUSH3 0x858 DUP2 PUSH3 0x41F JUMP JUMPDEST SWAP2 SWAP1 POP JUMP JUMPDEST PUSH1 0x0 DUP3 PUSH1 0x1F DUP4 ADD SLT PUSH3 0x86F JUMPI PUSH1 0x0 DUP1 REVERT JUMPDEST DUP2 MLOAD PUSH3 0x880 PUSH3 0x67D DUP3 PUSH3 0x62F JUMP JUMPDEST DUP2 DUP2 MSTORE DUP5 PUSH1 0x20 DUP4 DUP7 ADD ADD GT ISZERO PUSH3 0x896 JUMPI PUSH1 0x0 DUP1 REVERT JUMPDEST PUSH3 0x1EC DUP3 PUSH1 0x20 DUP4 ADD PUSH1 0x20 DUP8 ADD PUSH3 0x45F JUMP JUMPDEST DUP1 MLOAD PUSH3 0x858 DUP2 PUSH3 0x6B6 JUMP JUMPDEST PUSH1 0x0 PUSH1 0x80 DUP3 DUP5 SUB SLT ISZERO PUSH3 0x8C9 JUMPI PUSH1 0x0 DUP1 REVERT JUMPDEST PUSH1 0x40 MLOAD PUSH1 0x80 DUP2 ADD DUP2 DUP2 LT PUSH8 0xFFFFFFFFFFFFFFFF DUP3 GT OR ISZERO PUSH3 0x8EF JUMPI PUSH3 0x8EF PUSH3 0x5B9 JUMP JUMPDEST DUP1 PUSH1 0x40 MSTORE POP DUP1 SWAP2 POP DUP3 MLOAD DUP2 MSTORE PUSH1 0x20 DUP4 ADD MLOAD PUSH1 0x20 DUP3 ADD MSTORE PUSH1 0x40 DUP4 ADD MLOAD PUSH1 0x40 DUP3 ADD MSTORE PUSH1 0x60 DUP4 ADD MLOAD PUSH1 0x60 DUP3 ADD MSTORE POP SWAP3 SWAP2 POP POP JUMP JUMPDEST PUSH1 0x0 PUSH1 0x20 DUP3 DUP5 SUB SLT ISZERO PUSH3 0x933 JUMPI PUSH1 0x0 DUP1 REVERT JUMPDEST DUP2 MLOAD PUSH8 0xFFFFFFFFFFFFFFFF DUP1 DUP3 GT ISZERO PUSH3 0x94C JUMPI PUSH1 0x0 DUP1 REVERT JUMPDEST SWAP1 DUP4 ADD SWAP1 PUSH2 0x120 DUP3 DUP7 SUB SLT ISZERO PUSH3 0x962 JUMPI PUSH1 0x0 DUP1 REVERT JUMPDEST PUSH3 0x96C PUSH3 0x5CF JUMP JUMPDEST PUSH3 0x977 DUP4 PUSH3 0x84B JUMP JUMPDEST DUP2 MSTORE PUSH1 0x20 DUP4 ADD MLOAD DUP3 DUP2 GT ISZERO PUSH3 0x98C JUMPI PUSH1 0x0 DUP1 REVERT JUMPDEST PUSH3 0x99A DUP8 DUP3 DUP7 ADD PUSH3 0x85D JUMP JUMPDEST PUSH1 0x20 DUP4 ADD MSTORE POP PUSH1 0x40 DUP4 ADD MLOAD DUP3 DUP2 GT ISZERO PUSH3 0x9B3 JUMPI PUSH1 0x0 DUP1 REVERT JUMPDEST PUSH3 0x9C1 DUP8 DUP3 DUP7 ADD PUSH3 0x85D JUMP JUMPDEST PUSH1 0x40 DUP4 ADD MSTORE POP PUSH1 0x60 DUP4 ADD MLOAD DUP3 DUP2 GT ISZERO PUSH3 0x9DA JUMPI PUSH1 0x0 DUP1 REVERT JUMPDEST PUSH3 0x9E8 DUP8 DUP3 DUP7 ADD PUSH3 0x85D JUMP JUMPDEST PUSH1 0x60 DUP4 ADD MSTORE POP PUSH3 0x9FC PUSH1 0x80 DUP5 ADD PUSH3 0x8A9 JUMP JUMPDEST PUSH1 0x80 DUP3 ADD MSTORE PUSH3 0xA10 DUP7 PUSH1 0xA0 DUP6 ADD PUSH3 0x8B6 JUMP JUMPDEST PUSH1 0xA0 DUP3 ADD MSTORE SWAP6 SWAP5 POP POP POP POP POP JUMP JUMPDEST PUSH1 0x1 PUSH1 0x1 PUSH1 0xA0 SHL SUB DUP7 AND DUP2 MSTORE PUSH1 0xA0 PUSH1 0x20 DUP3 ADD DUP2 SWAP1 MSTORE PUSH1 0x0 SWAP1 PUSH3 0xA44 SWAP1 DUP4 ADD DUP8 PUSH3 0x492 JUMP JUMPDEST DUP3 DUP2 SUB PUSH1 0x40 DUP5 ADD MSTORE PUSH3 0xA58 DUP2 DUP8 PUSH3 0x492 JUMP JUMPDEST SWAP1 POP DUP3 DUP2 SUB PUSH1 0x60 DUP5 ADD MSTORE PUSH3 0xA6E DUP2 DUP7 PUSH3 0x492 JUMP JUMPDEST SWAP2 POP POP PUSH3 0xA80 PUSH1 0x80 DUP4 ADD DUP5 PUSH3 0x4D6 JUMP JUMPDEST SWAP7 SWAP6 POP POP POP POP POP POP JUMP INVALID PUSH1 0x80 PUSH1 0x40 MSTORE CALLVALUE DUP1 ISZERO PUSH3 0x11 JUMPI PUSH1 0x0 DUP1 REVERT JUMPDEST POP PUSH1 0x40 MLOAD PUSH3 0xC24 CODESIZE SUB DUP1 PUSH3 0xC24 DUP4 CODECOPY DUP2 ADD PUSH1 0x40 DUP2 SWAP1 MSTORE PUSH3 0x34 SWAP2 PUSH3 0x236 JUMP JUMPDEST PUSH1 0x0 DUP1 SLOAD PUSH1 0x1 PUSH1 0x1 PUSH1 0xA0 SHL SUB NOT AND PUSH1 0x1 PUSH1 0x1 PUSH1 0xA0 SHL SUB DUP8 AND OR SWAP1 SSTORE DUP4 MLOAD PUSH3 0x64 SWAP1 PUSH1 0x1 SWAP1 PUSH1 0x20 DUP8 ADD SWAP1 PUSH3 0xC3 JUMP JUMPDEST POP DUP3 MLOAD PUSH3 0x7A SWAP1 PUSH1 0x2 SWAP1 PUSH1 0x20 DUP7 ADD SWAP1 PUSH3 0xC3 JUMP JUMPDEST POP DUP2 MLOAD PUSH3 0x90 SWAP1 PUSH1 0x3 SWAP1 PUSH1 0x20 DUP6 ADD SWAP1 PUSH3 0xC3 JUMP JUMPDEST POP PUSH1 0x4 DUP1 SLOAD DUP3 SWAP2 SWAP1 PUSH1 0xFF NOT AND PUSH1 0x1 DUP4 PUSH1 0x2 DUP2 GT ISZERO PUSH3 0xB3 JUMPI PUSH3 0xB3 PUSH3 0x302 JUMP JUMPDEST MUL OR SWAP1 SSTORE POP POP POP POP POP POP PUSH3 0x355 JUMP JUMPDEST DUP3 DUP1 SLOAD PUSH3 0xD1 SWAP1 PUSH3 0x318 JUMP JUMPDEST SWAP1 PUSH1 0x0 MSTORE PUSH1 0x20 PUSH1 0x0 KECCAK256 SWAP1 PUSH1 0x1F ADD PUSH1 0x20 SWAP1 DIV DUP2 ADD SWAP3 DUP3 PUSH3 0xF5 JUMPI PUSH1 0x0 DUP6 SSTORE PUSH3 0x140 JUMP JUMPDEST DUP3 PUSH1 0x1F LT PUSH3 0x110 JUMPI DUP1 MLOAD PUSH1 0xFF NOT AND DUP4 DUP1 ADD OR DUP6 SSTORE PUSH3 0x140 JUMP JUMPDEST DUP3 DUP1 ADD PUSH1 0x1 ADD DUP6 SSTORE DUP3 ISZERO PUSH3 0x140 JUMPI SWAP2 DUP3 ADD JUMPDEST DUP3 DUP2 GT ISZERO PUSH3 0x140 JUMPI DUP3 MLOAD DUP3 SSTORE SWAP2 PUSH1 0x20 ADD SWAP2 SWAP1 PUSH1 0x1 ADD SWAP1 PUSH3 0x123 JUMP JUMPDEST POP PUSH3 0x14E SWAP3 SWAP2 POP PUSH3 0x152 JUMP JUMPDEST POP SWAP1 JUMP JUMPDEST JUMPDEST DUP1 DUP3 GT ISZERO PUSH3 0x14E JUMPI PUSH1 0x0 DUP2 SSTORE PUSH1 0x1 ADD PUSH3 0x153 JUMP JUMPDEST PUSH4 0x4E487B71 PUSH1 0xE0 SHL PUSH1 0x0 MSTORE PUSH1 0x41 PUSH1 0x4 MSTORE PUSH1 0x24 PUSH1 0x0 REVERT JUMPDEST PUSH1 0x0 DUP3 PUSH1 0x1F DUP4 ADD SLT PUSH3 0x191 JUMPI PUSH1 0x0 DUP1 REVERT JUMPDEST DUP2 MLOAD PUSH1 0x1 PUSH1 0x1 PUSH1 0x40 SHL SUB DUP1 DUP3 GT ISZERO PUSH3 0x1AE JUMPI PUSH3 0x1AE PUSH3 0x169 JUMP JUMPDEST PUSH1 0x40 MLOAD PUSH1 0x1F DUP4 ADD PUSH1 0x1F NOT SWAP1 DUP2 AND PUSH1 0x3F ADD AND DUP2 ADD SWAP1 DUP3 DUP3 GT DUP2 DUP4 LT OR ISZERO PUSH3 0x1D9 JUMPI PUSH3 0x1D9 PUSH3 0x169 JUMP JUMPDEST DUP2 PUSH1 0x40 MSTORE DUP4 DUP2 MSTORE PUSH1 0x20 SWAP3 POP DUP7 DUP4 DUP6 DUP9 ADD ADD GT ISZERO PUSH3 0x1F6 JUMPI PUSH1 0x0 DUP1 REVERT JUMPDEST PUSH1 0x0 SWAP2 POP JUMPDEST DUP4 DUP3 LT ISZERO PUSH3 0x21A JUMPI DUP6 DUP3 ADD DUP4 ADD MLOAD DUP2 DUP4 ADD DUP5 ADD MSTORE SWAP1 DUP3 ADD SWAP1 PUSH3 0x1FB JUMP JUMPDEST DUP4 DUP3 GT ISZERO PUSH3 0x22C JUMPI PUSH1 0x0 DUP4 DUP6 DUP4 ADD ADD MSTORE JUMPDEST SWAP7 SWAP6 POP POP POP POP POP POP JUMP JUMPDEST PUSH1 0x0 DUP1 PUSH1 0x0 DUP1 PUSH1 0x0 PUSH1 0xA0 DUP7 DUP9 SUB SLT ISZERO PUSH3 0x24F JUMPI PUSH1 0x0 DUP1 REVERT JUMPDEST DUP6 MLOAD PUSH1 0x1 PUSH1 0x1 PUSH1 0xA0 SHL SUB DUP2 AND DUP2 EQ PUSH3 0x267 JUMPI PUSH1 0x0 DUP1 REVERT JUMPDEST PUSH1 0x20 DUP8 ADD MLOAD SWAP1 SWAP6 POP PUSH1 0x1 PUSH1 0x1 PUSH1 0x40 SHL SUB DUP1 DUP3 GT ISZERO PUSH3 0x285 JUMPI PUSH1 0x0 DUP1 REVERT JUMPDEST PUSH3 0x293 DUP10 DUP4 DUP11 ADD PUSH3 0x17F JUMP JUMPDEST SWAP6 POP PUSH1 0x40 DUP9 ADD MLOAD SWAP2 POP DUP1 DUP3 GT ISZERO PUSH3 0x2AA JUMPI PUSH1 0x0 DUP1 REVERT JUMPDEST PUSH3 0x2B8 DUP10 DUP4 DUP11 ADD PUSH3 0x17F JUMP JUMPDEST SWAP5 POP PUSH1 0x60 DUP9 ADD MLOAD SWAP2 POP DUP1 DUP3 GT ISZERO PUSH3 0x2CF JUMPI PUSH1 0x0 DUP1 REVERT JUMPDEST POP PUSH3 0x2DE DUP9 DUP3 DUP10 ADD PUSH3 0x17F JUMP JUMPDEST SWAP3 POP POP PUSH1 0x80 DUP7 ADD MLOAD PUSH1 0x3 DUP2 LT PUSH3 0x2F4 JUMPI PUSH1 0x0 DUP1 REVERT JUMPDEST DUP1 SWAP2 POP POP SWAP3 SWAP6 POP SWAP3 SWAP6 SWAP1 SWAP4 POP JUMP JUMPDEST PUSH4 0x4E487B71 PUSH1 0xE0 SHL PUSH1 0x0 MSTORE PUSH1 0x21 PUSH1 0x4 MSTORE PUSH1 0x24 PUSH1 0x0 REVERT JUMPDEST PUSH1 0x1 DUP2 DUP2 SHR SWAP1 DUP3 AND DUP1 PUSH3 0x32D JUMPI PUSH1 0x7F DUP3 AND SWAP2 POP JUMPDEST PUSH1 0x20 DUP3 LT DUP2 EQ ISZERO PUSH3 0x34F JUMPI PUSH4 0x4E487B71 PUSH1 0xE0 SHL PUSH1 0x0 MSTORE PUSH1 0x22 PUSH1 0x4 MSTORE PUSH1 0x24 PUSH1 0x0 REVERT JUMPDEST POP SWAP2 SWAP1 POP JUMP JUMPDEST PUSH2 0x8BF DUP1 PUSH3 0x365 PUSH1 0x0 CODECOPY PUSH1 0x0 RETURN INVALID PUSH1 0x80 PUSH1 0x40 MSTORE CALLVALUE DUP1 ISZERO PUSH2 0x10 JUMPI PUSH1 0x0 DUP1 REVERT JUMPDEST POP PUSH1 0x4 CALLDATASIZE LT PUSH2 0x88 JUMPI PUSH1 0x0 CALLDATALOAD PUSH1 0xE0 SHR DUP1 PUSH4 0x80F474F6 GT PUSH2 0x5B JUMPI DUP1 PUSH4 0x80F474F6 EQ PUSH2 0x100 JUMPI DUP1 PUSH4 0x95D89B41 EQ PUSH2 0x136 JUMPI DUP1 PUSH4 0xB90497E0 EQ PUSH2 0x13E JUMPI DUP1 PUSH4 0xEF430AA6 EQ PUSH2 0x146 JUMPI PUSH1 0x0 DUP1 REVERT JUMPDEST DUP1 PUSH4 0x6FDDE03 EQ PUSH2 0x8D JUMPI DUP1 PUSH4 0x1BA46CFD EQ PUSH2 0xAB JUMPI DUP1 PUSH4 0x60E77B9E EQ PUSH2 0xD6 JUMPI DUP1 PUSH4 0x73D4A13A EQ PUSH2 0xEB JUMPI JUMPDEST PUSH1 0x0 DUP1 REVERT JUMPDEST PUSH2 0x95 PUSH2 0x160 JUMP JUMPDEST PUSH1 0x40 MLOAD PUSH2 0xA2 SWAP2 SWAP1 PUSH2 0x67A JUMP JUMPDEST PUSH1 0x40 MLOAD DUP1 SWAP2 SUB SWAP1 RETURN JUMPDEST PUSH1 0x0 SLOAD PUSH2 0xBE SWAP1 PUSH1 0x1 PUSH1 0x1 PUSH1 0xA0 SHL SUB AND DUP2 JUMP JUMPDEST PUSH1 0x40 MLOAD PUSH1 0x1 PUSH1 0x1 PUSH1 0xA0 SHL SUB SWAP1 SWAP2 AND DUP2 MSTORE PUSH1 0x20 ADD PUSH2 0xA2 JUMP JUMPDEST PUSH2 0xE9 PUSH2 0xE4 CALLDATASIZE PUSH1 0x4 PUSH2 0x694 JUMP JUMPDEST PUSH2 0x1EE JUMP JUMPDEST STOP JUMPDEST PUSH2 0xF3 PUSH2 0x339 JUMP JUMPDEST PUSH1 0x40 MLOAD PUSH2 0xA2 SWAP2 SWAP1 PUSH2 0x713 JUMP JUMPDEST PUSH1 0x5 SLOAD PUSH1 0x6 SLOAD PUSH1 0x7 SLOAD PUSH1 0x8 SLOAD PUSH2 0x116 SWAP4 SWAP3 SWAP2 SWAP1 DUP5 JUMP JUMPDEST PUSH1 0x40 DUP1 MLOAD SWAP5 DUP6 MSTORE PUSH1 0x20 DUP6 ADD SWAP4 SWAP1 SWAP4 MSTORE SWAP2 DUP4 ADD MSTORE PUSH1 0x60 DUP3 ADD MSTORE PUSH1 0x80 ADD PUSH2 0xA2 JUMP JUMPDEST PUSH2 0x95 PUSH2 0x567 JUMP JUMPDEST PUSH2 0x95 PUSH2 0x574 JUMP JUMPDEST PUSH1 0x4 SLOAD PUSH2 0x153 SWAP1 PUSH1 0xFF AND DUP2 JUMP JUMPDEST PUSH1 0x40 MLOAD PUSH2 0xA2 SWAP2 SWAP1 PUSH2 0x7CB JUMP JUMPDEST PUSH1 0x1 DUP1 SLOAD PUSH2 0x16D SWAP1 PUSH2 0x7DF JUMP JUMPDEST DUP1 PUSH1 0x1F ADD PUSH1 0x20 DUP1 SWAP2 DIV MUL PUSH1 0x20 ADD PUSH1 0x40 MLOAD SWAP1 DUP2 ADD PUSH1 0x40 MSTORE DUP1 SWAP3 SWAP2 SWAP1 DUP2 DUP2 MSTORE PUSH1 0x20 ADD DUP3 DUP1 SLOAD PUSH2 0x199 SWAP1 PUSH2 0x7DF JUMP JUMPDEST DUP1 ISZERO PUSH2 0x1E6 JUMPI DUP1 PUSH1 0x1F LT PUSH2 0x1BB JUMPI PUSH2 0x100 DUP1 DUP4 SLOAD DIV MUL DUP4 MSTORE SWAP2 PUSH1 0x20 ADD SWAP2 PUSH2 0x1E6 JUMP JUMPDEST DUP3 ADD SWAP2 SWAP1 PUSH1 0x0 MSTORE PUSH1 0x20 PUSH1 0x0 KECCAK256 SWAP1 JUMPDEST DUP2 SLOAD DUP2 MSTORE SWAP1 PUSH1 0x1 ADD SWAP1 PUSH1 0x20 ADD DUP1 DUP4 GT PUSH2 0x1C9 JUMPI DUP3 SWAP1 SUB PUSH1 0x1F AND DUP3 ADD SWAP2 JUMPDEST POP POP POP POP POP DUP2 JUMP JUMPDEST PUSH1 0x1 PUSH1 0x1 PUSH1 0xA0 SHL SUB DUP5 AND PUSH1 0x0 SWAP1 DUP2 MSTORE PUSH1 0xA PUSH1 0x20 MSTORE PUSH1 0x40 SWAP1 KECCAK256 SLOAD DUP5 SWAP1 PUSH1 0xFF AND ISZERO PUSH2 0x25D JUMPI PUSH1 0x40 MLOAD PUSH3 0x461BCD PUSH1 0xE5 SHL DUP2 MSTORE PUSH1 0x20 PUSH1 0x4 DUP3 ADD MSTORE PUSH1 0x19 PUSH1 0x24 DUP3 ADD MSTORE PUSH32 0x596F752063616E206F6E6C792072617465206F6E636521212100000000000000 PUSH1 0x44 DUP3 ADD MSTORE PUSH1 0x64 ADD PUSH1 0x40 MLOAD DUP1 SWAP2 SUB SWAP1 REVERT JUMPDEST PUSH1 0x1 PUSH1 0x1 PUSH1 0xA0 SHL SUB DUP2 AND PUSH1 0x0 SWAP1 DUP2 MSTORE PUSH1 0xA PUSH1 0x20 MSTORE PUSH1 0x40 SWAP1 KECCAK256 DUP1 SLOAD PUSH1 0xFF NOT AND PUSH1 0x1 OR SWAP1 SSTORE PUSH1 0x9 SLOAD PUSH1 0x6 SLOAD PUSH2 0x291 SWAP1 DUP7 DUP4 PUSH2 0x581 JUMP JUMPDEST PUSH1 0x6 SSTORE PUSH1 0x7 SLOAD PUSH2 0x2A2 SWAP1 DUP6 DUP4 PUSH2 0x581 JUMP JUMPDEST PUSH1 0x7 SSTORE PUSH1 0x8 SLOAD PUSH2 0x2B3 SWAP1 DUP5 DUP4 PUSH2 0x581 JUMP JUMPDEST PUSH1 0x8 SSTORE PUSH1 0x0 PUSH1 0x3 DUP5 PUSH2 0x2C5 DUP8 DUP10 PUSH2 0x830 JUMP JUMPDEST PUSH2 0x2CF SWAP2 SWAP1 PUSH2 0x830 JUMP JUMPDEST PUSH2 0x2D9 SWAP2 SWAP1 PUSH2 0x848 JUMP JUMPDEST SWAP1 POP PUSH2 0x2EB PUSH1 0x5 PUSH1 0x0 ADD SLOAD DUP3 DUP5 PUSH2 0x581 JUMP JUMPDEST PUSH1 0x5 SSTORE POP POP PUSH1 0x9 DUP1 SLOAD PUSH1 0x1 DUP2 ADD DUP3 SSTORE PUSH1 0x0 SWAP2 SWAP1 SWAP2 MSTORE PUSH32 0x6E1540171B6C0C960B71A7020D9F60077F6AF931A8BBF590DA0223DACF75C7AF ADD DUP1 SLOAD PUSH1 0x1 PUSH1 0x1 PUSH1 0xA0 SHL SUB NOT AND CALLER OR SWAP1 SSTORE POP POP POP POP POP JUMP JUMPDEST PUSH2 0x341 PUSH2 0x5B5 JUMP JUMPDEST PUSH1 0x40 DUP1 MLOAD PUSH1 0xC0 DUP2 ADD SWAP1 SWAP2 MSTORE PUSH1 0x0 DUP1 SLOAD PUSH1 0x1 PUSH1 0x1 PUSH1 0xA0 SHL SUB AND DUP3 MSTORE PUSH1 0x1 DUP1 SLOAD SWAP2 SWAP3 SWAP2 PUSH1 0x20 DUP4 ADD SWAP2 SWAP1 PUSH2 0x371 SWAP1 PUSH2 0x7DF JUMP JUMPDEST DUP1 PUSH1 0x1F ADD PUSH1 0x20 DUP1 SWAP2 DIV MUL PUSH1 0x20 ADD PUSH1 0x40 MLOAD SWAP1 DUP2 ADD PUSH1 0x40 MSTORE DUP1 SWAP3 SWAP2 SWAP1 DUP2 DUP2 MSTORE PUSH1 0x20 ADD DUP3 DUP1 SLOAD PUSH2 0x39D SWAP1 PUSH2 0x7DF JUMP JUMPDEST DUP1 ISZERO PUSH2 0x3EA JUMPI DUP1 PUSH1 0x1F LT PUSH2 0x3BF JUMPI PUSH2 0x100 DUP1 DUP4 SLOAD DIV MUL DUP4 MSTORE SWAP2 PUSH1 0x20 ADD SWAP2 PUSH2 0x3EA JUMP JUMPDEST DUP3 ADD SWAP2 SWAP1 PUSH1 0x0 MSTORE PUSH1 0x20 PUSH1 0x0 KECCAK256 SWAP1 JUMPDEST DUP2 SLOAD DUP2 MSTORE SWAP1 PUSH1 0x1 ADD SWAP1 PUSH1 0x20 ADD DUP1 DUP4 GT PUSH2 0x3CD JUMPI DUP3 SWAP1 SUB PUSH1 0x1F AND DUP3 ADD SWAP2 JUMPDEST POP POP POP POP POP DUP2 MSTORE PUSH1 0x20 ADD PUSH1 0x2 DUP1 SLOAD PUSH2 0x401 SWAP1 PUSH2 0x7DF JUMP JUMPDEST DUP1 PUSH1 0x1F ADD PUSH1 0x20 DUP1 SWAP2 DIV MUL PUSH1 0x20 ADD PUSH1 0x40 MLOAD SWAP1 DUP2 ADD PUSH1 0x40 MSTORE DUP1 SWAP3 SWAP2 SWAP1 DUP2 DUP2 MSTORE PUSH1 0x20 ADD DUP3 DUP1 SLOAD PUSH2 0x42D SWAP1 PUSH2 0x7DF JUMP JUMPDEST DUP1 ISZERO PUSH2 0x47A JUMPI DUP1 PUSH1 0x1F LT PUSH2 0x44F JUMPI PUSH2 0x100 DUP1 DUP4 SLOAD DIV MUL DUP4 MSTORE SWAP2 PUSH1 0x20 ADD SWAP2 PUSH2 0x47A JUMP JUMPDEST DUP3 ADD SWAP2 SWAP1 PUSH1 0x0 MSTORE PUSH1 0x20 PUSH1 0x0 KECCAK256 SWAP1 JUMPDEST DUP2 SLOAD DUP2 MSTORE SWAP1 PUSH1 0x1 ADD SWAP1 PUSH1 0x20 ADD DUP1 DUP4 GT PUSH2 0x45D JUMPI DUP3 SWAP1 SUB PUSH1 0x1F AND DUP3 ADD SWAP2 JUMPDEST POP POP POP POP POP DUP2 MSTORE PUSH1 0x20 ADD PUSH1 0x3 DUP1 SLOAD PUSH2 0x491 SWAP1 PUSH2 0x7DF JUMP JUMPDEST DUP1 PUSH1 0x1F ADD PUSH1 0x20 DUP1 SWAP2 DIV MUL PUSH1 0x20 ADD PUSH1 0x40 MLOAD SWAP1 DUP2 ADD PUSH1 0x40 MSTORE DUP1 SWAP3 SWAP2 SWAP1 DUP2 DUP2 MSTORE PUSH1 0x20 ADD DUP3 DUP1 SLOAD PUSH2 0x4BD SWAP1 PUSH2 0x7DF JUMP JUMPDEST DUP1 ISZERO PUSH2 0x50A JUMPI DUP1 PUSH1 0x1F LT PUSH2 0x4DF JUMPI PUSH2 0x100 DUP1 DUP4 SLOAD DIV MUL DUP4 MSTORE SWAP2 PUSH1 0x20 ADD SWAP2 PUSH2 0x50A JUMP JUMPDEST DUP3 ADD SWAP2 SWAP1 PUSH1 0x0 MSTORE PUSH1 0x20 PUSH1 0x0 KECCAK256 SWAP1 JUMPDEST DUP2 SLOAD DUP2 MSTORE SWAP1 PUSH1 0x1 ADD SWAP1 PUSH1 0x20 ADD DUP1 DUP4 GT PUSH2 0x4ED JUMPI DUP3 SWAP1 SUB PUSH1 0x1F AND DUP3 ADD SWAP2 JUMPDEST POP POP POP SWAP2 DUP4 MSTORE POP POP PUSH1 0x4 SLOAD PUSH1 0x20 SWAP1 SWAP2 ADD SWAP1 PUSH1 0xFF AND PUSH1 0x2 DUP2 GT ISZERO PUSH2 0x52F JUMPI PUSH2 0x52F PUSH2 0x6DB JUMP JUMPDEST DUP2 MSTORE PUSH1 0x40 DUP1 MLOAD PUSH1 0x80 DUP2 ADD DUP3 MSTORE PUSH1 0x5 SLOAD DUP2 MSTORE PUSH1 0x6 SLOAD PUSH1 0x20 DUP3 DUP2 ADD SWAP2 SWAP1 SWAP2 MSTORE PUSH1 0x7 SLOAD SWAP3 DUP3 ADD SWAP3 SWAP1 SWAP3 MSTORE PUSH1 0x8 SLOAD PUSH1 0x60 DUP3 ADD MSTORE SWAP2 ADD MSTORE SWAP3 SWAP2 POP POP JUMP JUMPDEST PUSH1 0x2 DUP1 SLOAD PUSH2 0x16D SWAP1 PUSH2 0x7DF JUMP JUMPDEST PUSH1 0x3 DUP1 SLOAD PUSH2 0x16D SWAP1 PUSH2 0x7DF JUMP JUMPDEST PUSH1 0x0 PUSH2 0x58E DUP3 PUSH1 0x1 PUSH2 0x830 JUMP JUMPDEST DUP4 PUSH2 0x599 DUP5 DUP8 PUSH2 0x86A JUMP JUMPDEST PUSH2 0x5A3 SWAP2 SWAP1 PUSH2 0x830 JUMP JUMPDEST PUSH2 0x5AD SWAP2 SWAP1 PUSH2 0x848 JUMP JUMPDEST SWAP5 SWAP4 POP POP POP POP JUMP JUMPDEST PUSH1 0x40 MLOAD DUP1 PUSH1 0xC0 ADD PUSH1 0x40 MSTORE DUP1 PUSH1 0x0 PUSH1 0x1 PUSH1 0x1 PUSH1 0xA0 SHL SUB AND DUP2 MSTORE PUSH1 0x20 ADD PUSH1 0x60 DUP2 MSTORE PUSH1 0x20 ADD PUSH1 0x60 DUP2 MSTORE PUSH1 0x20 ADD PUSH1 0x60 DUP2 MSTORE PUSH1 0x20 ADD PUSH1 0x0 PUSH1 0x2 DUP2 GT ISZERO PUSH2 0x5F8 JUMPI PUSH2 0x5F8 PUSH2 0x6DB JUMP JUMPDEST DUP2 MSTORE PUSH1 0x20 ADD PUSH2 0x628 PUSH1 0x40 MLOAD DUP1 PUSH1 0x80 ADD PUSH1 0x40 MSTORE DUP1 PUSH1 0x0 DUP2 MSTORE PUSH1 0x20 ADD PUSH1 0x0 DUP2 MSTORE PUSH1 0x20 ADD PUSH1 0x0 DUP2 MSTORE PUSH1 0x20 ADD PUSH1 0x0 DUP2 MSTORE POP SWAP1 JUMP JUMPDEST SWAP1 MSTORE SWAP1 JUMP JUMPDEST PUSH1 0x0 DUP2 MLOAD DUP1 DUP5 MSTORE PUSH1 0x0 JUMPDEST DUP2 DUP2 LT ISZERO PUSH2 0x653 JUMPI PUSH1 0x20 DUP2 DUP6 ADD DUP2 ADD MLOAD DUP7 DUP4 ADD DUP3 ADD MSTORE ADD PUSH2 0x637 JUMP JUMPDEST DUP2 DUP2 GT ISZERO PUSH2 0x665 JUMPI PUSH1 0x0 PUSH1 0x20 DUP4 DUP8 ADD ADD MSTORE JUMPDEST POP PUSH1 0x1F ADD PUSH1 0x1F NOT AND SWAP3 SWAP1 SWAP3 ADD PUSH1 0x20 ADD SWAP3 SWAP2 POP POP JUMP JUMPDEST PUSH1 0x20 DUP2 MSTORE PUSH1 0x0 PUSH2 0x68D PUSH1 0x20 DUP4 ADD DUP5 PUSH2 0x62D JUMP JUMPDEST SWAP4 SWAP3 POP POP POP JUMP JUMPDEST PUSH1 0x0 DUP1 PUSH1 0x0 DUP1 PUSH1 0x80 DUP6 DUP8 SUB SLT ISZERO PUSH2 0x6AA JUMPI PUSH1 0x0 DUP1 REVERT JUMPDEST DUP5 CALLDATALOAD PUSH1 0x1 PUSH1 0x1 PUSH1 0xA0 SHL SUB DUP2 AND DUP2 EQ PUSH2 0x6C1 JUMPI PUSH1 0x0 DUP1 REVERT JUMPDEST SWAP7 PUSH1 0x20 DUP7 ADD CALLDATALOAD SWAP7 POP PUSH1 0x40 DUP7 ADD CALLDATALOAD SWAP6 PUSH1 0x60 ADD CALLDATALOAD SWAP5 POP SWAP3 POP POP POP JUMP JUMPDEST PUSH4 0x4E487B71 PUSH1 0xE0 SHL PUSH1 0x0 MSTORE PUSH1 0x21 PUSH1 0x4 MSTORE PUSH1 0x24 PUSH1 0x0 REVERT JUMPDEST PUSH1 0x3 DUP2 LT PUSH2 0x70F JUMPI PUSH4 0x4E487B71 PUSH1 0xE0 SHL PUSH1 0x0 MSTORE PUSH1 0x21 PUSH1 0x4 MSTORE PUSH1 0x24 PUSH1 0x0 REVERT JUMPDEST SWAP1 MSTORE JUMP JUMPDEST PUSH1 0x20 DUP1 DUP3 MSTORE DUP3 MLOAD PUSH1 0x1 PUSH1 0x1 PUSH1 0xA0 SHL SUB AND DUP3 DUP3 ADD MSTORE DUP3 ADD MLOAD PUSH2 0x120 PUSH1 0x40 DUP4 ADD DUP2 SWAP1 MSTORE PUSH1 0x0 SWAP2 SWAP1 PUSH2 0x746 PUSH2 0x140 DUP6 ADD DUP4 PUSH2 0x62D JUMP JUMPDEST SWAP2 POP PUSH1 0x40 DUP6 ADD MLOAD PUSH1 0x1F NOT DUP1 DUP7 DUP6 SUB ADD PUSH1 0x60 DUP8 ADD MSTORE PUSH2 0x764 DUP5 DUP4 PUSH2 0x62D JUMP JUMPDEST SWAP4 POP PUSH1 0x60 DUP8 ADD MLOAD SWAP2 POP DUP1 DUP7 DUP6 SUB ADD PUSH1 0x80 DUP8 ADD MSTORE POP PUSH2 0x782 DUP4 DUP3 PUSH2 0x62D JUMP JUMPDEST SWAP3 POP POP PUSH1 0x80 DUP6 ADD MLOAD PUSH2 0x797 PUSH1 0xA0 DUP7 ADD DUP3 PUSH2 0x6F1 JUMP JUMPDEST POP PUSH1 0xA0 SWAP5 SWAP1 SWAP5 ADD MLOAD DUP1 MLOAD PUSH1 0xC0 DUP6 ADD MSTORE PUSH1 0x20 DUP2 ADD MLOAD PUSH1 0xE0 DUP6 ADD MSTORE PUSH1 0x40 DUP2 ADD MLOAD PUSH2 0x100 DUP6 ADD MSTORE PUSH1 0x60 ADD MLOAD SWAP3 SWAP1 SWAP4 ADD SWAP2 SWAP1 SWAP2 MSTORE POP SWAP1 JUMP JUMPDEST PUSH1 0x20 DUP2 ADD PUSH2 0x7D9 DUP3 DUP5 PUSH2 0x6F1 JUMP JUMPDEST SWAP3 SWAP2 POP POP JUMP JUMPDEST PUSH1 0x1 DUP2 DUP2 SHR SWAP1 DUP3 AND DUP1 PUSH2 0x7F3 JUMPI PUSH1 0x7F DUP3 AND SWAP2 POP JUMPDEST PUSH1 0x20 DUP3 LT DUP2 EQ ISZERO PUSH2 0x814 JUMPI PUSH4 0x4E487B71 PUSH1 0xE0 SHL PUSH1 0x0 MSTORE PUSH1 0x22 PUSH1 0x4 MSTORE PUSH1 0x24 PUSH1 0x0 REVERT JUMPDEST POP SWAP2 SWAP1 POP JUMP JUMPDEST PUSH4 0x4E487B71 PUSH1 0xE0 SHL PUSH1 0x0 MSTORE PUSH1 0x11 PUSH1 0x4 MSTORE PUSH1 0x24 PUSH1 0x0 REVERT JUMPDEST PUSH1 0x0 DUP3 NOT DUP3 GT ISZERO PUSH2 0x843 JUMPI PUSH2 0x843 PUSH2 0x81A JUMP JUMPDEST POP ADD SWAP1 JUMP JUMPDEST PUSH1 0x0 DUP3 PUSH2 0x865 JUMPI PUSH4 0x4E487B71 PUSH1 0xE0 SHL PUSH1 0x0 MSTORE PUSH1 0x12 PUSH1 0x4 MSTORE PUSH1 0x24 PUSH1 0x0 REVERT JUMPDEST POP DIV SWAP1 JUMP JUMPDEST PUSH1 0x0 DUP2 PUSH1 0x0 NOT DIV DUP4 GT DUP3 ISZERO ISZERO AND ISZERO PUSH2 0x884 JUMPI PUSH2 0x884 PUSH2 0x81A JUMP JUMPDEST POP MUL SWAP1 JUMP INVALID LOG2 PUSH5 0x6970667358 0x22 SLT KECCAK256 0xE0 0x24 PUSH2 0x181C ORIGIN 0x23 SLT 0xB4 MSTORE8 0xA5 PUSH25 0x16650851697A9934A01D2219893D83446CE76E3564736F6C63 NUMBER STOP ADDMOD EXP STOP CALLER LOG2 PUSH5 0x6970667358 0x22 SLT KECCAK256 0xE4 0xA9 BALANCE 0xE0 SWAP6 0xEC 0xE8 0xAC 0x4F SIGNEXTEND DUP11 LOG0 MLOAD 0xB6 CREATE 0xBC 0xDB ADDRESS RETURNDATASIZE DUP10 SWAP12 0x2F EXTCODESIZE 0xF8 0x5C 0xC0 CALLVALUE DUP5 0x4E CALLDATACOPY SWAP4 0xD0 PUSH5 0x736F6C6343 STOP ADDMOD EXP STOP CALLER ",
  "sha1": "8e4eb5f05320f4823dbe304826642d085b6751b2",
  "source": "// SPDX-License-Identifier: GPL-3.0\n\npragma solidity >=0.6.6 <0.9.0;\n\nimport \"./Asset.sol\";\n\n// store a map of asset contracts\n// onboard assets to master if not available\n\ncontract CommunityAudits {\n    Asset[] public assetContracts;\n    mapping(address => address) public assetContractsMap;\n\n    function create(\n        address _contract,\n        string memory _name,\n        string memory _symbol,\n        string memory _imageURL,\n        CATEGORY _category\n    ) public {\n        Asset newContract = new Asset(\n            _contract,\n            _name,\n            _symbol,\n            _imageURL,\n            _category\n        );\n        assetContracts.push(newContract);\n        assetContractsMap[_contract] = address(newContract);\n    }\n\n    modifier checkAsset(address _contract) {\n        require(\n            assetContractsMap[_contract] != address(0),\n            \"Sorry this asset is not available, Please consider adding it to the system.\"\n        );\n        _;\n    }\n\n    function getData(address _contract)\n        public\n        view\n        checkAsset(_contract)\n        returns (Data memory)\n    {\n        Asset assetContract = Asset(address(assetContractsMap[_contract]));\n        return assetContract.data();\n    }\n\n    function rateAsset(\n        address _contract,\n        uint256 _technicalImplementation,\n        uint256 _trustFactor,\n        uint256 _founderReliability\n    ) public checkAsset(_contract) {\n        Asset assetContract = Asset(address(assetContractsMap[_contract]));\n        assetContract.rate(\n            msg.sender,\n            _technicalImplementation,\n            _trustFactor,\n            _founderReliability\n        );\n    }\n}\n",
  "sourcePath": "contracts/CommunityAudits.sol",
  "type": "contract"
}