{
  "abi": [
    {
      "inputs": [
        {
          "internalType": "contract CollectiveTruth",
          "name": "_data",
          "type": "address"
        }
      ],
      "stateMutability": "nonpayable",
      "type": "constructor"
    },
    {
      "inputs": [
        {
          "internalType": "address",
          "name": "_contract",
          "type": "address"
        },
        {
          "internalType": "string",
          "name": "message",
          "type": "string"
        }
      ],
      "name": "commentAsset",
      "outputs": [],
      "stateMutability": "payable",
      "type": "function"
    },
    {
      "inputs": [
        {
          "internalType": "address",
          "name": "_contract",
          "type": "address"
        },
        {
          "internalType": "string",
          "name": "_name",
          "type": "string"
        },
        {
          "internalType": "string",
          "name": "_symbol",
          "type": "string"
        },
        {
          "internalType": "string",
          "name": "_imageURL",
          "type": "string"
        },
        {
          "internalType": "enum CATEGORY",
          "name": "_category",
          "type": "uint8"
        }
      ],
      "name": "createAsset",
      "outputs": [],
      "stateMutability": "payable",
      "type": "function"
    },
    {
      "inputs": [],
      "name": "data",
      "outputs": [
        {
          "internalType": "contract CollectiveTruth",
          "name": "",
          "type": "address"
        }
      ],
      "stateMutability": "view",
      "type": "function"
    },
    {
      "inputs": [
        {
          "internalType": "address",
          "name": "_contract",
          "type": "address"
        }
      ],
      "name": "getAssetComments",
      "outputs": [
        {
          "components": [
            {
              "internalType": "address",
              "name": "user",
              "type": "address"
            },
            {
              "internalType": "string",
              "name": "message",
              "type": "string"
            },
            {
              "internalType": "uint256",
              "name": "upvotes",
              "type": "uint256"
            },
            {
              "internalType": "uint256",
              "name": "downvotes",
              "type": "uint256"
            }
          ],
          "internalType": "struct Comment[]",
          "name": "",
          "type": "tuple[]"
        }
      ],
      "stateMutability": "view",
      "type": "function"
    },
    {
      "inputs": [
        {
          "internalType": "address",
          "name": "_contract",
          "type": "address"
        }
      ],
      "name": "getAssetRatings",
      "outputs": [
        {
          "components": [
            {
              "internalType": "address",
              "name": "assetAddress",
              "type": "address"
            },
            {
              "internalType": "string",
              "name": "name",
              "type": "string"
            },
            {
              "internalType": "string",
              "name": "symbol",
              "type": "string"
            },
            {
              "internalType": "string",
              "name": "imageURL",
              "type": "string"
            },
            {
              "internalType": "enum CATEGORY",
              "name": "category",
              "type": "uint8"
            },
            {
              "components": [
                {
                  "internalType": "uint256",
                  "name": "overallScore",
                  "type": "uint256"
                },
                {
                  "internalType": "uint256",
                  "name": "technicalImplementation",
                  "type": "uint256"
                },
                {
                  "internalType": "uint256",
                  "name": "trustFactor",
                  "type": "uint256"
                },
                {
                  "internalType": "uint256",
                  "name": "founderReliability",
                  "type": "uint256"
                }
              ],
              "internalType": "struct Rating",
              "name": "rating",
              "type": "tuple"
            }
          ],
          "internalType": "struct Data",
          "name": "",
          "type": "tuple"
        }
      ],
      "stateMutability": "view",
      "type": "function"
    },
    {
      "inputs": [
        {
          "internalType": "address",
          "name": "_contract",
          "type": "address"
        },
        {
          "internalType": "uint256",
          "name": "_technicalImplementation",
          "type": "uint256"
        },
        {
          "internalType": "uint256",
          "name": "_trustFactor",
          "type": "uint256"
        },
        {
          "internalType": "uint256",
          "name": "_founderReliability",
          "type": "uint256"
        }
      ],
      "name": "rateAsset",
      "outputs": [],
      "stateMutability": "payable",
      "type": "function"
    },
    {
      "inputs": [],
      "name": "registerUser",
      "outputs": [],
      "stateMutability": "nonpayable",
      "type": "function"
    },
    {
      "inputs": [
        {
          "internalType": "address",
          "name": "_user",
          "type": "address"
        }
      ],
      "name": "truthBalance",
      "outputs": [
        {
          "internalType": "uint256",
          "name": "",
          "type": "uint256"
        }
      ],
      "stateMutability": "view",
      "type": "function"
    },
    {
      "inputs": [
        {
          "internalType": "address",
          "name": "_contract",
          "type": "address"
        },
        {
          "internalType": "uint256",
          "name": "_comment",
          "type": "uint256"
        },
        {
          "internalType": "enum VOTE",
          "name": "_vote",
          "type": "uint8"
        }
      ],
      "name": "voteComment",
      "outputs": [],
      "stateMutability": "payable",
      "type": "function"
    }
  ],
  "bytecode": "608060405234801561001057600080fd5b5060405161189938038061189983398101604081905261002f91610054565b600080546001600160a01b0319166001600160a01b0392909216919091179055610084565b60006020828403121561006657600080fd5b81516001600160a01b038116811461007d57600080fd5b9392505050565b611806806100936000396000f3fe6080604052600436106100865760003560e01c806373d4a13a1161005957806373d4a13a14610118578063812eabe0146101505780638211082714610163578063de5e527e14610176578063e7b7043e146101a457600080fd5b80630df190821461008b57806324d7bf6f146100c15780634d3820eb146100ee57806368684a8b14610105575b600080fd5b34801561009757600080fd5b506100ab6100a6366004610f09565b6101b7565b6040516100b89190610f85565b60405180910390f35b3480156100cd57600080fd5b506100e16100dc366004610f09565b61033b565b6040516100b89190611045565b3480156100fa57600080fd5b506101036104b1565b005b61010361011336600461120e565b6105d0565b34801561012457600080fd5b50600054610138906001600160a01b031681565b6040516001600160a01b0390911681526020016100b8565b61010361015e36600461125e565b610825565b610103610171366004611299565b610a8b565b34801561018257600080fd5b50610196610191366004610f09565b610ce3565b6040519081526020016100b8565b6101036101b23660046112ec565b610d58565b600080546040516311b22beb60e31b81526001600160a01b03808516600483015260609385939092911690638d915f5890602401602060405180830381865afa158015610208573d6000803e3d6000fd5b505050506040513d601f19601f8201168201806040525081019061022c91906113ac565b6001600160a01b0316141561025c5760405162461bcd60e51b8152600401610253906113c9565b60405180910390fd5b600080546040516311b22beb60e31b81526001600160a01b03868116600483015290911690638d915f5890602401602060405180830381865afa1580156102a7573d6000803e3d6000fd5b505050506040513d601f19601f820116820180604052508101906102cb91906113ac565b9050806001600160a01b03166391f3410c6040518163ffffffff1660e01b8152600401600060405180830381865afa15801561030b573d6000803e3d6000fd5b505050506040513d6000823e601f3d908101601f19168201604052610333919081019061147f565b949350505050565b610343610e79565b600080546040516311b22beb60e31b81526001600160a01b0380861660048301528593921690638d915f5890602401602060405180830381865afa15801561038f573d6000803e3d6000fd5b505050506040513d601f19601f820116820180604052508101906103b391906113ac565b6001600160a01b031614156103da5760405162461bcd60e51b8152600401610253906113c9565b600080546040516311b22beb60e31b81526001600160a01b03868116600483015290911690638d915f5890602401602060405180830381865afa158015610425573d6000803e3d6000fd5b505050506040513d601f19601f8201168201806040525081019061044991906113ac565b9050806001600160a01b03166373d4a13a6040518163ffffffff1660e01b8152600401600060405180830381865afa158015610489573d6000803e3d6000fd5b505050506040513d6000823e601f3d908101601f1916820160405261033391908101906115ee565b6000546040516330159c3760e11b81523360048201526001600160a01b039091169063602b386e90602401602060405180830381865afa1580156104f9573d6000803e3d6000fd5b505050506040513d601f19601f8201168201806040525081019061051d91906116d8565b1561056a5760405162461bcd60e51b815260206004820152601860248201527f5573657220616c726561647920726567697374657265642e00000000000000006044820152606401610253565b6000805460405163fa0b5e5560e01b815233600482015260248101929092526001600160a01b03169063fa0b5e5590604401600060405180830381600087803b1580156105b657600080fd5b505af11580156105ca573d6000803e3d6000fd5b50505050565b600080546040516311b22beb60e31b81526001600160a01b0380861660048301528593921690638d915f5890602401602060405180830381865afa15801561061c573d6000803e3d6000fd5b505050506040513d601f19601f8201168201806040525081019061064091906113ac565b6001600160a01b031614156106675760405162461bcd60e51b8152600401610253906113c9565b6000546040516330159c3760e11b81523360048201526706f05b59d3b20000916001600160a01b03169063602b386e90602401602060405180830381865afa1580156106b7573d6000803e3d6000fd5b505050506040513d601f19601f820116820180604052508101906106db91906116d8565b6106e7576106e76104b1565b600080546040516311b22beb60e31b81526001600160a01b03878116600483015290911690638d915f5890602401602060405180830381865afa158015610732573d6000803e3d6000fd5b505050506040513d601f19601f8201168201806040525081019061075691906113ac565b604051636c8bfbb560e11b81529091506001600160a01b0382169063d917f76a9061078790339088906004016116fa565b600060405180830381600087803b1580156107a157600080fd5b505af11580156107b5573d6000803e3d6000fd5b505060005460405163bec3fa1760e01b8152336004820152602481018690526001600160a01b03909116935063bec3fa1792506044019050600060405180830381600087803b15801561080757600080fd5b505af115801561081b573d6000803e3d6000fd5b5050505050505050565b600080546040516311b22beb60e31b81526001600160a01b0380881660048301528793921690638d915f5890602401602060405180830381865afa158015610871573d6000803e3d6000fd5b505050506040513d601f19601f8201168201806040525081019061089591906113ac565b6001600160a01b031614156108bc5760405162461bcd60e51b8152600401610253906113c9565b6000546040516330159c3760e11b815233600482015267016345785d8a0000916001600160a01b03169063602b386e90602401602060405180830381865afa15801561090c573d6000803e3d6000fd5b505050506040513d601f19601f8201168201806040525081019061093091906116d8565b61093c5761093c6104b1565b600080546040516311b22beb60e31b81526001600160a01b03898116600483015290911690638d915f5890602401602060405180830381865afa158015610987573d6000803e3d6000fd5b505050506040513d601f19601f820116820180604052508101906109ab91906113ac565b604051633073bdcf60e11b81523360048201526024810188905260448101879052606481018690529091506001600160a01b038216906360e77b9e90608401600060405180830381600087803b158015610a0457600080fd5b505af1158015610a18573d6000803e3d6000fd5b505060005460405163bec3fa1760e01b8152336004820152602481018690526001600160a01b03909116935063bec3fa17925060440190505b600060405180830381600087803b158015610a6b57600080fd5b505af1158015610a7f573d6000803e3d6000fd5b50505050505050505050565b600080546040516311b22beb60e31b81526001600160a01b0380871660048301528693921690638d915f5890602401602060405180830381865afa158015610ad7573d6000803e3d6000fd5b505050506040513d601f19601f82011682018060405250810190610afb91906113ac565b6001600160a01b03161415610b225760405162461bcd60e51b8152600401610253906113c9565b6000546040516330159c3760e11b815233600482015267016345785d8a0000916001600160a01b03169063602b386e90602401602060405180830381865afa158015610b72573d6000803e3d6000fd5b505050506040513d601f19601f82011682018060405250810190610b9691906116d8565b610ba257610ba26104b1565b600080546040516311b22beb60e31b81526001600160a01b03888116600483015290911690638d915f5890602401602060405180830381865afa158015610bed573d6000803e3d6000fd5b505050506040513d601f19601f82011682018060405250810190610c1191906113ac565b604051638211082760e01b81529091506001600160a01b03821690638211082790610c449033908990899060040161171e565b600060405180830381600087803b158015610c5e57600080fd5b505af1158015610c72573d6000803e3d6000fd5b505060005460405163bec3fa1760e01b8152336004820152602481018690526001600160a01b03909116935063bec3fa1792506044019050600060405180830381600087803b158015610cc457600080fd5b505af1158015610cd8573d6000803e3d6000fd5b505050505050505050565b60008054604051633aecd0e360e01b81526001600160a01b03848116600483015290911690633aecd0e390602401602060405180830381865afa158015610d2e573d6000803e3d6000fd5b505050506040513d601f19601f82011682018060405250810190610d529190611753565b92915050565b6000546040516330159c3760e11b8152336004820152670de0b6b3a7640000916001600160a01b03169063602b386e90602401602060405180830381865afa158015610da8573d6000803e3d6000fd5b505050506040513d601f19601f82011682018060405250810190610dcc91906116d8565b610dd857610dd86104b1565b6000546040516373db821f60e11b81526001600160a01b039091169063e7b7043e90610e10908990899089908990899060040161176c565b600060405180830381600087803b158015610e2a57600080fd5b505af1158015610e3e573d6000803e3d6000fd5b505060005460405163bec3fa1760e01b8152336004820152602481018590526001600160a01b03909116925063bec3fa179150604401610a51565b6040518060c0016040528060006001600160a01b0316815260200160608152602001606081526020016060815260200160006002811115610ebc57610ebc61101b565b8152602001610eec6040518060800160405280600081526020016000815260200160008152602001600081525090565b905290565b6001600160a01b0381168114610f0657600080fd5b50565b600060208284031215610f1b57600080fd5b8135610f2681610ef1565b9392505050565b60005b83811015610f48578181015183820152602001610f30565b838111156105ca5750506000910152565b60008151808452610f71816020860160208601610f2d565b601f01601f19169290920160200192915050565b60006020808301818452808551808352604092508286019150828160051b87010184880160005b8381101561100d57888303603f19018552815180516001600160a01b0316845287810151608089860181905290610fe582870182610f59565b838a0151878b0152606093840151939096019290925250509386019390860190600101610fac565b509098975050505050505050565b634e487b7160e01b600052602160045260246000fd5b600381106110415761104161101b565b9052565b602080825282516001600160a01b0316828201528201516101206040830181905260009190611078610140850183610f59565b91506040850151601f19808685030160608701526110968483610f59565b93506060870151915080868503016080870152506110b48382610f59565b92505060808501516110c960a0860182611031565b5060a09490940151805160c0850152602081015160e085015260408101516101008501526060015192909301919091525090565b634e487b7160e01b600052604160045260246000fd5b6040516080810167ffffffffffffffff81118282101715611136576111366110fd565b60405290565b60405160c0810167ffffffffffffffff81118282101715611136576111366110fd565b604051601f8201601f1916810167ffffffffffffffff81118282101715611188576111886110fd565b604052919050565b600067ffffffffffffffff8211156111aa576111aa6110fd565b50601f01601f191660200190565b600082601f8301126111c957600080fd5b81356111dc6111d782611190565b61115f565b8181528460208386010111156111f157600080fd5b816020850160208301376000918101602001919091529392505050565b6000806040838503121561122157600080fd5b823561122c81610ef1565b9150602083013567ffffffffffffffff81111561124857600080fd5b611254858286016111b8565b9150509250929050565b6000806000806080858703121561127457600080fd5b843561127f81610ef1565b966020860135965060408601359560600135945092505050565b6000806000606084860312156112ae57600080fd5b83356112b981610ef1565b9250602084013591506040840135600281106112d457600080fd5b809150509250925092565b60038110610f0657600080fd5b600080600080600060a0868803121561130457600080fd5b853561130f81610ef1565b9450602086013567ffffffffffffffff8082111561132c57600080fd5b61133889838a016111b8565b9550604088013591508082111561134e57600080fd5b61135a89838a016111b8565b9450606088013591508082111561137057600080fd5b5061137d888289016111b8565b925050608086013561138e816112df565b809150509295509295909350565b80516113a781610ef1565b919050565b6000602082840312156113be57600080fd5b8151610f2681610ef1565b6020808252604b908201527f536f7272792074686973206173736574206973206e6f7420617661696c61626c60408201527f652c20506c6561736520636f6e736964657220616464696e6720697420746f2060608201526a3a34329039bcb9ba32b69760a91b608082015260a00190565b600082601f83011261144b57600080fd5b81516114596111d782611190565b81815284602083860101111561146e57600080fd5b610333826020830160208701610f2d565b6000602080838503121561149257600080fd5b825167ffffffffffffffff808211156114aa57600080fd5b818501915085601f8301126114be57600080fd5b8151818111156114d0576114d06110fd565b8060051b6114df85820161115f565b91825283810185019185810190898411156114f957600080fd5b86860192505b83831015611592578251858111156115175760008081fd5b86016080818c03601f190181131561152f5760008081fd5b611537611113565b8983015161154481610ef1565b81526040838101518981111561155a5760008081fd5b6115688f8d8388010161143a565b838d01525060608481015191830191909152919092015190820152825291860191908601906114ff565b9998505050505050505050565b80516113a7816112df565b6000608082840312156115bc57600080fd5b6115c4611113565b90508151815260208201516020820152604082015160408201526060820151606082015292915050565b60006020828403121561160057600080fd5b815167ffffffffffffffff8082111561161857600080fd5b90830190610120828603121561162d57600080fd5b61163561113c565b61163e8361139c565b815260208301518281111561165257600080fd5b61165e8782860161143a565b60208301525060408301518281111561167657600080fd5b6116828782860161143a565b60408301525060608301518281111561169a57600080fd5b6116a68782860161143a565b6060830152506116b86080840161159f565b60808201526116ca8660a085016115aa565b60a082015295945050505050565b6000602082840312156116ea57600080fd5b81518015158114610f2657600080fd5b6001600160a01b038316815260406020820181905260009061033390830184610f59565b6001600160a01b03841681526020810183905260608101600283106117455761174561101b565b826040830152949350505050565b60006020828403121561176557600080fd5b5051919050565b6001600160a01b038616815260a06020820181905260009061179090830187610f59565b82810360408401526117a28187610f59565b905082810360608401526117b68186610f59565b9150506117c66080830184611031565b969550505050505056fea26469706673582212206fc86f6a45f1dfa334f86efc19d2fa3b31848c506f50039f5a7ca6f91d80f9e564736f6c634300080a0033",
  "bytecodeSha1": "775ec9de4f4b32fba80626dd519cd6aabba96cc6",
  "compiler": {
    "evm_version": "istanbul",
    "optimizer": {
      "enabled": true,
      "runs": 200
    },
    "version": "0.8.10+commit.fc410830"
  },
  "contractName": "CommunityAudits",
  "language": "Solidity",
  "natspec": {
    "kind": "dev",
    "methods": {},
    "version": 1
  },
  "opcodes": "PUSH1 0x80 PUSH1 0x40 MSTORE PUSH1 0x4 CALLDATASIZE LT PUSH2 0x86 JUMPI PUSH1 0x0 CALLDATALOAD PUSH1 0xE0 SHR DUP1 PUSH4 0x73D4A13A GT PUSH2 0x59 JUMPI DUP1 PUSH4 0x73D4A13A EQ PUSH2 0x118 JUMPI DUP1 PUSH4 0x812EABE0 EQ PUSH2 0x150 JUMPI DUP1 PUSH4 0x82110827 EQ PUSH2 0x163 JUMPI DUP1 PUSH4 0xDE5E527E EQ PUSH2 0x176 JUMPI DUP1 PUSH4 0xE7B7043E EQ PUSH2 0x1A4 JUMPI PUSH1 0x0 DUP1 REVERT JUMPDEST DUP1 PUSH4 0xDF19082 EQ PUSH2 0x8B JUMPI DUP1 PUSH4 0x24D7BF6F EQ PUSH2 0xC1 JUMPI DUP1 PUSH4 0x4D3820EB EQ PUSH2 0xEE JUMPI DUP1 PUSH4 0x68684A8B EQ PUSH2 0x105 JUMPI JUMPDEST PUSH1 0x0 DUP1 REVERT JUMPDEST CALLVALUE DUP1 ISZERO PUSH2 0x97 JUMPI PUSH1 0x0 DUP1 REVERT JUMPDEST POP PUSH2 0xAB PUSH2 0xA6 CALLDATASIZE PUSH1 0x4 PUSH2 0xF09 JUMP JUMPDEST PUSH2 0x1B7 JUMP JUMPDEST PUSH1 0x40 MLOAD PUSH2 0xB8 SWAP2 SWAP1 PUSH2 0xF85 JUMP JUMPDEST PUSH1 0x40 MLOAD DUP1 SWAP2 SUB SWAP1 RETURN JUMPDEST CALLVALUE DUP1 ISZERO PUSH2 0xCD JUMPI PUSH1 0x0 DUP1 REVERT JUMPDEST POP PUSH2 0xE1 PUSH2 0xDC CALLDATASIZE PUSH1 0x4 PUSH2 0xF09 JUMP JUMPDEST PUSH2 0x33B JUMP JUMPDEST PUSH1 0x40 MLOAD PUSH2 0xB8 SWAP2 SWAP1 PUSH2 0x1045 JUMP JUMPDEST CALLVALUE DUP1 ISZERO PUSH2 0xFA JUMPI PUSH1 0x0 DUP1 REVERT JUMPDEST POP PUSH2 0x103 PUSH2 0x4B1 JUMP JUMPDEST STOP JUMPDEST PUSH2 0x103 PUSH2 0x113 CALLDATASIZE PUSH1 0x4 PUSH2 0x120E JUMP JUMPDEST PUSH2 0x5D0 JUMP JUMPDEST CALLVALUE DUP1 ISZERO PUSH2 0x124 JUMPI PUSH1 0x0 DUP1 REVERT JUMPDEST POP PUSH1 0x0 SLOAD PUSH2 0x138 SWAP1 PUSH1 0x1 PUSH1 0x1 PUSH1 0xA0 SHL SUB AND DUP2 JUMP JUMPDEST PUSH1 0x40 MLOAD PUSH1 0x1 PUSH1 0x1 PUSH1 0xA0 SHL SUB SWAP1 SWAP2 AND DUP2 MSTORE PUSH1 0x20 ADD PUSH2 0xB8 JUMP JUMPDEST PUSH2 0x103 PUSH2 0x15E CALLDATASIZE PUSH1 0x4 PUSH2 0x125E JUMP JUMPDEST PUSH2 0x825 JUMP JUMPDEST PUSH2 0x103 PUSH2 0x171 CALLDATASIZE PUSH1 0x4 PUSH2 0x1299 JUMP JUMPDEST PUSH2 0xA8B JUMP JUMPDEST CALLVALUE DUP1 ISZERO PUSH2 0x182 JUMPI PUSH1 0x0 DUP1 REVERT JUMPDEST POP PUSH2 0x196 PUSH2 0x191 CALLDATASIZE PUSH1 0x4 PUSH2 0xF09 JUMP JUMPDEST PUSH2 0xCE3 JUMP JUMPDEST PUSH1 0x40 MLOAD SWAP1 DUP2 MSTORE PUSH1 0x20 ADD PUSH2 0xB8 JUMP JUMPDEST PUSH2 0x103 PUSH2 0x1B2 CALLDATASIZE PUSH1 0x4 PUSH2 0x12EC JUMP JUMPDEST PUSH2 0xD58 JUMP JUMPDEST PUSH1 0x0 DUP1 SLOAD PUSH1 0x40 MLOAD PUSH4 0x11B22BEB PUSH1 0xE3 SHL DUP2 MSTORE PUSH1 0x1 PUSH1 0x1 PUSH1 0xA0 SHL SUB DUP1 DUP6 AND PUSH1 0x4 DUP4 ADD MSTORE PUSH1 0x60 SWAP4 DUP6 SWAP4 SWAP1 SWAP3 SWAP2 AND SWAP1 PUSH4 0x8D915F58 SWAP1 PUSH1 0x24 ADD PUSH1 0x20 PUSH1 0x40 MLOAD DUP1 DUP4 SUB DUP2 DUP7 GAS STATICCALL ISZERO DUP1 ISZERO PUSH2 0x208 JUMPI RETURNDATASIZE PUSH1 0x0 DUP1 RETURNDATACOPY RETURNDATASIZE PUSH1 0x0 REVERT JUMPDEST POP POP POP POP PUSH1 0x40 MLOAD RETURNDATASIZE PUSH1 0x1F NOT PUSH1 0x1F DUP3 ADD AND DUP3 ADD DUP1 PUSH1 0x40 MSTORE POP DUP2 ADD SWAP1 PUSH2 0x22C SWAP2 SWAP1 PUSH2 0x13AC JUMP JUMPDEST PUSH1 0x1 PUSH1 0x1 PUSH1 0xA0 SHL SUB AND EQ ISZERO PUSH2 0x25C JUMPI PUSH1 0x40 MLOAD PUSH3 0x461BCD PUSH1 0xE5 SHL DUP2 MSTORE PUSH1 0x4 ADD PUSH2 0x253 SWAP1 PUSH2 0x13C9 JUMP JUMPDEST PUSH1 0x40 MLOAD DUP1 SWAP2 SUB SWAP1 REVERT JUMPDEST PUSH1 0x0 DUP1 SLOAD PUSH1 0x40 MLOAD PUSH4 0x11B22BEB PUSH1 0xE3 SHL DUP2 MSTORE PUSH1 0x1 PUSH1 0x1 PUSH1 0xA0 SHL SUB DUP7 DUP2 AND PUSH1 0x4 DUP4 ADD MSTORE SWAP1 SWAP2 AND SWAP1 PUSH4 0x8D915F58 SWAP1 PUSH1 0x24 ADD PUSH1 0x20 PUSH1 0x40 MLOAD DUP1 DUP4 SUB DUP2 DUP7 GAS STATICCALL ISZERO DUP1 ISZERO PUSH2 0x2A7 JUMPI RETURNDATASIZE PUSH1 0x0 DUP1 RETURNDATACOPY RETURNDATASIZE PUSH1 0x0 REVERT JUMPDEST POP POP POP POP PUSH1 0x40 MLOAD RETURNDATASIZE PUSH1 0x1F NOT PUSH1 0x1F DUP3 ADD AND DUP3 ADD DUP1 PUSH1 0x40 MSTORE POP DUP2 ADD SWAP1 PUSH2 0x2CB SWAP2 SWAP1 PUSH2 0x13AC JUMP JUMPDEST SWAP1 POP DUP1 PUSH1 0x1 PUSH1 0x1 PUSH1 0xA0 SHL SUB AND PUSH4 0x91F3410C PUSH1 0x40 MLOAD DUP2 PUSH4 0xFFFFFFFF AND PUSH1 0xE0 SHL DUP2 MSTORE PUSH1 0x4 ADD PUSH1 0x0 PUSH1 0x40 MLOAD DUP1 DUP4 SUB DUP2 DUP7 GAS STATICCALL ISZERO DUP1 ISZERO PUSH2 0x30B JUMPI RETURNDATASIZE PUSH1 0x0 DUP1 RETURNDATACOPY RETURNDATASIZE PUSH1 0x0 REVERT JUMPDEST POP POP POP POP PUSH1 0x40 MLOAD RETURNDATASIZE PUSH1 0x0 DUP3 RETURNDATACOPY PUSH1 0x1F RETURNDATASIZE SWAP1 DUP2 ADD PUSH1 0x1F NOT AND DUP3 ADD PUSH1 0x40 MSTORE PUSH2 0x333 SWAP2 SWAP1 DUP2 ADD SWAP1 PUSH2 0x147F JUMP JUMPDEST SWAP5 SWAP4 POP POP POP POP JUMP JUMPDEST PUSH2 0x343 PUSH2 0xE79 JUMP JUMPDEST PUSH1 0x0 DUP1 SLOAD PUSH1 0x40 MLOAD PUSH4 0x11B22BEB PUSH1 0xE3 SHL DUP2 MSTORE PUSH1 0x1 PUSH1 0x1 PUSH1 0xA0 SHL SUB DUP1 DUP7 AND PUSH1 0x4 DUP4 ADD MSTORE DUP6 SWAP4 SWAP3 AND SWAP1 PUSH4 0x8D915F58 SWAP1 PUSH1 0x24 ADD PUSH1 0x20 PUSH1 0x40 MLOAD DUP1 DUP4 SUB DUP2 DUP7 GAS STATICCALL ISZERO DUP1 ISZERO PUSH2 0x38F JUMPI RETURNDATASIZE PUSH1 0x0 DUP1 RETURNDATACOPY RETURNDATASIZE PUSH1 0x0 REVERT JUMPDEST POP POP POP POP PUSH1 0x40 MLOAD RETURNDATASIZE PUSH1 0x1F NOT PUSH1 0x1F DUP3 ADD AND DUP3 ADD DUP1 PUSH1 0x40 MSTORE POP DUP2 ADD SWAP1 PUSH2 0x3B3 SWAP2 SWAP1 PUSH2 0x13AC JUMP JUMPDEST PUSH1 0x1 PUSH1 0x1 PUSH1 0xA0 SHL SUB AND EQ ISZERO PUSH2 0x3DA JUMPI PUSH1 0x40 MLOAD PUSH3 0x461BCD PUSH1 0xE5 SHL DUP2 MSTORE PUSH1 0x4 ADD PUSH2 0x253 SWAP1 PUSH2 0x13C9 JUMP JUMPDEST PUSH1 0x0 DUP1 SLOAD PUSH1 0x40 MLOAD PUSH4 0x11B22BEB PUSH1 0xE3 SHL DUP2 MSTORE PUSH1 0x1 PUSH1 0x1 PUSH1 0xA0 SHL SUB DUP7 DUP2 AND PUSH1 0x4 DUP4 ADD MSTORE SWAP1 SWAP2 AND SWAP1 PUSH4 0x8D915F58 SWAP1 PUSH1 0x24 ADD PUSH1 0x20 PUSH1 0x40 MLOAD DUP1 DUP4 SUB DUP2 DUP7 GAS STATICCALL ISZERO DUP1 ISZERO PUSH2 0x425 JUMPI RETURNDATASIZE PUSH1 0x0 DUP1 RETURNDATACOPY RETURNDATASIZE PUSH1 0x0 REVERT JUMPDEST POP POP POP POP PUSH1 0x40 MLOAD RETURNDATASIZE PUSH1 0x1F NOT PUSH1 0x1F DUP3 ADD AND DUP3 ADD DUP1 PUSH1 0x40 MSTORE POP DUP2 ADD SWAP1 PUSH2 0x449 SWAP2 SWAP1 PUSH2 0x13AC JUMP JUMPDEST SWAP1 POP DUP1 PUSH1 0x1 PUSH1 0x1 PUSH1 0xA0 SHL SUB AND PUSH4 0x73D4A13A PUSH1 0x40 MLOAD DUP2 PUSH4 0xFFFFFFFF AND PUSH1 0xE0 SHL DUP2 MSTORE PUSH1 0x4 ADD PUSH1 0x0 PUSH1 0x40 MLOAD DUP1 DUP4 SUB DUP2 DUP7 GAS STATICCALL ISZERO DUP1 ISZERO PUSH2 0x489 JUMPI RETURNDATASIZE PUSH1 0x0 DUP1 RETURNDATACOPY RETURNDATASIZE PUSH1 0x0 REVERT JUMPDEST POP POP POP POP PUSH1 0x40 MLOAD RETURNDATASIZE PUSH1 0x0 DUP3 RETURNDATACOPY PUSH1 0x1F RETURNDATASIZE SWAP1 DUP2 ADD PUSH1 0x1F NOT AND DUP3 ADD PUSH1 0x40 MSTORE PUSH2 0x333 SWAP2 SWAP1 DUP2 ADD SWAP1 PUSH2 0x15EE JUMP JUMPDEST PUSH1 0x0 SLOAD PUSH1 0x40 MLOAD PUSH4 0x30159C37 PUSH1 0xE1 SHL DUP2 MSTORE CALLER PUSH1 0x4 DUP3 ADD MSTORE PUSH1 0x1 PUSH1 0x1 PUSH1 0xA0 SHL SUB SWAP1 SWAP2 AND SWAP1 PUSH4 0x602B386E SWAP1 PUSH1 0x24 ADD PUSH1 0x20 PUSH1 0x40 MLOAD DUP1 DUP4 SUB DUP2 DUP7 GAS STATICCALL ISZERO DUP1 ISZERO PUSH2 0x4F9 JUMPI RETURNDATASIZE PUSH1 0x0 DUP1 RETURNDATACOPY RETURNDATASIZE PUSH1 0x0 REVERT JUMPDEST POP POP POP POP PUSH1 0x40 MLOAD RETURNDATASIZE PUSH1 0x1F NOT PUSH1 0x1F DUP3 ADD AND DUP3 ADD DUP1 PUSH1 0x40 MSTORE POP DUP2 ADD SWAP1 PUSH2 0x51D SWAP2 SWAP1 PUSH2 0x16D8 JUMP JUMPDEST ISZERO PUSH2 0x56A JUMPI PUSH1 0x40 MLOAD PUSH3 0x461BCD PUSH1 0xE5 SHL DUP2 MSTORE PUSH1 0x20 PUSH1 0x4 DUP3 ADD MSTORE PUSH1 0x18 PUSH1 0x24 DUP3 ADD MSTORE PUSH32 0x5573657220616C726561647920726567697374657265642E0000000000000000 PUSH1 0x44 DUP3 ADD MSTORE PUSH1 0x64 ADD PUSH2 0x253 JUMP JUMPDEST PUSH1 0x0 DUP1 SLOAD PUSH1 0x40 MLOAD PUSH4 0xFA0B5E55 PUSH1 0xE0 SHL DUP2 MSTORE CALLER PUSH1 0x4 DUP3 ADD MSTORE PUSH1 0x24 DUP2 ADD SWAP3 SWAP1 SWAP3 MSTORE PUSH1 0x1 PUSH1 0x1 PUSH1 0xA0 SHL SUB AND SWAP1 PUSH4 0xFA0B5E55 SWAP1 PUSH1 0x44 ADD PUSH1 0x0 PUSH1 0x40 MLOAD DUP1 DUP4 SUB DUP2 PUSH1 0x0 DUP8 DUP1 EXTCODESIZE ISZERO DUP1 ISZERO PUSH2 0x5B6 JUMPI PUSH1 0x0 DUP1 REVERT JUMPDEST POP GAS CALL ISZERO DUP1 ISZERO PUSH2 0x5CA JUMPI RETURNDATASIZE PUSH1 0x0 DUP1 RETURNDATACOPY RETURNDATASIZE PUSH1 0x0 REVERT JUMPDEST POP POP POP POP JUMP JUMPDEST PUSH1 0x0 DUP1 SLOAD PUSH1 0x40 MLOAD PUSH4 0x11B22BEB PUSH1 0xE3 SHL DUP2 MSTORE PUSH1 0x1 PUSH1 0x1 PUSH1 0xA0 SHL SUB DUP1 DUP7 AND PUSH1 0x4 DUP4 ADD MSTORE DUP6 SWAP4 SWAP3 AND SWAP1 PUSH4 0x8D915F58 SWAP1 PUSH1 0x24 ADD PUSH1 0x20 PUSH1 0x40 MLOAD DUP1 DUP4 SUB DUP2 DUP7 GAS STATICCALL ISZERO DUP1 ISZERO PUSH2 0x61C JUMPI RETURNDATASIZE PUSH1 0x0 DUP1 RETURNDATACOPY RETURNDATASIZE PUSH1 0x0 REVERT JUMPDEST POP POP POP POP PUSH1 0x40 MLOAD RETURNDATASIZE PUSH1 0x1F NOT PUSH1 0x1F DUP3 ADD AND DUP3 ADD DUP1 PUSH1 0x40 MSTORE POP DUP2 ADD SWAP1 PUSH2 0x640 SWAP2 SWAP1 PUSH2 0x13AC JUMP JUMPDEST PUSH1 0x1 PUSH1 0x1 PUSH1 0xA0 SHL SUB AND EQ ISZERO PUSH2 0x667 JUMPI PUSH1 0x40 MLOAD PUSH3 0x461BCD PUSH1 0xE5 SHL DUP2 MSTORE PUSH1 0x4 ADD PUSH2 0x253 SWAP1 PUSH2 0x13C9 JUMP JUMPDEST PUSH1 0x0 SLOAD PUSH1 0x40 MLOAD PUSH4 0x30159C37 PUSH1 0xE1 SHL DUP2 MSTORE CALLER PUSH1 0x4 DUP3 ADD MSTORE PUSH8 0x6F05B59D3B20000 SWAP2 PUSH1 0x1 PUSH1 0x1 PUSH1 0xA0 SHL SUB AND SWAP1 PUSH4 0x602B386E SWAP1 PUSH1 0x24 ADD PUSH1 0x20 PUSH1 0x40 MLOAD DUP1 DUP4 SUB DUP2 DUP7 GAS STATICCALL ISZERO DUP1 ISZERO PUSH2 0x6B7 JUMPI RETURNDATASIZE PUSH1 0x0 DUP1 RETURNDATACOPY RETURNDATASIZE PUSH1 0x0 REVERT JUMPDEST POP POP POP POP PUSH1 0x40 MLOAD RETURNDATASIZE PUSH1 0x1F NOT PUSH1 0x1F DUP3 ADD AND DUP3 ADD DUP1 PUSH1 0x40 MSTORE POP DUP2 ADD SWAP1 PUSH2 0x6DB SWAP2 SWAP1 PUSH2 0x16D8 JUMP JUMPDEST PUSH2 0x6E7 JUMPI PUSH2 0x6E7 PUSH2 0x4B1 JUMP JUMPDEST PUSH1 0x0 DUP1 SLOAD PUSH1 0x40 MLOAD PUSH4 0x11B22BEB PUSH1 0xE3 SHL DUP2 MSTORE PUSH1 0x1 PUSH1 0x1 PUSH1 0xA0 SHL SUB DUP8 DUP2 AND PUSH1 0x4 DUP4 ADD MSTORE SWAP1 SWAP2 AND SWAP1 PUSH4 0x8D915F58 SWAP1 PUSH1 0x24 ADD PUSH1 0x20 PUSH1 0x40 MLOAD DUP1 DUP4 SUB DUP2 DUP7 GAS STATICCALL ISZERO DUP1 ISZERO PUSH2 0x732 JUMPI RETURNDATASIZE PUSH1 0x0 DUP1 RETURNDATACOPY RETURNDATASIZE PUSH1 0x0 REVERT JUMPDEST POP POP POP POP PUSH1 0x40 MLOAD RETURNDATASIZE PUSH1 0x1F NOT PUSH1 0x1F DUP3 ADD AND DUP3 ADD DUP1 PUSH1 0x40 MSTORE POP DUP2 ADD SWAP1 PUSH2 0x756 SWAP2 SWAP1 PUSH2 0x13AC JUMP JUMPDEST PUSH1 0x40 MLOAD PUSH4 0x6C8BFBB5 PUSH1 0xE1 SHL DUP2 MSTORE SWAP1 SWAP2 POP PUSH1 0x1 PUSH1 0x1 PUSH1 0xA0 SHL SUB DUP3 AND SWAP1 PUSH4 0xD917F76A SWAP1 PUSH2 0x787 SWAP1 CALLER SWAP1 DUP9 SWAP1 PUSH1 0x4 ADD PUSH2 0x16FA JUMP JUMPDEST PUSH1 0x0 PUSH1 0x40 MLOAD DUP1 DUP4 SUB DUP2 PUSH1 0x0 DUP8 DUP1 EXTCODESIZE ISZERO DUP1 ISZERO PUSH2 0x7A1 JUMPI PUSH1 0x0 DUP1 REVERT JUMPDEST POP GAS CALL ISZERO DUP1 ISZERO PUSH2 0x7B5 JUMPI RETURNDATASIZE PUSH1 0x0 DUP1 RETURNDATACOPY RETURNDATASIZE PUSH1 0x0 REVERT JUMPDEST POP POP PUSH1 0x0 SLOAD PUSH1 0x40 MLOAD PUSH4 0xBEC3FA17 PUSH1 0xE0 SHL DUP2 MSTORE CALLER PUSH1 0x4 DUP3 ADD MSTORE PUSH1 0x24 DUP2 ADD DUP7 SWAP1 MSTORE PUSH1 0x1 PUSH1 0x1 PUSH1 0xA0 SHL SUB SWAP1 SWAP2 AND SWAP4 POP PUSH4 0xBEC3FA17 SWAP3 POP PUSH1 0x44 ADD SWAP1 POP PUSH1 0x0 PUSH1 0x40 MLOAD DUP1 DUP4 SUB DUP2 PUSH1 0x0 DUP8 DUP1 EXTCODESIZE ISZERO DUP1 ISZERO PUSH2 0x807 JUMPI PUSH1 0x0 DUP1 REVERT JUMPDEST POP GAS CALL ISZERO DUP1 ISZERO PUSH2 0x81B JUMPI RETURNDATASIZE PUSH1 0x0 DUP1 RETURNDATACOPY RETURNDATASIZE PUSH1 0x0 REVERT JUMPDEST POP POP POP POP POP POP POP POP JUMP JUMPDEST PUSH1 0x0 DUP1 SLOAD PUSH1 0x40 MLOAD PUSH4 0x11B22BEB PUSH1 0xE3 SHL DUP2 MSTORE PUSH1 0x1 PUSH1 0x1 PUSH1 0xA0 SHL SUB DUP1 DUP9 AND PUSH1 0x4 DUP4 ADD MSTORE DUP8 SWAP4 SWAP3 AND SWAP1 PUSH4 0x8D915F58 SWAP1 PUSH1 0x24 ADD PUSH1 0x20 PUSH1 0x40 MLOAD DUP1 DUP4 SUB DUP2 DUP7 GAS STATICCALL ISZERO DUP1 ISZERO PUSH2 0x871 JUMPI RETURNDATASIZE PUSH1 0x0 DUP1 RETURNDATACOPY RETURNDATASIZE PUSH1 0x0 REVERT JUMPDEST POP POP POP POP PUSH1 0x40 MLOAD RETURNDATASIZE PUSH1 0x1F NOT PUSH1 0x1F DUP3 ADD AND DUP3 ADD DUP1 PUSH1 0x40 MSTORE POP DUP2 ADD SWAP1 PUSH2 0x895 SWAP2 SWAP1 PUSH2 0x13AC JUMP JUMPDEST PUSH1 0x1 PUSH1 0x1 PUSH1 0xA0 SHL SUB AND EQ ISZERO PUSH2 0x8BC JUMPI PUSH1 0x40 MLOAD PUSH3 0x461BCD PUSH1 0xE5 SHL DUP2 MSTORE PUSH1 0x4 ADD PUSH2 0x253 SWAP1 PUSH2 0x13C9 JUMP JUMPDEST PUSH1 0x0 SLOAD PUSH1 0x40 MLOAD PUSH4 0x30159C37 PUSH1 0xE1 SHL DUP2 MSTORE CALLER PUSH1 0x4 DUP3 ADD MSTORE PUSH8 0x16345785D8A0000 SWAP2 PUSH1 0x1 PUSH1 0x1 PUSH1 0xA0 SHL SUB AND SWAP1 PUSH4 0x602B386E SWAP1 PUSH1 0x24 ADD PUSH1 0x20 PUSH1 0x40 MLOAD DUP1 DUP4 SUB DUP2 DUP7 GAS STATICCALL ISZERO DUP1 ISZERO PUSH2 0x90C JUMPI RETURNDATASIZE PUSH1 0x0 DUP1 RETURNDATACOPY RETURNDATASIZE PUSH1 0x0 REVERT JUMPDEST POP POP POP POP PUSH1 0x40 MLOAD RETURNDATASIZE PUSH1 0x1F NOT PUSH1 0x1F DUP3 ADD AND DUP3 ADD DUP1 PUSH1 0x40 MSTORE POP DUP2 ADD SWAP1 PUSH2 0x930 SWAP2 SWAP1 PUSH2 0x16D8 JUMP JUMPDEST PUSH2 0x93C JUMPI PUSH2 0x93C PUSH2 0x4B1 JUMP JUMPDEST PUSH1 0x0 DUP1 SLOAD PUSH1 0x40 MLOAD PUSH4 0x11B22BEB PUSH1 0xE3 SHL DUP2 MSTORE PUSH1 0x1 PUSH1 0x1 PUSH1 0xA0 SHL SUB DUP10 DUP2 AND PUSH1 0x4 DUP4 ADD MSTORE SWAP1 SWAP2 AND SWAP1 PUSH4 0x8D915F58 SWAP1 PUSH1 0x24 ADD PUSH1 0x20 PUSH1 0x40 MLOAD DUP1 DUP4 SUB DUP2 DUP7 GAS STATICCALL ISZERO DUP1 ISZERO PUSH2 0x987 JUMPI RETURNDATASIZE PUSH1 0x0 DUP1 RETURNDATACOPY RETURNDATASIZE PUSH1 0x0 REVERT JUMPDEST POP POP POP POP PUSH1 0x40 MLOAD RETURNDATASIZE PUSH1 0x1F NOT PUSH1 0x1F DUP3 ADD AND DUP3 ADD DUP1 PUSH1 0x40 MSTORE POP DUP2 ADD SWAP1 PUSH2 0x9AB SWAP2 SWAP1 PUSH2 0x13AC JUMP JUMPDEST PUSH1 0x40 MLOAD PUSH4 0x3073BDCF PUSH1 0xE1 SHL DUP2 MSTORE CALLER PUSH1 0x4 DUP3 ADD MSTORE PUSH1 0x24 DUP2 ADD DUP9 SWAP1 MSTORE PUSH1 0x44 DUP2 ADD DUP8 SWAP1 MSTORE PUSH1 0x64 DUP2 ADD DUP7 SWAP1 MSTORE SWAP1 SWAP2 POP PUSH1 0x1 PUSH1 0x1 PUSH1 0xA0 SHL SUB DUP3 AND SWAP1 PUSH4 0x60E77B9E SWAP1 PUSH1 0x84 ADD PUSH1 0x0 PUSH1 0x40 MLOAD DUP1 DUP4 SUB DUP2 PUSH1 0x0 DUP8 DUP1 EXTCODESIZE ISZERO DUP1 ISZERO PUSH2 0xA04 JUMPI PUSH1 0x0 DUP1 REVERT JUMPDEST POP GAS CALL ISZERO DUP1 ISZERO PUSH2 0xA18 JUMPI RETURNDATASIZE PUSH1 0x0 DUP1 RETURNDATACOPY RETURNDATASIZE PUSH1 0x0 REVERT JUMPDEST POP POP PUSH1 0x0 SLOAD PUSH1 0x40 MLOAD PUSH4 0xBEC3FA17 PUSH1 0xE0 SHL DUP2 MSTORE CALLER PUSH1 0x4 DUP3 ADD MSTORE PUSH1 0x24 DUP2 ADD DUP7 SWAP1 MSTORE PUSH1 0x1 PUSH1 0x1 PUSH1 0xA0 SHL SUB SWAP1 SWAP2 AND SWAP4 POP PUSH4 0xBEC3FA17 SWAP3 POP PUSH1 0x44 ADD SWAP1 POP JUMPDEST PUSH1 0x0 PUSH1 0x40 MLOAD DUP1 DUP4 SUB DUP2 PUSH1 0x0 DUP8 DUP1 EXTCODESIZE ISZERO DUP1 ISZERO PUSH2 0xA6B JUMPI PUSH1 0x0 DUP1 REVERT JUMPDEST POP GAS CALL ISZERO DUP1 ISZERO PUSH2 0xA7F JUMPI RETURNDATASIZE PUSH1 0x0 DUP1 RETURNDATACOPY RETURNDATASIZE PUSH1 0x0 REVERT JUMPDEST POP POP POP POP POP POP POP POP POP POP JUMP JUMPDEST PUSH1 0x0 DUP1 SLOAD PUSH1 0x40 MLOAD PUSH4 0x11B22BEB PUSH1 0xE3 SHL DUP2 MSTORE PUSH1 0x1 PUSH1 0x1 PUSH1 0xA0 SHL SUB DUP1 DUP8 AND PUSH1 0x4 DUP4 ADD MSTORE DUP7 SWAP4 SWAP3 AND SWAP1 PUSH4 0x8D915F58 SWAP1 PUSH1 0x24 ADD PUSH1 0x20 PUSH1 0x40 MLOAD DUP1 DUP4 SUB DUP2 DUP7 GAS STATICCALL ISZERO DUP1 ISZERO PUSH2 0xAD7 JUMPI RETURNDATASIZE PUSH1 0x0 DUP1 RETURNDATACOPY RETURNDATASIZE PUSH1 0x0 REVERT JUMPDEST POP POP POP POP PUSH1 0x40 MLOAD RETURNDATASIZE PUSH1 0x1F NOT PUSH1 0x1F DUP3 ADD AND DUP3 ADD DUP1 PUSH1 0x40 MSTORE POP DUP2 ADD SWAP1 PUSH2 0xAFB SWAP2 SWAP1 PUSH2 0x13AC JUMP JUMPDEST PUSH1 0x1 PUSH1 0x1 PUSH1 0xA0 SHL SUB AND EQ ISZERO PUSH2 0xB22 JUMPI PUSH1 0x40 MLOAD PUSH3 0x461BCD PUSH1 0xE5 SHL DUP2 MSTORE PUSH1 0x4 ADD PUSH2 0x253 SWAP1 PUSH2 0x13C9 JUMP JUMPDEST PUSH1 0x0 SLOAD PUSH1 0x40 MLOAD PUSH4 0x30159C37 PUSH1 0xE1 SHL DUP2 MSTORE CALLER PUSH1 0x4 DUP3 ADD MSTORE PUSH8 0x16345785D8A0000 SWAP2 PUSH1 0x1 PUSH1 0x1 PUSH1 0xA0 SHL SUB AND SWAP1 PUSH4 0x602B386E SWAP1 PUSH1 0x24 ADD PUSH1 0x20 PUSH1 0x40 MLOAD DUP1 DUP4 SUB DUP2 DUP7 GAS STATICCALL ISZERO DUP1 ISZERO PUSH2 0xB72 JUMPI RETURNDATASIZE PUSH1 0x0 DUP1 RETURNDATACOPY RETURNDATASIZE PUSH1 0x0 REVERT JUMPDEST POP POP POP POP PUSH1 0x40 MLOAD RETURNDATASIZE PUSH1 0x1F NOT PUSH1 0x1F DUP3 ADD AND DUP3 ADD DUP1 PUSH1 0x40 MSTORE POP DUP2 ADD SWAP1 PUSH2 0xB96 SWAP2 SWAP1 PUSH2 0x16D8 JUMP JUMPDEST PUSH2 0xBA2 JUMPI PUSH2 0xBA2 PUSH2 0x4B1 JUMP JUMPDEST PUSH1 0x0 DUP1 SLOAD PUSH1 0x40 MLOAD PUSH4 0x11B22BEB PUSH1 0xE3 SHL DUP2 MSTORE PUSH1 0x1 PUSH1 0x1 PUSH1 0xA0 SHL SUB DUP9 DUP2 AND PUSH1 0x4 DUP4 ADD MSTORE SWAP1 SWAP2 AND SWAP1 PUSH4 0x8D915F58 SWAP1 PUSH1 0x24 ADD PUSH1 0x20 PUSH1 0x40 MLOAD DUP1 DUP4 SUB DUP2 DUP7 GAS STATICCALL ISZERO DUP1 ISZERO PUSH2 0xBED JUMPI RETURNDATASIZE PUSH1 0x0 DUP1 RETURNDATACOPY RETURNDATASIZE PUSH1 0x0 REVERT JUMPDEST POP POP POP POP PUSH1 0x40 MLOAD RETURNDATASIZE PUSH1 0x1F NOT PUSH1 0x1F DUP3 ADD AND DUP3 ADD DUP1 PUSH1 0x40 MSTORE POP DUP2 ADD SWAP1 PUSH2 0xC11 SWAP2 SWAP1 PUSH2 0x13AC JUMP JUMPDEST PUSH1 0x40 MLOAD PUSH4 0x82110827 PUSH1 0xE0 SHL DUP2 MSTORE SWAP1 SWAP2 POP PUSH1 0x1 PUSH1 0x1 PUSH1 0xA0 SHL SUB DUP3 AND SWAP1 PUSH4 0x82110827 SWAP1 PUSH2 0xC44 SWAP1 CALLER SWAP1 DUP10 SWAP1 DUP10 SWAP1 PUSH1 0x4 ADD PUSH2 0x171E JUMP JUMPDEST PUSH1 0x0 PUSH1 0x40 MLOAD DUP1 DUP4 SUB DUP2 PUSH1 0x0 DUP8 DUP1 EXTCODESIZE ISZERO DUP1 ISZERO PUSH2 0xC5E JUMPI PUSH1 0x0 DUP1 REVERT JUMPDEST POP GAS CALL ISZERO DUP1 ISZERO PUSH2 0xC72 JUMPI RETURNDATASIZE PUSH1 0x0 DUP1 RETURNDATACOPY RETURNDATASIZE PUSH1 0x0 REVERT JUMPDEST POP POP PUSH1 0x0 SLOAD PUSH1 0x40 MLOAD PUSH4 0xBEC3FA17 PUSH1 0xE0 SHL DUP2 MSTORE CALLER PUSH1 0x4 DUP3 ADD MSTORE PUSH1 0x24 DUP2 ADD DUP7 SWAP1 MSTORE PUSH1 0x1 PUSH1 0x1 PUSH1 0xA0 SHL SUB SWAP1 SWAP2 AND SWAP4 POP PUSH4 0xBEC3FA17 SWAP3 POP PUSH1 0x44 ADD SWAP1 POP PUSH1 0x0 PUSH1 0x40 MLOAD DUP1 DUP4 SUB DUP2 PUSH1 0x0 DUP8 DUP1 EXTCODESIZE ISZERO DUP1 ISZERO PUSH2 0xCC4 JUMPI PUSH1 0x0 DUP1 REVERT JUMPDEST POP GAS CALL ISZERO DUP1 ISZERO PUSH2 0xCD8 JUMPI RETURNDATASIZE PUSH1 0x0 DUP1 RETURNDATACOPY RETURNDATASIZE PUSH1 0x0 REVERT JUMPDEST POP POP POP POP POP POP POP POP POP JUMP JUMPDEST PUSH1 0x0 DUP1 SLOAD PUSH1 0x40 MLOAD PUSH4 0x3AECD0E3 PUSH1 0xE0 SHL DUP2 MSTORE PUSH1 0x1 PUSH1 0x1 PUSH1 0xA0 SHL SUB DUP5 DUP2 AND PUSH1 0x4 DUP4 ADD MSTORE SWAP1 SWAP2 AND SWAP1 PUSH4 0x3AECD0E3 SWAP1 PUSH1 0x24 ADD PUSH1 0x20 PUSH1 0x40 MLOAD DUP1 DUP4 SUB DUP2 DUP7 GAS STATICCALL ISZERO DUP1 ISZERO PUSH2 0xD2E JUMPI RETURNDATASIZE PUSH1 0x0 DUP1 RETURNDATACOPY RETURNDATASIZE PUSH1 0x0 REVERT JUMPDEST POP POP POP POP PUSH1 0x40 MLOAD RETURNDATASIZE PUSH1 0x1F NOT PUSH1 0x1F DUP3 ADD AND DUP3 ADD DUP1 PUSH1 0x40 MSTORE POP DUP2 ADD SWAP1 PUSH2 0xD52 SWAP2 SWAP1 PUSH2 0x1753 JUMP JUMPDEST SWAP3 SWAP2 POP POP JUMP JUMPDEST PUSH1 0x0 SLOAD PUSH1 0x40 MLOAD PUSH4 0x30159C37 PUSH1 0xE1 SHL DUP2 MSTORE CALLER PUSH1 0x4 DUP3 ADD MSTORE PUSH8 0xDE0B6B3A7640000 SWAP2 PUSH1 0x1 PUSH1 0x1 PUSH1 0xA0 SHL SUB AND SWAP1 PUSH4 0x602B386E SWAP1 PUSH1 0x24 ADD PUSH1 0x20 PUSH1 0x40 MLOAD DUP1 DUP4 SUB DUP2 DUP7 GAS STATICCALL ISZERO DUP1 ISZERO PUSH2 0xDA8 JUMPI RETURNDATASIZE PUSH1 0x0 DUP1 RETURNDATACOPY RETURNDATASIZE PUSH1 0x0 REVERT JUMPDEST POP POP POP POP PUSH1 0x40 MLOAD RETURNDATASIZE PUSH1 0x1F NOT PUSH1 0x1F DUP3 ADD AND DUP3 ADD DUP1 PUSH1 0x40 MSTORE POP DUP2 ADD SWAP1 PUSH2 0xDCC SWAP2 SWAP1 PUSH2 0x16D8 JUMP JUMPDEST PUSH2 0xDD8 JUMPI PUSH2 0xDD8 PUSH2 0x4B1 JUMP JUMPDEST PUSH1 0x0 SLOAD PUSH1 0x40 MLOAD PUSH4 0x73DB821F PUSH1 0xE1 SHL DUP2 MSTORE PUSH1 0x1 PUSH1 0x1 PUSH1 0xA0 SHL SUB SWAP1 SWAP2 AND SWAP1 PUSH4 0xE7B7043E SWAP1 PUSH2 0xE10 SWAP1 DUP10 SWAP1 DUP10 SWAP1 DUP10 SWAP1 DUP10 SWAP1 DUP10 SWAP1 PUSH1 0x4 ADD PUSH2 0x176C JUMP JUMPDEST PUSH1 0x0 PUSH1 0x40 MLOAD DUP1 DUP4 SUB DUP2 PUSH1 0x0 DUP8 DUP1 EXTCODESIZE ISZERO DUP1 ISZERO PUSH2 0xE2A JUMPI PUSH1 0x0 DUP1 REVERT JUMPDEST POP GAS CALL ISZERO DUP1 ISZERO PUSH2 0xE3E JUMPI RETURNDATASIZE PUSH1 0x0 DUP1 RETURNDATACOPY RETURNDATASIZE PUSH1 0x0 REVERT JUMPDEST POP POP PUSH1 0x0 SLOAD PUSH1 0x40 MLOAD PUSH4 0xBEC3FA17 PUSH1 0xE0 SHL DUP2 MSTORE CALLER PUSH1 0x4 DUP3 ADD MSTORE PUSH1 0x24 DUP2 ADD DUP6 SWAP1 MSTORE PUSH1 0x1 PUSH1 0x1 PUSH1 0xA0 SHL SUB SWAP1 SWAP2 AND SWAP3 POP PUSH4 0xBEC3FA17 SWAP2 POP PUSH1 0x44 ADD PUSH2 0xA51 JUMP JUMPDEST PUSH1 0x40 MLOAD DUP1 PUSH1 0xC0 ADD PUSH1 0x40 MSTORE DUP1 PUSH1 0x0 PUSH1 0x1 PUSH1 0x1 PUSH1 0xA0 SHL SUB AND DUP2 MSTORE PUSH1 0x20 ADD PUSH1 0x60 DUP2 MSTORE PUSH1 0x20 ADD PUSH1 0x60 DUP2 MSTORE PUSH1 0x20 ADD PUSH1 0x60 DUP2 MSTORE PUSH1 0x20 ADD PUSH1 0x0 PUSH1 0x2 DUP2 GT ISZERO PUSH2 0xEBC JUMPI PUSH2 0xEBC PUSH2 0x101B JUMP JUMPDEST DUP2 MSTORE PUSH1 0x20 ADD PUSH2 0xEEC PUSH1 0x40 MLOAD DUP1 PUSH1 0x80 ADD PUSH1 0x40 MSTORE DUP1 PUSH1 0x0 DUP2 MSTORE PUSH1 0x20 ADD PUSH1 0x0 DUP2 MSTORE PUSH1 0x20 ADD PUSH1 0x0 DUP2 MSTORE PUSH1 0x20 ADD PUSH1 0x0 DUP2 MSTORE POP SWAP1 JUMP JUMPDEST SWAP1 MSTORE SWAP1 JUMP JUMPDEST PUSH1 0x1 PUSH1 0x1 PUSH1 0xA0 SHL SUB DUP2 AND DUP2 EQ PUSH2 0xF06 JUMPI PUSH1 0x0 DUP1 REVERT JUMPDEST POP JUMP JUMPDEST PUSH1 0x0 PUSH1 0x20 DUP3 DUP5 SUB SLT ISZERO PUSH2 0xF1B JUMPI PUSH1 0x0 DUP1 REVERT JUMPDEST DUP2 CALLDATALOAD PUSH2 0xF26 DUP2 PUSH2 0xEF1 JUMP JUMPDEST SWAP4 SWAP3 POP POP POP JUMP JUMPDEST PUSH1 0x0 JUMPDEST DUP4 DUP2 LT ISZERO PUSH2 0xF48 JUMPI DUP2 DUP2 ADD MLOAD DUP4 DUP3 ADD MSTORE PUSH1 0x20 ADD PUSH2 0xF30 JUMP JUMPDEST DUP4 DUP2 GT ISZERO PUSH2 0x5CA JUMPI POP POP PUSH1 0x0 SWAP2 ADD MSTORE JUMP JUMPDEST PUSH1 0x0 DUP2 MLOAD DUP1 DUP5 MSTORE PUSH2 0xF71 DUP2 PUSH1 0x20 DUP7 ADD PUSH1 0x20 DUP7 ADD PUSH2 0xF2D JUMP JUMPDEST PUSH1 0x1F ADD PUSH1 0x1F NOT AND SWAP3 SWAP1 SWAP3 ADD PUSH1 0x20 ADD SWAP3 SWAP2 POP POP JUMP JUMPDEST PUSH1 0x0 PUSH1 0x20 DUP1 DUP4 ADD DUP2 DUP5 MSTORE DUP1 DUP6 MLOAD DUP1 DUP4 MSTORE PUSH1 0x40 SWAP3 POP DUP3 DUP7 ADD SWAP2 POP DUP3 DUP2 PUSH1 0x5 SHL DUP8 ADD ADD DUP5 DUP9 ADD PUSH1 0x0 JUMPDEST DUP4 DUP2 LT ISZERO PUSH2 0x100D JUMPI DUP9 DUP4 SUB PUSH1 0x3F NOT ADD DUP6 MSTORE DUP2 MLOAD DUP1 MLOAD PUSH1 0x1 PUSH1 0x1 PUSH1 0xA0 SHL SUB AND DUP5 MSTORE DUP8 DUP2 ADD MLOAD PUSH1 0x80 DUP10 DUP7 ADD DUP2 SWAP1 MSTORE SWAP1 PUSH2 0xFE5 DUP3 DUP8 ADD DUP3 PUSH2 0xF59 JUMP JUMPDEST DUP4 DUP11 ADD MLOAD DUP8 DUP12 ADD MSTORE PUSH1 0x60 SWAP4 DUP5 ADD MLOAD SWAP4 SWAP1 SWAP7 ADD SWAP3 SWAP1 SWAP3 MSTORE POP POP SWAP4 DUP7 ADD SWAP4 SWAP1 DUP7 ADD SWAP1 PUSH1 0x1 ADD PUSH2 0xFAC JUMP JUMPDEST POP SWAP1 SWAP9 SWAP8 POP POP POP POP POP POP POP POP JUMP JUMPDEST PUSH4 0x4E487B71 PUSH1 0xE0 SHL PUSH1 0x0 MSTORE PUSH1 0x21 PUSH1 0x4 MSTORE PUSH1 0x24 PUSH1 0x0 REVERT JUMPDEST PUSH1 0x3 DUP2 LT PUSH2 0x1041 JUMPI PUSH2 0x1041 PUSH2 0x101B JUMP JUMPDEST SWAP1 MSTORE JUMP JUMPDEST PUSH1 0x20 DUP1 DUP3 MSTORE DUP3 MLOAD PUSH1 0x1 PUSH1 0x1 PUSH1 0xA0 SHL SUB AND DUP3 DUP3 ADD MSTORE DUP3 ADD MLOAD PUSH2 0x120 PUSH1 0x40 DUP4 ADD DUP2 SWAP1 MSTORE PUSH1 0x0 SWAP2 SWAP1 PUSH2 0x1078 PUSH2 0x140 DUP6 ADD DUP4 PUSH2 0xF59 JUMP JUMPDEST SWAP2 POP PUSH1 0x40 DUP6 ADD MLOAD PUSH1 0x1F NOT DUP1 DUP7 DUP6 SUB ADD PUSH1 0x60 DUP8 ADD MSTORE PUSH2 0x1096 DUP5 DUP4 PUSH2 0xF59 JUMP JUMPDEST SWAP4 POP PUSH1 0x60 DUP8 ADD MLOAD SWAP2 POP DUP1 DUP7 DUP6 SUB ADD PUSH1 0x80 DUP8 ADD MSTORE POP PUSH2 0x10B4 DUP4 DUP3 PUSH2 0xF59 JUMP JUMPDEST SWAP3 POP POP PUSH1 0x80 DUP6 ADD MLOAD PUSH2 0x10C9 PUSH1 0xA0 DUP7 ADD DUP3 PUSH2 0x1031 JUMP JUMPDEST POP PUSH1 0xA0 SWAP5 SWAP1 SWAP5 ADD MLOAD DUP1 MLOAD PUSH1 0xC0 DUP6 ADD MSTORE PUSH1 0x20 DUP2 ADD MLOAD PUSH1 0xE0 DUP6 ADD MSTORE PUSH1 0x40 DUP2 ADD MLOAD PUSH2 0x100 DUP6 ADD MSTORE PUSH1 0x60 ADD MLOAD SWAP3 SWAP1 SWAP4 ADD SWAP2 SWAP1 SWAP2 MSTORE POP SWAP1 JUMP JUMPDEST PUSH4 0x4E487B71 PUSH1 0xE0 SHL PUSH1 0x0 MSTORE PUSH1 0x41 PUSH1 0x4 MSTORE PUSH1 0x24 PUSH1 0x0 REVERT JUMPDEST PUSH1 0x40 MLOAD PUSH1 0x80 DUP2 ADD PUSH8 0xFFFFFFFFFFFFFFFF DUP2 GT DUP3 DUP3 LT OR ISZERO PUSH2 0x1136 JUMPI PUSH2 0x1136 PUSH2 0x10FD JUMP JUMPDEST PUSH1 0x40 MSTORE SWAP1 JUMP JUMPDEST PUSH1 0x40 MLOAD PUSH1 0xC0 DUP2 ADD PUSH8 0xFFFFFFFFFFFFFFFF DUP2 GT DUP3 DUP3 LT OR ISZERO PUSH2 0x1136 JUMPI PUSH2 0x1136 PUSH2 0x10FD JUMP JUMPDEST PUSH1 0x40 MLOAD PUSH1 0x1F DUP3 ADD PUSH1 0x1F NOT AND DUP2 ADD PUSH8 0xFFFFFFFFFFFFFFFF DUP2 GT DUP3 DUP3 LT OR ISZERO PUSH2 0x1188 JUMPI PUSH2 0x1188 PUSH2 0x10FD JUMP JUMPDEST PUSH1 0x40 MSTORE SWAP2 SWAP1 POP JUMP JUMPDEST PUSH1 0x0 PUSH8 0xFFFFFFFFFFFFFFFF DUP3 GT ISZERO PUSH2 0x11AA JUMPI PUSH2 0x11AA PUSH2 0x10FD JUMP JUMPDEST POP PUSH1 0x1F ADD PUSH1 0x1F NOT AND PUSH1 0x20 ADD SWAP1 JUMP JUMPDEST PUSH1 0x0 DUP3 PUSH1 0x1F DUP4 ADD SLT PUSH2 0x11C9 JUMPI PUSH1 0x0 DUP1 REVERT JUMPDEST DUP2 CALLDATALOAD PUSH2 0x11DC PUSH2 0x11D7 DUP3 PUSH2 0x1190 JUMP JUMPDEST PUSH2 0x115F JUMP JUMPDEST DUP2 DUP2 MSTORE DUP5 PUSH1 0x20 DUP4 DUP7 ADD ADD GT ISZERO PUSH2 0x11F1 JUMPI PUSH1 0x0 DUP1 REVERT JUMPDEST DUP2 PUSH1 0x20 DUP6 ADD PUSH1 0x20 DUP4 ADD CALLDATACOPY PUSH1 0x0 SWAP2 DUP2 ADD PUSH1 0x20 ADD SWAP2 SWAP1 SWAP2 MSTORE SWAP4 SWAP3 POP POP POP JUMP JUMPDEST PUSH1 0x0 DUP1 PUSH1 0x40 DUP4 DUP6 SUB SLT ISZERO PUSH2 0x1221 JUMPI PUSH1 0x0 DUP1 REVERT JUMPDEST DUP3 CALLDATALOAD PUSH2 0x122C DUP2 PUSH2 0xEF1 JUMP JUMPDEST SWAP2 POP PUSH1 0x20 DUP4 ADD CALLDATALOAD PUSH8 0xFFFFFFFFFFFFFFFF DUP2 GT ISZERO PUSH2 0x1248 JUMPI PUSH1 0x0 DUP1 REVERT JUMPDEST PUSH2 0x1254 DUP6 DUP3 DUP7 ADD PUSH2 0x11B8 JUMP JUMPDEST SWAP2 POP POP SWAP3 POP SWAP3 SWAP1 POP JUMP JUMPDEST PUSH1 0x0 DUP1 PUSH1 0x0 DUP1 PUSH1 0x80 DUP6 DUP8 SUB SLT ISZERO PUSH2 0x1274 JUMPI PUSH1 0x0 DUP1 REVERT JUMPDEST DUP5 CALLDATALOAD PUSH2 0x127F DUP2 PUSH2 0xEF1 JUMP JUMPDEST SWAP7 PUSH1 0x20 DUP7 ADD CALLDATALOAD SWAP7 POP PUSH1 0x40 DUP7 ADD CALLDATALOAD SWAP6 PUSH1 0x60 ADD CALLDATALOAD SWAP5 POP SWAP3 POP POP POP JUMP JUMPDEST PUSH1 0x0 DUP1 PUSH1 0x0 PUSH1 0x60 DUP5 DUP7 SUB SLT ISZERO PUSH2 0x12AE JUMPI PUSH1 0x0 DUP1 REVERT JUMPDEST DUP4 CALLDATALOAD PUSH2 0x12B9 DUP2 PUSH2 0xEF1 JUMP JUMPDEST SWAP3 POP PUSH1 0x20 DUP5 ADD CALLDATALOAD SWAP2 POP PUSH1 0x40 DUP5 ADD CALLDATALOAD PUSH1 0x2 DUP2 LT PUSH2 0x12D4 JUMPI PUSH1 0x0 DUP1 REVERT JUMPDEST DUP1 SWAP2 POP POP SWAP3 POP SWAP3 POP SWAP3 JUMP JUMPDEST PUSH1 0x3 DUP2 LT PUSH2 0xF06 JUMPI PUSH1 0x0 DUP1 REVERT JUMPDEST PUSH1 0x0 DUP1 PUSH1 0x0 DUP1 PUSH1 0x0 PUSH1 0xA0 DUP7 DUP9 SUB SLT ISZERO PUSH2 0x1304 JUMPI PUSH1 0x0 DUP1 REVERT JUMPDEST DUP6 CALLDATALOAD PUSH2 0x130F DUP2 PUSH2 0xEF1 JUMP JUMPDEST SWAP5 POP PUSH1 0x20 DUP7 ADD CALLDATALOAD PUSH8 0xFFFFFFFFFFFFFFFF DUP1 DUP3 GT ISZERO PUSH2 0x132C JUMPI PUSH1 0x0 DUP1 REVERT JUMPDEST PUSH2 0x1338 DUP10 DUP4 DUP11 ADD PUSH2 0x11B8 JUMP JUMPDEST SWAP6 POP PUSH1 0x40 DUP9 ADD CALLDATALOAD SWAP2 POP DUP1 DUP3 GT ISZERO PUSH2 0x134E JUMPI PUSH1 0x0 DUP1 REVERT JUMPDEST PUSH2 0x135A DUP10 DUP4 DUP11 ADD PUSH2 0x11B8 JUMP JUMPDEST SWAP5 POP PUSH1 0x60 DUP9 ADD CALLDATALOAD SWAP2 POP DUP1 DUP3 GT ISZERO PUSH2 0x1370 JUMPI PUSH1 0x0 DUP1 REVERT JUMPDEST POP PUSH2 0x137D DUP9 DUP3 DUP10 ADD PUSH2 0x11B8 JUMP JUMPDEST SWAP3 POP POP PUSH1 0x80 DUP7 ADD CALLDATALOAD PUSH2 0x138E DUP2 PUSH2 0x12DF JUMP JUMPDEST DUP1 SWAP2 POP POP SWAP3 SWAP6 POP SWAP3 SWAP6 SWAP1 SWAP4 POP JUMP JUMPDEST DUP1 MLOAD PUSH2 0x13A7 DUP2 PUSH2 0xEF1 JUMP JUMPDEST SWAP2 SWAP1 POP JUMP JUMPDEST PUSH1 0x0 PUSH1 0x20 DUP3 DUP5 SUB SLT ISZERO PUSH2 0x13BE JUMPI PUSH1 0x0 DUP1 REVERT JUMPDEST DUP2 MLOAD PUSH2 0xF26 DUP2 PUSH2 0xEF1 JUMP JUMPDEST PUSH1 0x20 DUP1 DUP3 MSTORE PUSH1 0x4B SWAP1 DUP3 ADD MSTORE PUSH32 0x536F7272792074686973206173736574206973206E6F7420617661696C61626C PUSH1 0x40 DUP3 ADD MSTORE PUSH32 0x652C20506C6561736520636F6E736964657220616464696E6720697420746F20 PUSH1 0x60 DUP3 ADD MSTORE PUSH11 0x3A34329039BCB9BA32B697 PUSH1 0xA9 SHL PUSH1 0x80 DUP3 ADD MSTORE PUSH1 0xA0 ADD SWAP1 JUMP JUMPDEST PUSH1 0x0 DUP3 PUSH1 0x1F DUP4 ADD SLT PUSH2 0x144B JUMPI PUSH1 0x0 DUP1 REVERT JUMPDEST DUP2 MLOAD PUSH2 0x1459 PUSH2 0x11D7 DUP3 PUSH2 0x1190 JUMP JUMPDEST DUP2 DUP2 MSTORE DUP5 PUSH1 0x20 DUP4 DUP7 ADD ADD GT ISZERO PUSH2 0x146E JUMPI PUSH1 0x0 DUP1 REVERT JUMPDEST PUSH2 0x333 DUP3 PUSH1 0x20 DUP4 ADD PUSH1 0x20 DUP8 ADD PUSH2 0xF2D JUMP JUMPDEST PUSH1 0x0 PUSH1 0x20 DUP1 DUP4 DUP6 SUB SLT ISZERO PUSH2 0x1492 JUMPI PUSH1 0x0 DUP1 REVERT JUMPDEST DUP3 MLOAD PUSH8 0xFFFFFFFFFFFFFFFF DUP1 DUP3 GT ISZERO PUSH2 0x14AA JUMPI PUSH1 0x0 DUP1 REVERT JUMPDEST DUP2 DUP6 ADD SWAP2 POP DUP6 PUSH1 0x1F DUP4 ADD SLT PUSH2 0x14BE JUMPI PUSH1 0x0 DUP1 REVERT JUMPDEST DUP2 MLOAD DUP2 DUP2 GT ISZERO PUSH2 0x14D0 JUMPI PUSH2 0x14D0 PUSH2 0x10FD JUMP JUMPDEST DUP1 PUSH1 0x5 SHL PUSH2 0x14DF DUP6 DUP3 ADD PUSH2 0x115F JUMP JUMPDEST SWAP2 DUP3 MSTORE DUP4 DUP2 ADD DUP6 ADD SWAP2 DUP6 DUP2 ADD SWAP1 DUP10 DUP5 GT ISZERO PUSH2 0x14F9 JUMPI PUSH1 0x0 DUP1 REVERT JUMPDEST DUP7 DUP7 ADD SWAP3 POP JUMPDEST DUP4 DUP4 LT ISZERO PUSH2 0x1592 JUMPI DUP3 MLOAD DUP6 DUP2 GT ISZERO PUSH2 0x1517 JUMPI PUSH1 0x0 DUP1 DUP2 REVERT JUMPDEST DUP7 ADD PUSH1 0x80 DUP2 DUP13 SUB PUSH1 0x1F NOT ADD DUP2 SGT ISZERO PUSH2 0x152F JUMPI PUSH1 0x0 DUP1 DUP2 REVERT JUMPDEST PUSH2 0x1537 PUSH2 0x1113 JUMP JUMPDEST DUP10 DUP4 ADD MLOAD PUSH2 0x1544 DUP2 PUSH2 0xEF1 JUMP JUMPDEST DUP2 MSTORE PUSH1 0x40 DUP4 DUP2 ADD MLOAD DUP10 DUP2 GT ISZERO PUSH2 0x155A JUMPI PUSH1 0x0 DUP1 DUP2 REVERT JUMPDEST PUSH2 0x1568 DUP16 DUP14 DUP4 DUP9 ADD ADD PUSH2 0x143A JUMP JUMPDEST DUP4 DUP14 ADD MSTORE POP PUSH1 0x60 DUP5 DUP2 ADD MLOAD SWAP2 DUP4 ADD SWAP2 SWAP1 SWAP2 MSTORE SWAP2 SWAP1 SWAP3 ADD MLOAD SWAP1 DUP3 ADD MSTORE DUP3 MSTORE SWAP2 DUP7 ADD SWAP2 SWAP1 DUP7 ADD SWAP1 PUSH2 0x14FF JUMP JUMPDEST SWAP10 SWAP9 POP POP POP POP POP POP POP POP POP JUMP JUMPDEST DUP1 MLOAD PUSH2 0x13A7 DUP2 PUSH2 0x12DF JUMP JUMPDEST PUSH1 0x0 PUSH1 0x80 DUP3 DUP5 SUB SLT ISZERO PUSH2 0x15BC JUMPI PUSH1 0x0 DUP1 REVERT JUMPDEST PUSH2 0x15C4 PUSH2 0x1113 JUMP JUMPDEST SWAP1 POP DUP2 MLOAD DUP2 MSTORE PUSH1 0x20 DUP3 ADD MLOAD PUSH1 0x20 DUP3 ADD MSTORE PUSH1 0x40 DUP3 ADD MLOAD PUSH1 0x40 DUP3 ADD MSTORE PUSH1 0x60 DUP3 ADD MLOAD PUSH1 0x60 DUP3 ADD MSTORE SWAP3 SWAP2 POP POP JUMP JUMPDEST PUSH1 0x0 PUSH1 0x20 DUP3 DUP5 SUB SLT ISZERO PUSH2 0x1600 JUMPI PUSH1 0x0 DUP1 REVERT JUMPDEST DUP2 MLOAD PUSH8 0xFFFFFFFFFFFFFFFF DUP1 DUP3 GT ISZERO PUSH2 0x1618 JUMPI PUSH1 0x0 DUP1 REVERT JUMPDEST SWAP1 DUP4 ADD SWAP1 PUSH2 0x120 DUP3 DUP7 SUB SLT ISZERO PUSH2 0x162D JUMPI PUSH1 0x0 DUP1 REVERT JUMPDEST PUSH2 0x1635 PUSH2 0x113C JUMP JUMPDEST PUSH2 0x163E DUP4 PUSH2 0x139C JUMP JUMPDEST DUP2 MSTORE PUSH1 0x20 DUP4 ADD MLOAD DUP3 DUP2 GT ISZERO PUSH2 0x1652 JUMPI PUSH1 0x0 DUP1 REVERT JUMPDEST PUSH2 0x165E DUP8 DUP3 DUP7 ADD PUSH2 0x143A JUMP JUMPDEST PUSH1 0x20 DUP4 ADD MSTORE POP PUSH1 0x40 DUP4 ADD MLOAD DUP3 DUP2 GT ISZERO PUSH2 0x1676 JUMPI PUSH1 0x0 DUP1 REVERT JUMPDEST PUSH2 0x1682 DUP8 DUP3 DUP7 ADD PUSH2 0x143A JUMP JUMPDEST PUSH1 0x40 DUP4 ADD MSTORE POP PUSH1 0x60 DUP4 ADD MLOAD DUP3 DUP2 GT ISZERO PUSH2 0x169A JUMPI PUSH1 0x0 DUP1 REVERT JUMPDEST PUSH2 0x16A6 DUP8 DUP3 DUP7 ADD PUSH2 0x143A JUMP JUMPDEST PUSH1 0x60 DUP4 ADD MSTORE POP PUSH2 0x16B8 PUSH1 0x80 DUP5 ADD PUSH2 0x159F JUMP JUMPDEST PUSH1 0x80 DUP3 ADD MSTORE PUSH2 0x16CA DUP7 PUSH1 0xA0 DUP6 ADD PUSH2 0x15AA JUMP JUMPDEST PUSH1 0xA0 DUP3 ADD MSTORE SWAP6 SWAP5 POP POP POP POP POP JUMP JUMPDEST PUSH1 0x0 PUSH1 0x20 DUP3 DUP5 SUB SLT ISZERO PUSH2 0x16EA JUMPI PUSH1 0x0 DUP1 REVERT JUMPDEST DUP2 MLOAD DUP1 ISZERO ISZERO DUP2 EQ PUSH2 0xF26 JUMPI PUSH1 0x0 DUP1 REVERT JUMPDEST PUSH1 0x1 PUSH1 0x1 PUSH1 0xA0 SHL SUB DUP4 AND DUP2 MSTORE PUSH1 0x40 PUSH1 0x20 DUP3 ADD DUP2 SWAP1 MSTORE PUSH1 0x0 SWAP1 PUSH2 0x333 SWAP1 DUP4 ADD DUP5 PUSH2 0xF59 JUMP JUMPDEST PUSH1 0x1 PUSH1 0x1 PUSH1 0xA0 SHL SUB DUP5 AND DUP2 MSTORE PUSH1 0x20 DUP2 ADD DUP4 SWAP1 MSTORE PUSH1 0x60 DUP2 ADD PUSH1 0x2 DUP4 LT PUSH2 0x1745 JUMPI PUSH2 0x1745 PUSH2 0x101B JUMP JUMPDEST DUP3 PUSH1 0x40 DUP4 ADD MSTORE SWAP5 SWAP4 POP POP POP POP JUMP JUMPDEST PUSH1 0x0 PUSH1 0x20 DUP3 DUP5 SUB SLT ISZERO PUSH2 0x1765 JUMPI PUSH1 0x0 DUP1 REVERT JUMPDEST POP MLOAD SWAP2 SWAP1 POP JUMP JUMPDEST PUSH1 0x1 PUSH1 0x1 PUSH1 0xA0 SHL SUB DUP7 AND DUP2 MSTORE PUSH1 0xA0 PUSH1 0x20 DUP3 ADD DUP2 SWAP1 MSTORE PUSH1 0x0 SWAP1 PUSH2 0x1790 SWAP1 DUP4 ADD DUP8 PUSH2 0xF59 JUMP JUMPDEST DUP3 DUP2 SUB PUSH1 0x40 DUP5 ADD MSTORE PUSH2 0x17A2 DUP2 DUP8 PUSH2 0xF59 JUMP JUMPDEST SWAP1 POP DUP3 DUP2 SUB PUSH1 0x60 DUP5 ADD MSTORE PUSH2 0x17B6 DUP2 DUP7 PUSH2 0xF59 JUMP JUMPDEST SWAP2 POP POP PUSH2 0x17C6 PUSH1 0x80 DUP4 ADD DUP5 PUSH2 0x1031 JUMP JUMPDEST SWAP7 SWAP6 POP POP POP POP POP POP JUMP INVALID LOG2 PUSH5 0x6970667358 0x22 SLT KECCAK256 PUSH16 0xC86F6A45F1DFA334F86EFC19D2FA3B31 DUP5 DUP13 POP PUSH16 0x50039F5A7CA6F91D80F9E564736F6C63 NUMBER STOP ADDMOD EXP STOP CALLER ",
  "sha1": "a5419cd8e4bc54901e466122eb4208af53a54c87",
  "source": "// SPDX-License-Identifier: GPL-3.0\n\npragma solidity >=0.6.6 <0.9.0;\n\nimport \"./Asset.sol\";\nimport \"./TruthToken.sol\";\nimport \"./CollectiveTruth.sol\";\n\n// store a map of asset contracts\n// onboard assets to master if not available\n\ncontract CommunityAudits {\n    CollectiveTruth public data;\n\n    constructor(CollectiveTruth _data) {\n        data = CollectiveTruth(_data);\n    }\n\n    modifier checkExistingUser() {\n        require(data.getUsers(msg.sender) == false, \"User already registered.\");\n        _;\n    }\n\n    function registerUser() public checkExistingUser {\n        data.registerUser(msg.sender,0);\n    }\n\n    function truthBalance(address _user) public view returns (uint256) {\n        return data.getTokenBalance(_user);\n    }\n\n    modifier rewardUsers(uint256 _reward) {\n        if (data.getUsers(msg.sender) == false) {\n            registerUser();\n        }\n        _;\n        data.transferTokens(msg.sender, _reward);\n    }\n\n    function createAsset(\n        address _contract,\n        string memory _name,\n        string memory _symbol,\n        string memory _imageURL,\n        CATEGORY _category\n    ) public payable rewardUsers(10**18) {\n        data.createAsset(_contract, _name, _symbol, _imageURL, _category);\n    }\n\n    modifier checkAsset(address _contract) {\n        require(\n            data.getAssetContractsMap(_contract) != address(0),\n            \"Sorry this asset is not available, Please consider adding it to the system.\"\n        );\n        _;\n    }\n\n    function getAssetRatings(address _contract)\n        public\n        view\n        checkAsset(_contract)\n        returns (Data memory)\n    {\n        Asset assetContract = Asset(\n            address(data.getAssetContractsMap(_contract))\n        );\n        return assetContract.data();\n    }\n\n    function getAssetComments(address _contract)\n        public\n        view\n        checkAsset(_contract)\n        returns (Comment[] memory)\n    {\n        Asset assetContract = Asset(\n            address(data.getAssetContractsMap(_contract))\n        );\n        return assetContract.getComments();\n    }\n\n    function rateAsset(\n        address _contract,\n        uint256 _technicalImplementation,\n        uint256 _trustFactor,\n        uint256 _founderReliability\n    ) public payable checkAsset(_contract) rewardUsers(10**17) {\n        Asset assetContract = Asset(\n            address(data.getAssetContractsMap(_contract))\n        );\n        assetContract.rate(\n            msg.sender,\n            _technicalImplementation,\n            _trustFactor,\n            _founderReliability\n        );\n    }\n\n    function commentAsset(address _contract, string memory message)\n        public\n        payable\n        checkAsset(_contract)\n        rewardUsers(5 * 10**17)\n    {\n        Asset assetContract = Asset(\n            address(data.getAssetContractsMap(_contract))\n        );\n        assetContract.postComment(msg.sender, message);\n    }\n\n    function voteComment(\n        address _contract,\n        uint256 _comment,\n        VOTE _vote\n    ) public payable checkAsset(_contract) rewardUsers(10**17) {\n        Asset assetContract = Asset(\n            address(data.getAssetContractsMap(_contract))\n        );\n        assetContract.voteComment(msg.sender, _comment, _vote);\n    }\n}\n",
  "sourcePath": "contracts/CommunityAudits.sol",
  "type": "contract"
}